+eMate-CM4 0.9
:020000041000EA
:1010000000B50C4B00219960042159610A4919600F
:101010000A490B480160002159600121996001BC17
:10102000002800D0004707480749086003C880F33C
:10103000088808470000001800031F00180200037A
:10104000F40000180001001008ED00E000000000AE
:101050000000000000000000000000000000000090
:101060000000000000000000000000000000000080
:101070000000000000000000000000000000000070
:101080000000000000000000000000000000000060
:101090000000000000000000000000000000000050
:1010A0000000000000000000000000000000000040
:1010B0000000000000000000000000000000000030
:1010C0000000000000000000000000000000000020
:1010D0000000000000000000000000000000000010
:1010E0000000000000000000000000000000000000
:1010F0000000000000000000000000002CEC210DAA
:1011000000200420F7110010C3110010C5110010B9
:10111000C1110010C1110010C1110010C111001047
:10112000C1110010C1110010C1110010C711001031
:10113000C1110010C1110010C9110010CB11001015
:10114000CD110010CD110010CD110010CD110010E7
:10115000CD110010CD110010CD110010CD110010D7
:10116000CD110010CD110010CD110010CD110010C7
:10117000CD110010CD110010CD110010CD110010B7
:10118000CD110010CD110010CD110010CD110010A7
:10119000CD110010CD110010CD110010CD11001097
:1011A000CD110010CD110010CD110010CD11001087
:1011B000CD110010CD110010CD110010CD11001077
:1011C00000BE00BE00BE00BE00BE00BE00F04BF878
:1011D000103800BEF2EB8871C4A60010E8A600101B
:1011E0003412001090A31AE700202149086006C8B5
:1011F00081F3088810471F48006800282FD10DA4EC
:101200000ECC002902D000F012F8F9E71A491B4A67
:10121000002000E001C19142FCD1194988471949D9
:1012200088471949884700BEFDE701C901C29A42B3
:10123000FBD37047E8A60010C00000205005002036
:1012400084AB0010000004200000042084AB0010D8
:1012500000100420001004200000000070470B481C
:1012600002F0B0FB0047EFF30580C0B2704700000A
:1012700008ED00E0000000D060050020441A0120C5
:10128000F13A0010C1160010B13A00105756000094
:1012900006005250ABB3605334A100100600525008
:1012A000861C030244A10010060052505422A29D45
:1012B00050A1001005005250DE65F46884AB0010A8
:1012C000F8B5C0460448054B10B5834203D0044B23
:1012D000002B00D0984710BD50050020500500207D
:1012E0000000000006480749091A8B10C90FC918E9
:1012F00010B5491003D0044B002B00D0984710BD07
:1013000050050020500500200000000010B5074CDB
:101310002378002B09D1FFF7D5FF054B002B02D016
:10132000044800E000BF0123237010BD60060020C8
:1013300000000000D08D0010054B10B5002B03D02D
:101340000449054800E000BFFFF7CCFF10BDC046D0
:101350000000000064060020D08D001070B51C4B0A
:1013600019680A68D36A002B1AD0580600D5506D48
:101370000424200018401C4217D0154B1B79002B69
:101380000FD11369124A13711B0609D4114B9A1E0F
:101390001C00083C6179207900F040FA0023237199
:1013A00070BD12690A4B5A71F0E79B06F8D5084CDC
:1013B000257A063407E00B685A6F102AFBD0227892
:1013C0001A61013001348542F5D80B681B6DE7E7DF
:1013D000881301209013012010B5054B1C681220C2
:1013E00000F010FA02000121200002F0C7FA10BD3F
:1013F0008813012010B5164C16482060164902F0DB
:1014000091FAFFF7E9FF03211C2000F005FF0022FD
:1014100001211C2000F018FF03211D2000F0FCFE1C
:10142000002201211D2000F00FFF246823686422A0
:101430001A630A4BE41A63425C41173408492000DE
:1014400000F0C2FF0121200000F0A6FF10BDC04641
:1014500088130120CC040020A0860100C4040020D1
:101460005D13001010B5002B02DB0260436010BD5D
:10147000024B034A03483F2102F01EFBD08D0010AF
:10148000448E0010EC8D001010B582B0040001F005
:10149000B7FD02000B006846FFF7E4FF009A019BCE
:1014A00022606360200002B010BDF0B585B0050079
:1014B00016001F000192FA22920000230A980021D0
:1014C00004F0F6FA02000B0092197B419F4202D809
:1014D00004D1964202D901225242D31702A8FFF743
:1014E000C1FF029A039B2A606B60280005B0F0BD23
:1014F000F0B5C64600B586B080460C0015001E004B
:101500000CAB1F7804A8FFF7BFFF049A059B00945B
:1015100004A8FFF7CAFF049A059B0297019600955D
:10152000404601F0F9FB06B080BCB846F0BDF0B50E
:1015300083B004000D0016001F0001F0D7FB0097D8
:1015400033002A002100FFF7D3FF03B0F0BD0000F5
:1015500070B506000D00054B1C6804E023682900E7
:10156000300098476468002CF8D170BD94130120B6
:1015700070B504000D0016000B4BC2009B185B5C9D
:10158000B3420DD0094B9B18585C002804D0002EA4
:1015900007D00121FFF7DCFF034BE4001B195E5568
:1015A00070BD0321F6E7C046F01101205C8E0010EB
:1015B000F8B500251BE01C4B1A5DD0231B065B68A9
:1015C000D34001221A4053425A41D2B2290020008E
:1015D000FFF7CEFF01340F2CEDD9D024240666612D
:1015E00000220021380000F02FFEA6620135072DF1
:1015F0000ED80E4B5F5D00220121380000F024FE62
:101600000126BE40D0231B069E615E620024E2E7F5
:10161000072000F0F7F883051B1A9B011B185B00DD
:101620001818C000C117F8BDE48E0010DC8E001041
:10163000084B1B68002B06D01A005B68002B05D0F6
:101640008242F9D104E0034B186001E0506043602E
:101650007047C0469413012070B500240FE0154B6D
:101660001D5D280000F00AFE00220121280000F084
:10167000EBFD0123AB40D0221206936201340F2C04
:10168000EDD90024072C0BD80B4B1D5D280000F072
:10169000F5FD0123AB40D022120693620134F1E73D
:1016A000072000F0AFF8054901230022FFF73FFFB4
:1016B00070BDC046E48E0010DC8E0010B115001025
:1016C00010B5094802F0E2F9084802F0DFF900F02D
:1016D0000BF9FFF7C1FFFFF78DFE00F009FA044890
:1016E00004F0A2FB20BFFDE7004003400080034060
:1016F000F48E0010BFF34F8F034B044ADA60BFF340
:101700004F8FC046FDE7C04600ED00E00400FA053B
:1017100010B500F0CFFB10BD10B5002B02DB02604E
:10172000436010BD024B034A03483F2102F0C4F955
:10173000D08D0010CC8F0010EC8D001010B582B051
:10174000040001F05DFC02000B006846FFF7E4FFB7
:10175000009A019B22606360200002B010BDF0B5CA
:1017600085B0050016001F000192FA2292000023A6
:101770000A98002104F09CF902000B0092197B41A9
:101780009F4202D804D1964202D901225242D31775
:1017900002A8FFF7C1FF029A039B2A606B60280032
:1017A00005B0F0BDF0B5C64600B586B080460C0069
:1017B00015001E000CAB1F7804A8FFF7BFFF049AAA
:1017C000059B009404A8FFF7CAFF049A059B0297A3
:1017D00001960095404601F09FFA06B080BCB846DD
:1017E000F0BDF0B583B004000D0016001F0001F03D
:1017F0007DFA009733002A002100FFF7D3FF03B0E2
:10180000F0BD0000014B185C7047C04698130120E2
:10181000014B19547047C0469813012070B515004C
:101820001E0043B27F24044000223270302C49D87D
:10183000A200264882589746002B06DB2000FFF7BF
:10184000E1FF2870012333703CE02000FFF7E0FF48
:10185000122C37D1FFF7C0FD34E0002B06DB30201F
:10186000FFF7D0FF2870012333702BE0080000F051
:10187000A3FA002809D004DB01213020FFF7C8FFBC
:1018800020E0C1B24942C9B2F7E700213020FFF79A
:10189000BFFF0F49FA20012300224000FFF7A1FFFC
:1018A00010E0002B06DB2000FFF7ACFF28700123BF
:1018B000337007E02000FFF7ABFF03E009232B7034
:1018C000083B337070BDFFF715FFC046088F00104E
:1018D00011170010034B1B5C19404B1E9941C8B2F5
:1018E0007047C0469813012010B592210220FFF7DF
:1018F0008FFF0A210620FFF78BFF0A210720FFF741
:1019000087FFFF210D20FFF783FF64211120FFF7E0
:101910007FFF1F211220FFF77BFF01211320FFF71C
:1019200077FF02211420FFF773FF00212D20FFF71E
:101930006FFF10BD10B51F2000F036FDFA208000AB
:10194000002110BD10B50648002107F021FA00283B
:1019500000D110BD05F0E8FC014807F0F9F9F8E7FF
:10196000CC13012030B583B005000C00002006F038
:10197000BFF9002801D103B030BD02211420FFF7C8
:10198000A9FF0028F7D0002300936A469380012C1A
:1019900008D0022CEFD06B4600220021002006F078
:1019A00013FAE8E71570F6E710B5002B02DB0260CA
:1019B000436010BD024B034A03483F2102F07CF80C
:1019C000D08D0010E48F0010EC8D001010B582B0A7
:1019D000040001F015FB02000B006846FFF7E4FF6E
:1019E000009A019B22606360200002B010BD70B5B8
:1019F00082B0060014001D00069A079B12196B4165
:101A00009D4202D804D1944202D901225242D317F6
:101A10006846FFF7C9FF009A019B3260736030008F
:101A200002B070BDF0B587B0040016001D000EAB0B
:101A30001F7804A8FFF7CAFF049A059B009601953A
:101A400004A8FFF7D4FF049A059B02970D99019112
:101A50000C990091200001F05FF907B0F0BDF0B5DE
:101A6000C64600B584B00500884616001F000AABC4
:101A70001C7801F03BF90294019700962A00434636
:101A8000FFF7D0FF04B080BCB846F0BD002070471F
:101A90007047000070B590B00400002300933C2212
:101AA000002101A804F0BEF840226946200006F09B
:101AB00021FC084DAE1E6B46597818782B00320079
:101AC000FFF7ACFE2A783100200006F025FC10B0AC
:101AD00070BDC046D613012010B50220FFF792FE5C
:101AE00040231843C1B20220FFF792FE10BD000050
:101AF00000B583B006F030FD0C48FFF799FD0C49A6
:101B00001F2000F061FC01211F2000F045FC094866
:101B100001F04EFD084A012300930023FA208000C3
:101B20000021FFF79CFF03B000BDC0462804002041
:101B300045190010CC1301203519001000487047DA
:101B400024910010002803D0012803D00020704702
:101B50000148FCE70148FAE7E0900010909000107F
:101B600000487047FC8F001070B500280DD0072882
:101B700028D8154B8000C458200007F0B7F8C0B231
:101B80001F2800D91F20002312E01048C1239B000A
:101B9000040003800C4B19680230022204F048F85C
:101BA00020000EE05A1CE55C084B5100CD52D3B228
:101BB0009842F7D801304000C0239B0003430348FC
:101BC000038070BD0020FCE730040020F0140120E9
:101BD00010B5030010000AE040000133072B05DCBC
:101BE0000028F9DA4000074A5040F6E723000A00CF
:101BF0000139002A05D05C1C1B781B0658400023C5
:101C0000ECE710BDB71DC1040300303BDBB2092B6C
:101C100009D920231843C0B20300613BDBB2192B62
:101C200009D9012070470A781201D2B20A70134311
:101C30000B700020F6E70B781B01DBB20B705738F6
:101C4000C0B203430B700020ECE770B505000C0038
:101C500000230B700078FFF7D7FF002801D0012088
:101C600070BD68782100FFF7CFFF0028F8D0012071
:101C7000F6E7F0B5C3B00E000823FF336B44002233
:101C80001A7000E001300378002B01D03A2BF9D113
:101C9000002B39D0441C0027002509E00823FF331E
:101CA0006B441B786A4653550135DF19FFB2023485
:101CB0002378002B12D082235B009D420ED86378DC
:101CC000002B07D00821FF3169442000FFF7BDFF3A
:101CD0000028E3D00620404243B0F0BD002D16D0CE
:101CE000002F17D16B461A7832709B786946497875
:101CF00009020B4373806B46DB783371701D01A9B9
:101D000003F096FF0020E7E706204042E4E70620C4
:101D10004042E1E707204042DEE70000F8B5CE464A
:101D2000474680B50400102398468844144BCD18CC
:101D30002D0B2D03134E0660134B43608160103052
:101D400001225242FFF744FFE060EFF3108972B6C0
:101D50008027BF022900380007F022F84246210000
:101D6000380007F005F889F31088084BDE60084A50
:101D70001A61FA2292000021002001F023FDFEE703
:101D80000F100000FB5ECD8EA952AEC5008005404D
:101D900000000210044A00231360044A1370044A2E
:101DA0001360044A13707047301901203015012068
:101DB000EC0D0120401A012070B52B281CD00A28F8
:101DC00021D00D2821D0354B1B78002B1FD1344B4F
:101DD0001B688022D200934254D0314A591C1160B2
:101DE000304AD054002850D11378002B16D12C4BF8
:101DF00000221A60013010E0FFF7CCFF274B0122D0
:101E00001A70012009E00020DDE70020DBE7002850
:101E100002D1224B00221A70012070BD22492148B4
:101E2000FFF727FF0028F8DB1D4B00221A601D4B2F
:101E30001A701D4B1B79012B19D0042B1DD0002BC0
:101E400001D00120E9E7194D2C6820001030184B13
:101E5000C01815490E780531320003F0E9FEA419C7
:101E60002C6080235B029C4211D20120D5E70F4BEE
:101E70001B68002B0ED00020CFE70C4B00221A600D
:101E80000120CAE703204042C7E70120C5E705203B
:101E90004042C2E704204042BFE7C046401A01204A
:101EA000301901203015012034190120EC0D0120DA
:101EB000DC0D002010B5024B19680248FFF72EFF19
:101EC000EC0D0120DC0D002010B5052000F00CF910
:101ED000014B186010BDC0467C06002010B5FFF70E
:101EE000F3FF10BDF8B5DE4657464E464546E0B511
:101EF00006000F0015000A9A93424ED31A0E92461E
:101F00001B0298460A9A00234046514602F0CCFF35
:101F100081467400A419A4002E4B9C466444636857
:101F2000834200D26060331FDBB29B46012B3AD95B
:101F3000C0239B012343802212011A60264BB2006A
:101F4000D158002905D0586902F06CFF01300138E2
:101F5000FDD16D0123685D40E0222A4080235B01B2
:101F600023431A605A46012A28D980239B01234320
:101F7000802212011A604B4663604A4600234046A5
:101F8000514602F091FF144BB60098510120F0BC6D
:101F9000BB46B246A946A046F8BD104B104A1148B0
:101FA0002D2101F089FD012FC2D1C0239B012343C4
:101FB00003221A60A368DB07FCD5CAE721687940D1
:101FC00003220A401A60A3680125BD401D42FAD0D1
:101FD000CBE7C046008000406C0D0020A4910010AB
:101FE00010920010B891001030B583B00C2001F0B1
:101FF0009BFB00F0D7F800280DD0002304E02E4A08
:1020000099002E4888500133092BF8D92A4B2C4AC5
:102010005A6203B030BD2B4B00229A6701F0F6FBE9
:10202000294B01221A60274B5B6C012BFBD1274BFC
:1020300003221A60234B9B6B012BFBD102240094DB
:102040000533234A0121234801F0E2FA00940523D5
:10205000214A0121214801F0DBFA214B00930022A3
:1020600002210420FFF73EFF1E4D00952B000022A9
:1020700001210520FFF736FF104C009423000022B9
:1020800000210720FFF72EFF0094230000220021EB
:102090000820FFF727FF0A4B0093230000220021AE
:1020A0000920FFF71FFF00952B00002200210620CA
:1020B000FFF718FFADE7C0466C0D0020006CDC0296
:1020C0001BB70000008000403CB0004030B0004032
:1020D000002F68590080024000389C1C00C002405C
:1020E000001BB70040597307014B8000C058704770
:1020F0006C0D0020EFF3108072B6034B1B68002BB1
:10210000FBD0BFF35F8F70472C0100D0BFF35F8F10
:10211000024B00221A6080F3108870472C0100D017
:10212000F8B506000C001500FFF7E4FFE308F71808
:10213000F15C07222240012393400B4205D1DBB220
:102140000B433B70FFF7E2FFF8BD2100280001F0D0
:102150004BFDF0B583B00600019114001F00FFF79E
:10216000C9FF00E00134BC420CD8E308F518F35C69
:102170000721214001228A401A42F3D1D2B21A43E8
:102180002A7001E001246442FFF7C0FF002C02DB4B
:10219000200003B0F0BD019B002BF9D0089801F09E
:1021A00023FD0000034B1B6802201840431E98418A
:1021B000C0B2704700C00640002307E0054A9A18E5
:1021C0009200BFF35F8F0021116001331F2BF5D9FF
:1021D0007047C04640000034054A1078431CDBB20B
:1021E0001370172B02D9130010221A707047C046C3
:1021F0005004002010B582B00100054C054B00933F
:102200001F2318222000FFF7A4FF02B010BDC04614
:10221000680D00202092001010B58300084A9446F3
:1022200063441A6840246240803414408022520182
:1022300013431C60C000034B9C466044416010BDCA
:1022400004C001400040014080000B4B9C466044AC
:1022500000290DD00823002A0CD004221343026861
:1022600053400C221A4080235B0103431A607047DD
:102270000023F0E70022F1E704C0014010B501237C
:102280008340D0221206936293610521FFF7C4FFB9
:1022900010BD0000074B9B68103080001950BFF341
:1022A0005F8FBFF35F8F044B0021196082F31088AA
:1022B0007047C04600ED00E0240100D010B503884F
:1022C000DA0A1C2A05D15B055B1502335B00C018D6
:1022D00010BD034B034A0448992101F0EDFBC046B1
:1022E0003C920010A89300105492001010B5091AE7
:1022F00004394B08090B05D15B055B0D04481843F5
:1023000080B210BD034B044A04488B2101F0D4FB7A
:1023100000E0FFFFA49200109C9300105492001064
:1023200010B5091A04394A08090B08D14905490DA5
:10233000064B0B430380064B1343438010BD054BF4
:10234000054A0648932101F0B7FBC04600F0FFFFA5
:1023500000F8FFFFA4920010709300105492001038
:1023600001238340034A10681840431E9841C0B2BD
:102370007047C04600E100E0002904D0034B18601C
:10238000034B18607047034B1860FBE780E200E0E6
:1023900000E100E080E100E010B501238340180077
:1023A000FFF7EAFF10BD000001238340014A1360DC
:1023B0007047C04600E200E0024B9B68103080008E
:1023C000C058704700ED00E070B504000D00EFF359
:1023D000108672B60C4B1B68002BFBD0BFF35F8FCF
:1023E0002000FFF7E9FF094B984201D0A84205D130
:1023F000320029002000FFF74DFF70BD044B054A55
:1024000005486E2101F058FB240100D0CD110010C9
:10241000B4920010B893001054920010F0B5CE465C
:10242000474680B583B006000D00EFF3108872B602
:10243000524B1B68002BFBD0BFF35F8F504B9A6849
:1024400034001034A300D7584E4B9F4207D0AF4200
:1024500000D190E001974C4BFB1A2F2B09D9424633
:1024600039003000FFF716FF03B0C0BCB946B046D4
:10247000F0BD3000FFF774FF814600213000FFF708
:102480008BFFBFF35F8FFEF7EEFE002801D0844282
:102490001AD10123019C9C433B4A3C4B2100891AE1
:1024A00049414B431B0D5BB29C460021A368AB42E4
:1024B00012D00622A256002A0DDB53009B189B0067
:1024C000314A2100D418F1E7314B324A1E213248FB
:1024D000FF3101F0F1FA2100AB4245D106256557E5
:1024E000002D2CDB284B6A00521992009B189A6829
:1024F000A260DA79E2719B795BB2A371002B10DAEA
:10250000BD200002A080204B6A00521992009B1847
:10251000224A11789971157049463000FFF73CFF47
:102520009DE7680040198000174BC0180430FFF782
:10253000C5FE0100231D1800FFF7D8FEE2E70028C2
:102540000DD1002909D0FF238B71154B8B80134BC4
:102550001A78A27162461A70DEE70A4FF7E711494E
:10256000201DFFF7DDFED7E70F4B0A4AA9210A48D5
:10257000490001F0A1FA034F71E7C046240100D0E1
:1025800000ED00E0CD11001054040020AAAA0000C4
:10259000EC92001088930010549200103E1A012013
:1025A00000BDFFFF8E0400201093001070B50400E2
:1025B000012606432D4BF31A2F2B28D8FEF753FE86
:1025C00000282BD0EFF3108C72B6294B1B68002B20
:1025D000FBD0BFF35F8F254A264D2100891A494160
:1025E0004D432D0D6DB2244B9B6880001B58B342A8
:1025F0001BD00021032932D81C4B4A0052189200EC
:102600009B189B795BB2AB421FD00131F2E71B4BA9
:102610001B4A78211B48FF3101F04EFA1A4B184A29
:10262000BD211848490001F047FA134B9B68174A2F
:102630001A50174B1A78A2711D70BFF35F8F0C4BA5
:1026400000221A608CF3108870BD084B4A005018A5
:1026500080001818FF2686710E4A8280E9E70E4B2B
:10266000074A8C210748FF3101F026FA5404002064
:10267000240100D0AAAA000000ED00E01893001089
:10268000549300105492001040930010CD1100108C
:102690003E1A012000BDFFFF4C9300100022044BA6
:1026A00002E0044902C30132072AFAD97047C04642
:1026B00000E400E080808080024B9C4661448900F9
:1026C0000160704740000034084B5B6A994209D8AA
:1026D000064A926A824207D2994201D0012002E062
:1026E000002000E0002070470120FCE7004005408A
:1026F00010B500290AD003681B7B8B4206D3806883
:10270000054B9C4661440901401810BD034B044A27
:1027100004483B2101F0D0F9FFFFFF0FD4930010D4
:10272000BC960010F8930010F8B504001700FFF7EE
:10273000DFFF0668456839002000FFF7D9FF02680F
:1027400043680120AB4201D802D00020C0B2F8BDDE
:10275000B242FBD8F9E7000010B5002B02DB0260A3
:10276000436010BD024B034A03483F2101F0A4F926
:10277000D08D001088960010EC8D001070B582B0DE
:10278000060014001D00069A079B12196B419D421A
:1027900002D804D1944202D901225242D31768468A
:1027A000FFF7DAFF009A019B32607360300002B0DD
:1027B00070BD000010B5002908D0037B8B4205D303
:1027C00000684B005B18033BC01810BD024B034A66
:1027D0000348692101F070F94494001064960010D8
:1027E0006094001010B5437B8B4201D1012010BDD5
:1027F000FFF7E0FF8378002B01D10020F7E70120ED
:10280000F5E770B50400857B002D01D1280070BD6F
:102810002900FFF7CFFF4378A373002B00D1E373A8
:102820000023837043700370F0E70000F8B50600E2
:102830000C001500FFF7BEFF0700002C0DD0002D87
:1028400011D0AC4215D029003000FFF7B3FF8470DF
:102850003B78002B13D13D70F8BD0A4B0A4A0B4858
:10286000702101F029F90A4B074A0848712101F04B
:1028700023F9084B044A0548722101F01DF9437001
:102880003D70E9E7C094001040960010609400107D
:10289000CC940010D894001070B506000D00140000
:1028A000002914D0002A14D0436880689847002873
:1028B00006D0220029003000FFF7B8FF280007E00B
:1028C0002A0021003000FFF7B1FF200000E01000D7
:1028D00070BD0800FCE7000070B504000D1E0CD0B0
:1028E000FFF768FF0023837043700370617B2A0049
:1028F0002000FFF7D1FF607370BD034B034A04480B
:10290000A62101F0D9F8C046F094001054960010AA
:102910006094001070B505000C1E08D0FFF762FF30
:10292000002804D1E97B002907D1EC7370BD054B69
:10293000054A0648F72101F0BFF82800FFF73AFFE3
:102940004470F2E7F4940010309600106094001088
:1029500010B5002907D003681B7B8B4203D3C068E6
:102960000139401810BD034B034A0448402101F0CF
:10297000A3F8C046D49300101C960010F8930010E2
:1029800070B505000C00080000F02EFB200000F0E0
:1029900031FC0849200000F071FBFFF71DFC064BDD
:1029A0009C466044800068602C75044BA400E55090
:1029B00070BDC046A92A00104000003478120120E2
:1029C0000A4B1A68EFF3108172B61368002BFCD023
:1029D000BFF35F8F054B1B68BFF35F8F00221A6048
:1029E00081F3108840BF002000217047DC140120D3
:1029F00010B582B0040000F003FB02000B00684633
:102A0000FFF7AAFE009A019B22606360200002B0DB
:102A100010BD0000F0B583B0070001921D000AABA5
:102A20001C780BAB1E78002C0BD000682100FFF740
:102A3000D9FE002809D0194B194A1A48652101F01E
:102A40003BF80068FFF7DDFE0400002C02D12000F7
:102A500003B0F0BD21003800FFF74AFE019B036080
:102A60004560089B8360099BC36038682100FFF7BD
:102A700033FFA042EBD1387D019A2B0000F046FBDA
:102A8000051E01D0002E04D00C9B002BDFD01D7042
:102A9000DDE73868210000F0E5FCF5E71895001047
:102AA00070960010F8930010F0B5DE4657464E467B
:102AB0004546E0B58FB00B900021784B8200D4588A
:102AC000894682E029002000FFF712FE8046026856
:102AD0004368921BBB41002B09DD43461A685B68C3
:102AE0000B9800F013FB00239846002689E0002B8A
:102AF00001D1002AF1D10021584600F0A9FC0700BD
:102B0000A84215D143461A685B6808920993434668
:102B10009E68DB689846002E10D029002000FFF741
:102B200017FF037899461B021F432761002068E0C6
:102B30005B4B5C4A5C488C2100F0BEFF5B4B594A02
:102B40005948902100F0B8FF2369002B77D0BB4291
:102B500019D106980799002342428B4100920193B4
:102B6000089A099B0CA8FFF709FE0C9A0D9B0021FF
:102B70000491013103910295414601910096200094
:102B8000FFF748FF16E04A4B464A47489F2100F0AE
:102B900093FF069A079B002B01D1002A52D120688F
:102BA0002900FFF7B7FE29002000FFF7D1FE0378C8
:102BB00001330370002323616268BFF35F8F1360EA
:102BC0008AF310880120002861D00CA8FFF710FFBD
:102BD0000C9E0D9F00220023089209936268EFF378
:102BE000108A72B61368002BFCD0BFF35F8F236886
:102BF0009B465D7B002D00D064E7002398460026AD
:102C000000206368BFF35F8F00221A608AF3108888
:102C1000002ED8D04B461F022F4341463800B04704
:102C2000069007916268EFF3108A72B61368002B62
:102C3000FCD0BFF35F8F079B002B00DA84E7079B74
:102C4000002BA6DD2369002BA9D0BB4219D10CA80B
:102C5000FFF7CEFE0C9A0D9B069807990090019104
:102C60000CA8FFF78BFD0C9A0D9B002104910131FC
:102C7000039102954146019100962000FFF7CAFE9C
:102C800098E70B4B074A0848A22100F015FF0FB048
:102C9000F0BCBB46B246A946A046F0BD7812012062
:102CA00040950010A0960010F89300105895001061
:102CB0006495001010B50A4B5B68002B04D00948DE
:102CC0000A21FFF7F9FC10BD054C074A20682300D4
:102CD000102100F036FB03212000FFF751FEEEE744
:102CE0009C040020DC1401202927001010B5064B9D
:102CF0005B68002B01D0044810BD044B044A054812
:102D00005C2100F0D9FEC0469C040020A095001074
:102D100004960010F8930010F0B5DE4657464E4674
:102D20004546E0B58DB0060090461F00169B9A46BA
:102D3000179B994618AB1B780793272302AA944642
:102D4000634400221A7021E001003000FFF700FE0A
:102D500000783CE00698002B5CD0079B002B59D0F4
:102D60004946D04704000D0003000B4359D0002909
:102D700040DB08A8FFF73CFE089A099B00940195E8
:102D800008A8FFF7FBFC089B9846099F7268EFF3C1
:102D9000108B72B6136859424B41D9B20691002B81
:102DA000F8D1BFF35F8F273302AA9446634404939C
:102DB0000023039302934B460193534600934246EC
:102DC0003B003000FFF726FE0400051EBCD17368EF
:102DD000BFF35F8F002119608BF31088002D17D08F
:102DE000272302AA944663441B78002BB2D1000229
:102DF0002043B0E700236242AB4100920193424678
:102E00003B0008A8FFF7BAFC089B9846099FBDE75E
:102E1000012040420DB0F0BCBB46B246A946A046D8
:102E2000F0BD0698F6E7F0B5C64600B584B00500DB
:102E3000884616001F000AAB1C78FFF757FF029464
:102E4000019700962A004346FFF766FF04B080BC56
:102E5000B846F0BDF0B5C64600B504000D004268A6
:102E6000EFF3108772B61368002BFCD0BFF35F8FAF
:102E7000EEB22368984631001800FFF7B3FC002833
:102E80002AD02369AB4213D02D0AEDB231002000C5
:102E9000FFF75EFD0378AB4211D000206368BFF3FB
:102EA0005F8F00221A6087F3108880BCB846F0BD9F
:102EB0000C4B0D4A85210D48490000F0FDFD310005
:102EC000404600F0CFFA0028E8D1094B064A12210B
:102ED0000648FF3100F0F0FD2369AB42DED100234C
:102EE0002361DBE7C4950010EC950010F893001007
:102EF000E895001010B50400FFF7F8FE2100FFF779
:102F0000A9FF10BD30B583B005000C000A4A0023AC
:102F10000093FFF788FF002808DD20BFFFF7EAFFD6
:102F200028002100FFF7D0FB03B030BD28002100AE
:102F3000FFF7CAFBF8E7C046C129001010B5002B07
:102F400002DB0260436010BD024B034A03483F218D
:102F500000F0B2FDD08D001080970010EC8D0010B5
:102F600070B5EFF305833F2018401038EFF3108C55
:102F700072B6184B1B68002BFBD0BFF35F8F012389
:102F800019008140144A5163144A12781400C44055
:102F9000234213D0104B5C6A114B8500EB589C42C6
:102FA00005D3104BEB580D4C8A43227007E00A4AB8
:102FB000031D9B0099589950002300E00023BFF3A4
:102FC0005F8F044A002111608CF31088002B00D021
:102FD000984770BD280100D0004005403F1A0120ED
:102FE000E0140120580C002010B50100024A034BE8
:102FF0001800FFF795F810BDC89600103D1A012083
:10300000044B5B6A034A906A1900536A9942F9D1EA
:103010007047C04600400540084B5B6A01E0074B23
:103020005B6A8B42FBD301E0044B5B6A8B4203D1AA
:10303000024B9B6A8342F7D37047C046004005406D
:10304000F0B583B004000D00FFF7DAFF06000F00B3
:1030500022002B0092197B41994202D804D1904260
:1030600002D901225242D3176846FFF767FF009842
:103070000199FFF7D1FF03B0F0BD000070B5040067
:103080000E00EFF3108572B61B4B1B68002BFBD0B4
:10309000BFF35F8F002E1CD02000FFF78DF9174B78
:1030A00083420BD019002000FFF78EF90121200088
:1030B000FFF772F90123A340114A1360114BA400DA
:1030C000E650BFF35F8F0C4B00221A6085F3108827
:1030D00070BD0C4BA2000021D1500122A2400A4930
:1030E0000B7893430B7005492000FFF797F90021F7
:1030F0002000FFF751F9E4E7280100D0612F00100C
:1031000038600540580C00203F1A0120F0B5DE461B
:1031100000B584B00400150001921E000293FFF771
:103120006FFF03958E4202D84ED185424CD9EFF302
:10313000108B72B6274B1B68002BFBD0BFF35F8F41
:10314000254A17780125A540EBB23B431370234B6A
:103150005D63221D92000199D150214AA10002987D
:1031600088501B6A2B4212D11C4B1B6C2B4208D07F
:103170000020BFF35F8F174B00221A608BF310887B
:1031800023E0184B184A1948C12100F095FCFFF7BD
:1031900037FF8E4214D802D1039B834210D80E4BC6
:1031A0001B78BB420ED00D4B1D625D631F22224077
:1031B000012393400E4A1360074B1F700120D8E78C
:1031C0000020D6E70120D4E7012004B080BCBB4634
:1031D000F0BDC046280100D03F1A01200040054044
:1031E000E0140120EC960010649700101097001076
:1031F00080E200E0EFF3108C72B60B4B1B68002BE3
:10320000FBD0BFF35F8F01238340084A1362084954
:103210000A789A430A70BFF35F8F034B00221A604B
:103220008CF310887047C046280100D0004005404C
:103230003F1A012010B5002908D0037B8B4205D32B
:1032400000684B005B18033BC01810BD024B034ADB
:103250000348692100F030FC449400109898001055
:1032600060940010F8B506000C001500FFF7E2FFAF
:103270000700002C0DD0002D11D0AC4215D0290034
:103280003000FFF7D7FF84703B78002B13D13D70DF
:10329000F8BD0A4B0A4A0B48702100F00DFC0A4B9E
:1032A000074A0848712100F007FC084B044A05480A
:1032B000722100F001FC43703D70E9E7C0940010FA
:1032C0008498001060940010CC940010D8940010E2
:1032D00070B506000D001400002914D0002A14D087
:1032E000436880689847002806D0220029003000F3
:1032F000FFF7B8FF280007E02A0021003000FFF7A1
:10330000B1FF200000E0100070BD0800FCE770B5C0
:1033100005000023437301338373037BC3730124CC
:1033200006E021002800FFF785FF0134E4B2447075
:10333000297BA142F5D82800FFF77CFF00234370CA
:1033400070BD10B5017342608360FFF7E0FF10BDF0
:10335000F0B5C64600B505000C1E03D1200080BCA8
:10336000B846F0BDFFF766FF4678002EF6D0310074
:103370002800FFF75FFF477800239846437021003D
:103380002800FFF757FF4346437032002100280012
:10339000FFF79EFF040039002800FFF7D9FF020065
:1033A00021002800FFF794FF0400D7E7F0B5C646D8
:1033B00000B504000D001700002920D0FFF73AFFE8
:1033C0004378002B21D18378002B24D10178200071
:1033D000FFF7BEFF06008046002F03D0E17B0029E7
:1033E0001FD1E5734346002B20D129002000FFF7B1
:1033F00021FF00234370300080BCB846F0BD0F4B66
:103400000F4A1048382100F057FB0F4B0C4A0D486B
:103410003A2100F051FB0D4B094A0A483B2100F0CC
:103420004BFB2000FFF706FF4570DAE73100200074
:10343000FFF700FF00238370D7E7C046989700107E
:1034400070980010A0970010EC97001014980010CE
:1034500070B504000A00457B2900FFF7A7FF6073E1
:10346000280070BD70B506000C1E40D0437B8B4217
:1034700007D0FFF7DFFE05008178002906D1002084
:1034800036E00121FFF7E4FF012031E03000FFF7D3
:10349000D1FE0178A1420DD03000FFF7CBFE41787C
:1034A000A1420AD00029F7D1124B134A13486731C1
:1034B00000F002FB6B78037001E06B78437000232F
:1034C000AB706B70012221003000FFF76FFF02002C
:1034D000717B814205D03000FFF7FAFE7073012046
:1034E00006E0074B044A05486D2100F0E5FA00208C
:1034F00070BDC0464C93001058980010A097001063
:103500003898001010B5002B02DB0260436010BD3C
:10351000024B034A03483F2100F0CEFAD08D001041
:1035200068990010EC8D0010F0B585B0050016000C
:103530001F000192FA22920000230A98002102F053
:10354000B7FA02000B0092197B419F4202D804D1C6
:10355000964202D901225242D31702A8FFF7D2FFA6
:10356000029A039B2A606B60280005B0F0BD10B57D
:1035700082B00400FFF744FD02000B006846FFF72D
:10358000C1FF009A019B22606360200002B010BD61
:1035900030B585B004000D0002A8FFF7E8FF029ADD
:1035A000039B00952000FFF7BFFF200005B030BD52
:1035B00010B50400FEF710FE01002000FFF77CF8B4
:1035C000FF232371BFF35F8F10BD10B50400FEF71A
:1035D00003FE01002000FFF76FF8FF232371002393
:1035E0006371BFF35F8F10BD034B9C46614489003C
:1035F0000160BFF35F8F70474000003410B50400D6
:103600000120FEF7F7FD01002000FFF7EDFF10BDE0
:10361000F0B5CE4600B504000E0091461F000C2008
:1036200001F000FC050043011B1A9901C91AC900E9
:1036300009188901484601F0F5FB0200103A982369
:103640005B009A4233D87B1E062B36D8069B013B83
:10365000062B32D8069B9F4235D34B461B09AB4203
:1036600037D33F04069B1D032F432368002B36DB13
:10367000234B9C4241D080235B01224A1360224AA3
:103680001360224A926819009143FAD12660A06023
:10369000221DC0239B01134321221A602268002AA5
:1036A000FCDAE76008221A6080BCB946F0BD184B0E
:1036B000184A1948162100F0FFF9184B154A164808
:1036C000192100F0F9F9164B124A13481F2100F096
:1036D000F3F9144B0F4A1048222100F0EDF922684B
:1036E0003F231340B342C3D1A3681B051B0D834284
:1036F000BED1E368002FBBD1D6E780239B01BCE796
:1037000000C0024000E0004000F0004000C0004067
:10371000809900106C9A00109C990010EC99001090
:10372000389A0010509A001080239B000343014AEE
:10373000D362704700800540024B1A68024B5A6002
:103740007047C046701201200080054010B5174B2D
:103750008022D2051A60164B164A1A6000290AD038
:10376000154BE022D2041A60002809D1124B8022A6
:1037700012061A6010BD0D4BE022D2041A60F3E766
:1037800043011B1A9B00181800010C4B1860802382
:103790005B04984202D3094B094A1A60FFF7CCFF39
:1037A000054B8022D2051A60E4E7C04600B0054010
:1037B00008200140FCFF010000A00540701201201C
:1037C000FFFFFF0010B5030010000C4A8024E40541
:1037D0001460002B0DD001221343094A094CD46117
:1037E000094C5C401462516293620021FFF7AEFF06
:1037F00010BD034B0022DA61F7E7C04600B0054078
:1038000000800540D3C007B02D3FF84F064BAA22D9
:1038100012011A602F22DA60044B054A1A60024B2B
:103820005B68002BFBDA70470040024000600240FA
:1038300000B0FA00F0B5D6464F464646C0B5050082
:103840000C000520FEF750FC0600600880192100DE
:1038500001F0E8FA070043009946814405214846F3
:1038600001F0E0FA80463B1A9A46284B9C4224D845
:1038700070008019264901F0D5FA441C4346023BEA
:10388000A34221D32B680022DA6629680B68043230
:10389000534002321A4080235B010B431A602B68AD
:1038A0005246DA612B6842461A624B464F2B11D9B9
:1038B0005021484601F0B6FA0DE070008019154914
:1038C00001F0B0FA441CD9E7134B144A14485F21A5
:1038D00000F0F2F801202A68A023D0502B681A00CB
:1038E0007C32DB6F5C402404240C80235B01134397
:1038F0001C602B680122DA663900300001F092FA70
:10390000E0BCBA46B146A846F0BDC0463F420F00F3
:103910008096980040787D01789A0010E89A00100F
:10392000989A001010B5114B98421DD01022104BE0
:103930001A60104B1A60104B9B6814009C43231EA6
:10394000F9D104710268D46602686624FF341460F9
:103950000268D3630268936302688833633CFF3C68
:10396000D450FFF767FF10BD0822E0E7CC04002029
:1039700000E0004000F0004000C0004010B50368C7
:103980000024DC66002910D00468216880239B0095
:103990004B400B490B408021490121430B600368D8
:1039A0009A6003680122DA6610BD01680B68412243
:1039B0005340034A1340802252010A431360F0E748
:1039C0004102000010B5010018231B881422108842
:1039D000984710BD10B5010018231B8816221088C7
:1039E000984710BDF0B5C64600B507000E0000258B
:1039F0000123984600E00135B5420AD2AC003C19DB
:103A00002068FFF7DFFF20600028F4D100239846EC
:103A1000F1E7404680BCB846F0BD000070B5040038
:103A20000D000348FFF7CEFF030029002000984750
:103A30005542000010B5002310E0114A9900885843
:103A4000104A88500133022BF7D90F480021FFF7A5
:103A5000F7FA0C4B00221A6010BD0133022B08D874
:103A6000084A99008858064A8A589042F5D000239F
:103A7000E9E7044B00221A6000210020FFF7CEFF87
:103A8000909C001050050020400D0300054B98420B
:103A900004D08022D203044B1A60704780221204A3
:103AA000F9E7C0460080034000E0004000BEFDE7AB
:103AB00010B5FFF7FBFF000030B583B00D00190013
:103AC000002A0BD0074B084C019200932B000200F8
:103AD000200002F0DBF90120FFF7E8FF034B1A009A
:103AE000F1E7C046C09C0010D09C001010A600104A
:103AF00070B52B4B2B4A1A602B4B2C4A1A602C4B5F
:103B00009A682A4B9343FAD12A4C01E008CC984793
:103B1000294B9C42FAD3FEF767FA234B274A1A60D7
:103B2000234B9B68DB43DB01FAD1254B40229A678C
:103B30005A671A67DA66234C09E0234B234A244864
:103B40008321FFF7B9FF2000FFF732FD0834214B36
:103B50009C4209D22368002BF5D0012BEDD1200027
:103B6000FFF733FD0834F2E71B4DA9681B4CC02258
:103B7000200002F05DF8AC60FDF775FB002800D076
:103B800000BEFEF719FBFEF789FDFFF793F8144C12
:103B900001E008CC9847134B9C42FAD370BDC04655
:103BA00000E00040BFCDFBFE00F00040FE7F3C0087
:103BB00000C000403405002044050020FFFFFF0145
:103BC00000F001402C050020009D0010889D001091
:103BD000209D00103405002000ED00E000000020D2
:103BE00044050020500500200FB400B583B00848FC
:103BF00002F01AF9049B002B07D005A901911800C7
:103C000002F022F9034802F00FF90120FFF74EFFFE
:103C1000749D0010849D0010704710B5002802D0DC
:103C20000B684968984710BD0100002007E0830039
:103C30001B185B00501C08601078C01830380A68E8
:103C40001378303BDBB2092BF1D97047F0B5DE4673
:103C500057464E464546E0B583B093461F000C9B41
:103C60009A460D9C0E9B99460F9B9B0703D0B84626
:103C70000F00060022E00192A34688464E46B94650
:103C80000700B44207D2551C4B4641462020B84796
:103C900001342A00F5E73D004F465C46019B9B46F8
:103CA000B1464646B84637002E0007E0013C551C99
:103CB0005346185D43463900B0472A00002CF5D121
:103CC00035003E0047460F9B9B0707D4100003B00A
:103CD000F0BCBB46B246A946A046F0BDB0464E4633
:103CE000B9462F005D46531BB342EFD2541C4B46DE
:103CF00041462020B8472200F5E7F0B5CE464746BA
:103D000080B585B0944698460C9D0D9C0EAB1B78F3
:103D10009946109A119B129EB7071CD4002B0CD009
:103D2000F7070AD54F46002F02D10C37374204D08F
:103D3000013B02E030272F550134944201D21F2C61
:103D4000F8D9F70707D59C4205D21F2C03D8302796
:103D50002F550134F5E7F70612D5770505D4002C69
:103D600003D0944221D09C421FD00F9A102A32D007
:103D70000F9A022A37D01F2C0AD830222A55013434
:103D80001F2C05D84A46002A33D02D222A5501344B
:103D9000039602930194009543466246FFF756FF4F
:103DA00005B0C0BCB946B046F0BD621E012C10D0B3
:103DB0000F9F102F0BD014000F9A102AD8D1B206E3
:103DC000D6D51F2CD4D858222A550134D3E7023C2B
:103DD000CBE71400C9E7B206EED41F2CECD878224A
:103DE0002A550134C7E71F2CD2D860322A55013436
:103DF000C1E7720703D52B222A550134C8E73207E1
:103E0000C6D520222A550134C2E7F0B5DE46574612
:103E10004E464546E0B593B081468A4608920993DE
:103E20001CAB10CB1B789B461E9D219B9846002CFB
:103E300003D1102342469A4390468023DB00464636
:103E40001E4042461A4212D0002C22D000260EE01C
:103E50003033D9B2771C0AAB99552900200000F005
:103E6000E1FFAC4216D31F2F14D83E0004002900F6
:103E7000200000F0D7FFCBB2092BE9D942469206C9
:103E800005D54121C918C9B20A39C9B2E2E7612191
:103E9000F8E7270043460693209B05931F9B049356
:103EA00003955B46029301970AAB0093099B089A1E
:103EB00051464846FFF721FF13B0F0BCBB46B2465F
:103EC000A946A046F0BDF0B5DE4657464E464546EB
:103ED000E0B597B00A900B910C929A46209B9946B8
:103EE000219F22AA13789B46249B0993259C289BFB
:103EF00098464A463A4302D110329343984680226C
:103F0000D20045461540434613420AD04A463A433A
:103F100041D000252E0053460D934D46099B9A46ED
:103F20001BE02E0053460D934D46099B9A4614E024
:103F30003033DAB2731C99460EAB9A5552462300C1
:103F40002800390000F0B0FFBC4226D819D04B46FB
:103F50001F2B1CD84E4605000F0052462300280098
:103F6000390000F0A1FFD3B2092BE1D942469206F5
:103F700005D54122D218D2B20A3AD2B2DAE761228A
:103F8000F8E7AA45E3D94E460D9B9A4608E04E460F
:103F90000D9B9A4604E0002602E04E460D9B9A4691
:103FA00043460693279B0593269B0493099B039303
:103FB0005B46029301960EAB009353460C9A0B9905
:103FC0000A98FFF79AFE17B0F0BCBB46B246A94666
:103FD000A046F0BDF0B5DE4657464E464546E0B534
:103FE00091B0804689460C929A461A9C1B9D2200ED
:103FF0002B002000290001F0E6F9002800D0ECE0B9
:1040000001225242D44B2000290001F0D7F90028A8
:1040100000D0E2E001225242D04B2000290001F002
:10402000B7F9002800D0D8E00022002320002900A2
:1040300001F0AEF9002800D0E4E006940795802353
:10404000DB001E9A1A400D921E9A1A4201D10623D5
:104050001C930698079902000B000892099303002D
:104060000A00024300D1D9E0080D4005400DBC4EC6
:10407000B44660440A03120B1E00BA4B13431F00E0
:1040800001F0B4F9B84AB94B01F03FF9B84AB94B5D
:1040900001F014F9089009910022B74B3000390063
:1040A00001F003F9B54AB64B01F02FF902000B00FD
:1040B0000898099901F002F901F0B0F9834601F07E
:1040C00095F906000F00AF4AAF4B01F01EF9002230
:1040D000AE4B01F0F3F801F0A1F90890AC4AAD4BFA
:1040E0003000390001F011F906000F00089801F0C6
:1040F0007DF9A94AA94B01F008F902000B00300034
:10410000390001F0D2F806000F0002000B0001F0A8
:10411000FCF80A900B91089BA14A94466344002145
:104120000022089109921B0509930023089332008D
:104130003B003000390001F0C1F80E900F913200C1
:104140003B0000208021C90501F0AFF806000F00F8
:104150000022944B0A980B9901F0B9F80022924B77
:1041600001F0ACF802000B000A980B9901F0AFF8CF
:1041700000228E4B01F0A2F802000B000A980B9966
:1041800001F0A5F802000B003000390001F096F8AC
:1041900002000B000E980F9901F099F80022714B64
:1041A00001F08CF8089A099B01F0AFF806000F00A7
:1041B00008960997069A079B01F000F900282FD06E
:1041C00001235B429C46E3440022774B30003900D8
:1041D00001F07DF80890099122E01E9B04931D9B3D
:1041E00003931C9B02930094019553460C9A4946F5
:1041F000404600F0FFF811B0F0BCBB46B246A946FD
:10420000A046F0BD0021002206910792069480236B
:104210001B069C46AC446346079310E700239B466D
:104220005B466333C62B20D804261E9B1B0528D56E
:10423000089A099B190011430FD05D4A5D4B0698FF
:10424000079901F0B3F800287AD000225A4B06985B
:10425000079901F09DF8002872D01C9B5B4506DD94
:104260005A469B1A013B1C9303E00526DDE7002319
:104270001C938023DB001E9A1A431E920026002303
:104280009B461D9B9E4265D29F1B02231E9A1A408D
:104290000A921E9A134202D0002E00D000275B46DD
:1042A000002B07D0089A099B0698079901F00FF890
:1042B00006900791002200232000290001F068F8F1
:1042C000002800D07CE03D4B1E9A134004930397D6
:1042D0001C9B0293069B079C0093019453460C9AE7
:1042E0004946404600F086F8002E00D183E71E9B29
:1042F0009B0671D54525441C5346020049462800BB
:10430000C0475A46D317D2185A4005230593013E99
:104310000496002303930A3302935B46DB0F019359
:1043200000925346220049464046FFF76EFD0A9B25
:10433000002B00D15FE7020047460C9E1D9D53E015
:104340001C9B002B9DD00D9B002B9AD01C9B013BEE
:104350001C9396E7002798E7FFFFEF7FFFFFEFFF33
:1043600001FCFFFF0000F03FFB799F501344D33F57
:10437000B3C8608B288AC63F0000F83F61436F6373
:10438000A787D23F71A379094F930A400000E03F0D
:104390001655B5BBB16B0240EF39FAFE422EE63F2F
:1043A000FF03000000002C400000244000001840E3
:1043B0002D431CEBE2361A3F80842E41FFF7FFFFAE
:1043C000069C079D22002900802000068446614447
:1043D0000B000692079376E765258CE7541C53463D
:1043E00049462020B8472200931BAB42F6D3100069
:1043F00001E7C046F0B5DE4657464E464546E0B5B5
:1044000095B00690079193469946209F1E9A1F9B50
:104410001000190000F0D7FF002831D101225242CC
:10442000BF4B1E981F9900F0B3FF002837D101221F
:104430005242BC4B1E981F9900F0C0FF00283DD18E
:104440000022B94B1E981F9900F0B8FF002850D1E8
:104450000022B64B1E981F9900F09AFF002848D101
:10446000002200231E981F9900F092FF002850D1CF
:1044700000239846229B5B0500D4B6E0002458E058
:10448000229B0393219B029303230193A84B009348
:104490004B465A4607990698FFF7D8FB0EE1229B38
:1044A0000393219B029304230193A24B00934B4659
:1044B0005A4607990698FFF7C9FBFFE00423229AA2
:1044C0001A4022990B4210D09B4B002A0FD0042295
:1044D0002299039121990291019200934B465A46E9
:1044E00007990698FFF7B2FBE8E0944BEDE703224B
:1044F000EEE7229B0493219B039302971E9B1F9C34
:10450000009301944B465A4607990698FFF762FDBF
:10451000D4E01E9A1F9B0020002100F0C6FE1E90D2
:104520001F9101239846A5E70CAB30221A55013F95
:1045300001341F2C01D8092FF6D81E981F9900F0BE
:104540006DFF050000F052FF02000B001E981F993E
:1045500000F0ABFE7A4BFA009B181A685B680A926F
:104560000B9300F0D2FE0890099100F07BFF06004B
:1045700000F038FF02000B000898099900F095FE42
:104580000890099100226F4B00F018FF00282ED0F0
:104590000136300000F026FF02000B000A980B994C
:1045A00000F0FCFE002801D001350026002F2CD1A0
:1045B000280000F01BFF02000B001E981F9900F05E
:1045C00074FE06000F0000225E4B00F0E1FE0028A2
:1045D00046D100225B4B3000390000F0EFFE00288E
:1045E0003ED1EB073CD501353AE0062746E70022ED
:1045F000544B0898099900F0CBFE0028D6D1002E24
:1046000001D0F307D2D50136D0E7AA461F2C11D826
:10461000013F0A21300000F005FC651C30310CAB75
:1046200019550A21300000F0FDFB092E0ED90600B5
:104630002C00EBE755461F2C0CD87B1E002F09D011
:104640000CAA302111551F000134F4E72B00554608
:104650001C00F0E71F2C03D80CAB2E221A55013496
:104660001F2C10D80A21280000F0B4FB661C303142
:104670000CAB19550A21280000F0ACFB051E01D037
:104680003400EDE734000323229A1340012B1CD0A1
:104690001F2C06D84346002B32D00CAB2D221A55C6
:1046A0000134229B0393219B029301940CAB009352
:1046B0004B465A4607990698FFF7C8FA15B0F0BC62
:1046C000BB46B246A946A046F0BD219B002B13D0A5
:1046D0004346002B02D10C3313420FD0219B013BE8
:1046E0002193190003E00CAB30221A5501348C429F
:1046F000CED21F2CF7D9CBE72199F8E72199F6E71D
:10470000229B5B0704D50CAB2B221A550134C8E75A
:10471000229B1B07C5D50CAB20221A550134C0E7DC
:10472000FFFFEFFFFFFFEF7F65CDCD4165CDCDC131
:10473000A49D0010A89D0010989D0010A09D001041
:10474000509F00100000E03FF0B5DE4657464E4651
:104750004546E0B593B082468846934611930029BA
:1047600000D106E300255646119B1878002800D199
:1047700002E3252809D06C1C5B462A004146B0475D
:10478000119B013311932500EEE7013311930027AC
:1047900020E001231F4301321192012418E002237B
:1047A0001F4301321192012412E004231F430132FE
:1047B000119201240CE008231F43013211920124BD
:1047C00006E010231F4301321192012400E000246F
:1047D000002C09D0119A1378203BD9B21029F6D8B1
:1047E0008B00C449CB589F46119B1A781300303B6D
:1047F000DBB2092B10D92A2A13D00B94119B1A78FB
:104800002E2A1ED0119A1378683BD9B2122959D892
:104810008B00B949CB589F4611A8FFF705FA0B90BA
:10482000ECE71C9B1A1D1C921B68002B04DB0B93EE
:10483000119B01331193E1E7022217435B420B9373
:10484000F6E78022D20017435A1C11925A781300BF
:10485000303BDBB2092B0BD92A2AD3D11C9B1A1D62
:104860001C921C68002C08DB119B01331193C9E7D3
:1048700011A8FFF7D9F90400C4E70024F4E7802366
:104880005B003B43511C119151786C2901D01F00F2
:1048900018E0C0239B001F430232119212E08023D4
:1048A0003B43511C11915178682901D01F0009E048
:1048B000C0231F430232119204E080235B001F4398
:1048C00001321192119B1878672816D8252826D313
:1048D0000300253BDAB2422A21D89300874AD358F5
:1048E0009F4680239B001F4301321192EAE78023F9
:1048F0005B001F4301321192E4E778280FD8692842
:104900000DD30200693AD2B2012393407C4A13428C
:104910000FD11A0600D507E25B0500D594E16C1CA7
:104920005B462A004146B047119B01331193250095
:104930001AE778280AD062283AD06F283BD0582846
:104940003CD010239F43063B9C4601E010239C462D
:10495000582836D0692803D0642801D00C22974308
:104960007A0501D50122974369282DD064282BD0E0
:10497000BA0500D5A2E0FA0500D5C3E07A0600D456
:10498000D5E01C9A111D1C911168FF220A40059761
:104990000B9B0493039463460293002301930092BC
:1049A0005B462A0041463000FFF72FFA05002AE057
:1049B00002239C46CCE708239C46C9E710239C466B
:1049C000C6E720221743C5E7BA0520D4FA0550D41C
:1049D0007A0666D51C9A111D1C911168FF220A40A7
:1049E000D0171118414005970B9B0493039463461D
:1049F0000293D20F019200915B462A00414630009B
:104A0000FFF703FA0500119B01331193ACE61C9AE2
:104A1000073207218A43110008311C91116853683D
:104A20009946DB170C930D930C9A0D9B1000484090
:104A30000E904A4653400F930E980F990C9A0D9B77
:104A4000801A99410E900F9108970B9B079306943B
:104A500063460493002305934B46DA0F02920090BD
:104A600001915B462A0041463000FFF72CFA050011
:104A7000C9E71C9A111D1C911268D01711184140EA
:104A800005970B9B0493039463460293D20F019204
:104A900000915B462A0041463000FFF7B6F9050059
:104AA000B1E73A0605D51C9A111D1C910023D25E70
:104AB00096E71C9A111D1C91126891E71C9A073207
:104AC00007218A43110008311C9108970B9B07931B
:104AD0000694634604930023059302935368126877
:104AE000009201935B462A0041463000FFF7EBF944
:104AF000050088E7B09D0010F49D0010409E001056
:104B0000419000001C9A111D1C9105970B9B04936A
:104B100003946346029300230193136800935B465A
:104B20002A0041463000FFF770F905006BE73A06AE
:104B300006D51C9A111D1C9112681204120C26E74E
:104B40001C9A111D1C91126821E7462819D01C9B44
:104B50000733072293431A0008321C9204970B9ADA
:104B6000039202941A685B68009201935B462A00E4
:104B700041463000FFF73EFC0500119B01331193C5
:104B8000F2E520231F43E2E7672801D0472802D13E
:104B900080231B011F43452801D0472801D1202332
:104BA0001F431C9B0733072293431A0008321C92B1
:104BB00004970B9A039202941A685B68009201931F
:104BC0005B462A0041463000FFF704FA0500119BBE
:104BD00001331193C8E502231A003A4091463B4243
:104BE0001DD001241C9B1A1D1C926F1C18785B465B
:104BF0002A004146B0474B46002B14D1119B01338C
:104C000011933D00B0E5571C5B4641462020B0475C
:104C100023003A005C1C9D42F5D81500E2E7012311
:104C20002A000B9DF6E73A00B1460B9E06E0571CA2
:104C30005B4641462020C8472C003A00651CA6422E
:104C4000F5D817004E46D9E71C9B1A1D1C921B680D
:104C50009A46002C25D101225242534601E00133ED
:104C60000A001978002902D0511E002AF7D15246B5
:104C70009B1A8022D200390011408946174202D087
:104C8000A34200D9230002221100394010913A4278
:104C900009D02A00250057469A4633004E469946C9
:104CA00021E02200D9E72A004546A04606E0541C30
:104CB0005B4629002020B0473B0022005F1C0B9977
:104CC0009942F4D84446A8463B00250057469A46E8
:104CD00033004E46994606E01D000137541C5B46E2
:104CE0004146C84722003878002804D0002EF4D06E
:104CF0006B1E002DF0D1150053464E46109A002A27
:104D000003D1119B013311932EE50B9F2A0006E07E
:104D1000551C5B4641462020B04723002A005C1CFE
:104D20009F42F5D81500ECE721233B431C9A111D47
:104D30001C9112680593082304930394083302938B
:104D40000023019300925B462A0041463000FFF7A2
:104D50005CF80500119B0133119305E56C1C5B4663
:104D60002A0041462520B047119B013311932500AD
:104D7000FAE40B4B9A46F5E4B2465D450DD35B462B
:104D80005A1E5B4641460020D047280013B0F0BCB5
:104D9000BB46B246A946A046F0BD2A00F1E7C04690
:104DA000193C001000B585B0029003910121044820
:104DB000009313004A4202A9FFF7C6FC05B000BDEC
:104DC0001B3C001001480421014B1847E00400205F
:104DD000E5390010124A936F9B0815D29066D16690
:104DE000002905D0FFE7FFE7FFE7516F106F70471D
:104DF00004B580210906C2175140002800D0C843DD
:104E000003F0BEFF002104BDF0B5146E556E576F60
:104E1000166FFFF7E3FF1466556657671667F0BD18
:104E2000000000D0114A936F9B0813D210665166A0
:104E3000002905D0FFE7FFE7FFE7516F106F7047CC
:104E400004B5002801D00020C04303F099FF0021E1
:104E500004BDC046F0B5146E556E576F166FFFF760
:104E6000E5FF1466556657671667F0BD000000D071
:104E700094464E4A926F9208624601D230E0C04694
:104E8000F0B54A4EB56F6D08FCD3346E756E776F12
:104E9000366F00F025F89446444A14665566576705
:104EA00016676246F0BDC0469446404A926F92082B
:104EB000624601D258E0C046F0B53C4EB56F6D0871
:104EC000FCD3346E756E776F366F00F04DF89446F4
:104ED000364A14665566576716676246F0BDC04687
:104EE000002B24DB11D000293EDA00B5C943404233
:104EF00000D1013100F038F8C943404200D10131FE
:104F0000DB43524200D1013300BD002AEBD100281F
:104F100001D1002905D00020C90FC90701D1C04324
:104F2000410800B503F01CFF0022002300BD00B5BE
:104F300000290ADBDB43524200D1013300F014F8B0
:104F4000C943404200D1013100BDC943404200D1B4
:104F50000131DB43524200D1013300F005F8DB435D
:104F6000524200D1013300BD002923D1002B18D1BA
:104F7000002A0CD0BC460D4F38667A66002100230B
:104F8000FFE7FFE7FFE77A6F386F67467047002853
:104F900001D00748010000B503F0E2FE0022002323
:104FA00000BD02000B00002000217047000000D06F
:104FB000FFFFFFFF002B00D0BFE0130C28D1002A19
:104FC000E7D080B4114F39667A66FFE7FFE730B467
:104FD000040C7B6F396F1B0423433B667A66FFE743
:104FE000FFE7FFE7C04684B27B6F3D6F1B0423439E
:104FF0003B667A66FFE7FFE7C04600232C042D0CD2
:105000007A6F386F00196941B0BC7047000000D05A
:10501000F0B594460025140E01D112020835140F84
:1050200001D112010435940F01D192000235D40F41
:1050300001D152000135D40B0134254F7C66254C3B
:105040003C660E0C93B2FFE7FFE7FFE73C6F664359
:10505000360C7703BE467343DF0B5B04C01AB941BD
:10506000130C7343DB18C91ACE086643360CB644DA
:1050700093B273431F0F1B01C01AB941130C734342
:105080001F0B1B05C01AB941860D8F023E436643B4
:10509000360C092D24DB520A7243801A7703460A24
:1050A0006643360C16235B1BDE40DF40BF196446A7
:1050B0006643821B7046043506330100D940A84080
:1050C000C01900D30131A24206D20023F0BD000076
:1050D000000000D0FFFFFFFF121B0130F3D3F1E708
:1050E00009277F1BFE406446A2B27243801A00D299
:1050F0000139220C7243130C1204821A99410B00DD
:105100007046043513370100F940A840801900D3D8
:105110000131002B02D1A2420AD2F0BD013000D3EE
:105120000131121BFAD2013BF8D1A24200D2F0BDEC
:10513000013000D30131121BF7E7F0B51C0C00D091
:1051400080E00CB400251C0A04D11B02160E334368
:10515000120208351C0B04D11B01160F3343120138
:1051600004359C0B04D19B00960F3343920002350B
:10517000DC0B02D192185B4101351C009718644189
:105180000134464F7C66464C3C660E0CFFE7FFE759
:10519000FFE7C0463C6F6643360C7703BE4697B2C6
:1051A0007743C01B00D20139C01B00D201399FB226
:1051B0007743C91BC91B170C77437E04FF0B801B69
:1051C000B941CE086643360C0C2D33DBB644120BC6
:1051D0001F053A431B0B97B27743C01B00D201391E
:1051E0009FB27743C91B170C77433E043F0C801BCB
:1051F000B941860D8F023E43664329277F1BFE403F
:105200000C3D7746AF40BF1930BCA2B2ABB272437F
:105210007343801A9941220C7243130C1204801AB2
:10522000994102000B000137001BA941F9D2781EF9
:105230000021F0BD0C277F1BFE4077467F0BAF405F
:10524000FF19E0E700245D1C07D0144F7D66396626
:10525000FFE7FFE7FFE7FFE73C6F95B29EB26543CC
:105260006643401BB141150C1E0C65436643360472
:105270002F0C3E432D04401BB141994204D2020041
:105280000B0020000021F0BD01D19042F7D3801A1D
:10529000994101349942F2D3F6E70000000000D0B2
:1052A000FFFFFFFF48404140484018B41B4B5B687C
:1052B000FC46019308BD04DF8355001018B4174B5A
:1052C0001B68FC46019308BD00DF8D550010944615
:1052D000134A926F920809D2624618B40F4BDB68EA
:1052E000FC46019308BD0CDF455800100C4AF0B590
:1052F000146E556E576F166F6246FFF7EEFF084A41
:105300001466556657671667F0BD18B4034B9B6863
:10531000FC46019308BD08DFE95600108812012001
:10532000000000D0FFB550404240504059404B4033
:10533000594000E0FFB5154F4C00640D03D0BC424E
:1053400004D10C0314D80020090D09055C00640D7C
:1053500003D0BC4204D11C030AD800221B0D1B053C
:1053600001264B4009D44B4003D58B4200D18242E9
:10537000FFBD9942FCD19042FFBD0B43DB180343B4
:105380001343F5D0C9434918FFBD0000FF070000D3
:1053900000B5FFF7CFFF804100BDC04600B5FFF765
:1053A000C9FF01D9002000BD012000BD00B5FFF7F5
:1053B000B9FF01D9002000BD012000BD00B5FFF7F5
:1053C000B1FF804100BD012040054A00121804D8F9
:1053D0005A00121801D800207047012070470020A1
:1053E000704700000021002805D17047C1174840D0
:1053F000401AFAD0C90713B5064B1B6898470CBC76
:10540000441CA2401005120B0349091B090519434E
:10541000114310BDD81301201F04000010B54C002B
:10542000620D8023D218DB00D21A5B057E2A10DDC4
:105430009E3A13DACC170903490819435242D14066
:10544000640001341532202A05DAD0400843604355
:1054500010BD002010BD0846604310BDC80FC01825
:10546000013810BD18B4044B5B6AFC46019308BDBB
:1054700024DFF559001000008812012070B51323B5
:105480001C78012C12D0012C12DC214B214A936490
:105490002148FEF797FA214B186070BD1C491D4A40
:1054A0009800815001331F2BF8D9ECE70023FAE76D
:1054B0001B48FEF78FFA05001A48FEF78BFA0238F0
:1054C00003789B007F2B09DD12488022290000F021
:1054D000AFFB022C08D0022CDADCD6E7124B134AC1
:1054E00013483221FEF7E8FA124B1A88B5231B0243
:1054F0009A4209D1104B1A88104B9A4204D1104B92
:105500001A88104B9A42E6D00020FEF76DFBC04689
:1055100049550010881201204C330000D813012097
:105520005344000053460000A09F00105CA00010F0
:1055300000A0001054380000D83800004946000090
:105540009C3800005946000007B56046002800D18D
:1055500000BE01880A0A0230DF2AFAD1C9B28208E5
:1055600004D3028840880004104300E00068024A27
:105570005050039007BD0000881201200FB403BCF7
:105580000CBCF0B50124E407634000E0F0B50C0D5D
:10559000CF0F661E3605891B640503D3C9434042FD
:1055A00000D30131640D03D0661CF60A07D0E41B5A
:1055B00000207F00791C89078912803C24031D0D7F
:1055C000DF0F6E1E36059B1B6D0503D3DB43524276
:1055D00000D301336D0D03D06E1CF60A07D0ED1B0E
:1055E00000227F007B1C9B079B12803D2D032F1BFD
:1055F000661B58D4A446202E46DA20371400BC403F
:105600001D00BD40F24033412A4380185941CB0F61
:1056100005D0C943C0430022644250415141624613
:105620004D0D28D10D0D07D100281FD02419404160
:105630004941013A0D0DF9D0640006D3013000D381
:105640000131002C01D140084000013A0BD4941CD8
:10565000E40A04D112051144DB071944F0BDD9074F
:10566000204B194300E0D9070020F0BD0029DDD10F
:10567000002CDBD1F0BD0132C6074008CD0728431E
:105680004908002EE1D0D9E73C2E29DA203E4037E8
:105690001400BC4000D00124F24014431A00BB4067
:1056A0001C43D317ACE7AC46202F08DA20360400A1
:1056B000B4400D00B540F84039412843A5E73C2FE0
:1056C0000CDA203F40360400B44000D00124F840FA
:1056D00004430800B1400C43C117EAE71000190069
:1056E000002494E70000F07FF0B50C0D661E36052F
:1056F000891BE60A6405640D02D0651CED0A04D01E
:10570000002001210905803C2403A4461C0D671ECE
:105710003F05DB1BE70A6405640D02D0651CED0A3A
:1057200004D0002201231B05803C240377406444FD
:1057300097B484B296B27443070C7E43150C6F4342
:1057400080B26843361802D3012000043F183004A9
:10575000350C00197D41844688B29AB250430C0C36
:1057600062431F0C7C438EB27E43921902D3012602
:105770003604A4191604170C3618674101BC81B20F
:105780009AB25143040C62431B0C5C4380B25843F1
:10579000121802D30120000424181004130C40181E
:1057A00063412D185E410020474106BC88B293B288
:1057B00058430C0C6343120C544389B251435B1899
:1057C00002D301210904641819041A0C0918624152
:1057D0006D1856410020474118BCF902720D114363
:1057E000F0026A0D1043ED020A0D03D16D1940411C
:1057F0004941013B124E9B1B7600B3420ED26D0015
:1058000007D30130002671416646354301D1400877
:1058100040001B05C918E4072144F0BD0BDA013331
:1058200006D1013004D101314F0D01D04908F2E712
:10583000E1070020F0BD013631050020EBE7000054
:10584000FF030000F0B51C0D671E3F05DB1BE70AD8
:105850006405640D02D0661CF60A04D00022012300
:105860001B05803C2403D0252D060026F6432E661A
:105870001E096E66CE0FF619B44649004F0D02D0D0
:105880007E1CF60A03D000200021403F3F033E1B50
:10589000B600B444013F7F05C91B49082E6F01368D
:1058A00076089C02950D25437543ED137543AD13A2
:1058B00001356D10F603761B0CB4CC02450D2C435C
:1058C000A2B2B3B25A43270C7B43350C6F43A4B248
:1058D0006C431B1902D3012424043F191C041D0C22
:1058E000A4187D4124196D41009A91B2ACB2614374
:1058F000170C7C432B0C5F4392B25A43A41802D37B
:1059000001221204BF182204230C52187B41019C6F
:105910006C431B19520ED9010A434401A01A81B2EB
:10592000B2B2514303145A43360C734387B27743E0
:10593000D617D21900277E4136049B191704160C7E
:105940007F185E417316ED18F30100268033754110
:10595000A90F06D16400690AE8055B0A184309D259
:105960002FE00422944480337541A90AA8059B0ABC
:10597000184326D3404149412404009A019B0D005D
:105980005543641B4343E41A95B286B27543170C22
:105990007E43030C5F4392B25A43B61802D30122EE
:1059A0001204BF183204330C52197B4152429C41FD
:1059B000002C02D40022013051414008CA07104394
:1059C000490802B06246D7079210084BD218084B1C
:1059D0009A4203D212058918C919F0BD0020002A85
:1059E00001DC3900F0BD01331905F5E7FD030000C6
:1059F000FE070000002200B5203200F004F8080085
:105A000000BD000000220B150AD410B5944600F02A
:105A100031F81414013400DA0021CB17144C20475C
:105A20000020002170476244343A0CD40C2A07DA73
:105A300004009140904052422032D440214310BD96
:105A4000D843D94310BD203207D40C46944052426B
:105A500020321141D040204310BD0800C917203228
:105A600003D452422032104110BD1800190010BD5D
:105A7000275A00100A0DCC0F531E1B05C91A5205D8
:105A800003D3C943404200D30131520D03D0531C0C
:105A9000DB0A07D0121B00206400611C89078912F1
:105AA000803A1203014BD21A70470000FF03000036
:105AB00051434343C9188C46110C83B24B4310B475
:105AC000040C614392B280B2504362431C041B0C2D
:105AD000001910BC59411304120CC0185141614403
:105AE0007047000070B513231E782A48FDF772FF37
:105AF0000500012E11D0012E09DDAB1E1B789B0085
:105B00007F2B40DD24488022290000F091F82348B3
:105B1000FDF758FF224B186070BD1F485422290022
:105B200000F086F81F4B1A881F4B9A421CD1A723FE
:105B30009B011A881D4B9A4216D11D4B1A881D4B8A
:105B40009A4211D11C4B1A8894239B019A420BD183
:105B50001A4B1A881A4B9A4206D11A4B1A681A4BDA
:105B60009A4201D1152307E01848FEF73DF8184C7A
:105B7000094A99008C5001331F2BF8D9144B064A5F
:105B80001362D361B7E7134B134A14484221FDF760
:105B900093FFC04653460000DC1301204C33000045
:105BA000D8130120EE290000C40F0000C20D000030
:105BB000962B0000C0B50000182B0000CC2A000076
:105BC00010B50000FC2C000051ED876410A60010F9
:105BD000E15B001070A0001000A10010A4A0001054
:105BE00007B56046002800D100BE01880A0A0230CD
:105BF000DF2AFAD1C9B2820804D30288408800049F
:105C0000104300E00068024A5050039007BD0000B6
:105C1000DC13012001480421014B1847F004002047
:105C2000E5390010014B1B6818470000F004002004
:105C3000014B5B6818470000F004002010B503001A
:105C4000080011001B68984710BD0000F8B5070058
:105C50000D001600437C002B02D0002400200CE035
:105C600003681100280098472DE03B7C10E03B685A
:105C7000154802219847601C0134B44214DA002C04
:105C8000F3DD2B19013B1B780D3B5A425341DBB22C
:105C90002A5D0A2AF0D1002BEED1A042E7DA3B6858
:105CA000211A28189847E2E7B04203DA3B68311A14
:105CB00028189847002E06DDAD19013D2B780D3BC5
:105CC0005A4253413B74F8BD8CA1001070B50500D9
:105CD0000368002B16D00C4B1C6805E0290004C992
:105CE0002000FFF7B3FFE468002C09D02368002BE5
:105CF000F9D0064B1B68002BF0D0A342F3D1EDE79F
:105D000000232B6070BDC046D40D0020D80D0020AC
:105D100070B505000C000B68802B05D023685A1C59
:105D20002260E418257170BD0800FFF7CFFFF5E78A
:105D300010B582B0D0231B0600241C57074801A9C8
:105D400003F026F8002806D1019B9C4203D00348AB
:105D500003F036F8012002B010BDC0462C0500202B
:105D600010B5024802F0F4FF10BDC0462C0500201B
:105D7000F0B5CE46474680B583B006000D0090468C
:105D80001C00FFF7D5FF81466B1C05D0002C08D006
:105D9000194F1A4B1C6807E0300002F0A7FF0500FE
:105DA000F4E7174FF5E7E468002C17D02368002BC1
:105DB000F9D0144B1B68002B01D0A342F3D12A0069
:105DC00031002000B8474346002BECD06B46D91D6C
:105DD0000A230B7001222000B847E4E74B46002B52
:105DE00007D16B1E9D41E8B203B0C0BCB946B046B6
:105DF000F0BDFFF7B5FFF4E73D5C0010D40D0020C7
:105E00004D5C0010D80D002010B5064B1C6801E059
:105E10009847E468002C03D06368002BF8D1F8E7BA
:105E200010BDC046D40D002070B5050002F05EFF25
:105E300004000023012201002800FFF799FFFFF76B
:105E4000E3FF200070BD000070B5A2B004000E009A
:105E5000FFF76EFF05008422002101A8FFF7E2FE94
:105E600009483300220001A9FEF79CFF040001A8A5
:105E7000FFF72CFFFFF7C8FF002D02D1200022B052
:105E800070BDFFF76DFFF9E7115D00100FB400B5AD
:105E900083B004A901C90191FFF7D6FF03B008BC84
:105EA00004B0184702007F201040D209400080183B
:105EB0004001014BC0187047F00D012010B582B0B1
:105EC00001AB074A1A80002406E001AB185DFFF71A
:105ED000E9FF0123C3700134012CF6D902B010BDD3
:105EE0000080FFFF10B5838B3F333F22934302298D
:105EF00015D0124C2268C260D31823609C0610D1C2
:105F00000F4C6240634080246401A3420FD889068D
:105F1000114380231B060B434268136010BD5B00D6
:105F2000E7E7084B084A09485421FDF7C5FD084B2F
:105F3000054A06485621FDF7BFFDC04674120120F0
:105F40000000105090A10010BCA20010C0A10010D1
:105F500028A20010F8B505000E001400FFF7A2FFFC
:105F60007F232B40EF0985707A427A4142700022EC
:105F7000C27086838477012F0DD0DA0012498C46D7
:105F800062448260826800211160002B09D1436065
:105F90000E4BC360F8BDDA000D498C466244826046
:105FA000F0E7012F09D0013BDB000A4A9446634425
:105FB00043602100FFF796FFECE7013BDB00064A58
:105FC000944663444360F4E784001050000110508D
:105FD000800010500C0010500800105010B5002325
:105FE00008E00133DA000021084811508446624479
:105FF0005160DBB20E2BF4D90548F022920000214B
:10600000FFF710FE034B044A1A6010BD0000105049
:10601000300E01207412012080011050F0B5CE46E0
:10602000474680B583B01D4B9F6D0024012603E0D9
:10603000B74376000134E4B2002F29D01F2C27D8B3
:106040003E42F6D0164B9E65630899460123634095
:1060500001221A4090464B465D0045446D01114BAC
:10606000ED18280000F0A8FA0028E1D00D4A4B46B0
:106070005B0043445B01D3189A8A9978012300930B
:106080000023002000F0D2FD280000F005FACFE741
:1060900003B0C0BCB946B046F0BDC04600001150C8
:1060A00000301150F00D012070B52B4A9823D458C0
:1060B00080235B0225001D401C420AD1E30616D452
:1060C000E30419D4630429D4230433D4A5423ED174
:1060D00070BDFFF7F3FE01222049002000F08CFD87
:1060E0001F4B802292021A6580256D02E6E710237D
:1060F0001D43FFF793FFE3E780235B011D43164B2E
:1061000000221A60FFF76AFF01220021002000F040
:106110005EFD134B802212031A65D3E78023DB0157
:106120001D4301220421002000F03EFD0C4B1022F3
:106130001A65C9E780231B021D43012205210020A7
:1061400000F032FD064B802212011A65BEE72900DD
:1061500061400448FDF748FD000011500000105058
:10616000003011505CA2001070B50C001500FFF754
:1061700099FE2A00210000F0FBF970BD10B500283F
:1061800004D101210520FCF707F910BD034B044A97
:10619000B92104484900FDF78FFCC04670A20010E9
:1061A000ACA20010C0A1001010B5002805D100223B
:1061B00000218020FFF7D8FF10BD034B034ABF2109
:1061C00003484900FDF778FC70A200109CA2001063
:1061D000C0A10010024B80225202DA647047C04610
:1061E0000020115070B5041E25D100F02FF9154D77
:1061F0000C23AB6714490520FCF7E6F8134840224E
:106200000021FFF70FFD002240210020FFF7A2FE32
:10621000002240218020FFF79DFEFFF7DFFE0123D3
:106220002B6480239B05EB649023094AEA502000ED
:10623000FFF7D0FF70BD074B074A4E210748FF31DB
:10624000FDF73AFC00001150A9600010F00D01208C
:1062500010D0010070A20010D0A20010C0A1001048
:106260000B785B0602D14B78052B00D070478A78FB
:10627000014B1A60FAE7C0460000115010B50A0041
:1062800000280DD188780C794B7907211940090233
:106290002143D2789207920FFFF75CFE012010BDD8
:1062A000034B044AD62104484900FDF705FCC046CB
:1062B00070A200108CA20010C0A1001010B5FFF752
:1062C0008DFE10BD10B50400080011001A00002C4E
:1062D00003D1FFF749FF012010BD034B034ABC2146
:1062E0000348FF31FDF7E8FB70A200107CA200100C
:1062F000C0A1001010B508004B0605D1CB09012B39
:106300000AD00222054B9A66FFF7CCFD80221201CB
:10631000002100F0C7F810BD0122F3E70020115062
:1063200010B508004B0600D110BDFFF7BBFD0023E0
:10633000C3700022014900F0B5F8F5E7FFF7FFFF51
:10634000F8B504000F00438A828B1E1C934200D9CB
:10635000161CB6B29B1B63828022D2003243E378C4
:10636000002B13D08025AD01154301225340E3706B
:106370006378002B0CD0638A002B02D18023DB01D1
:106380001D43002F00D02D042800F8BD0025EBE7A9
:10639000E068BB01C018A1693200FFF749FCA3699E
:1063A0009B19A36180231B021D43E4E770B5040021
:1063B00083681B68002900D01B0C9D05AD0D627819
:1063C000002A11D11B0409D4A38A5B19A382A38BD1
:1063D000AB4201D900236382280070BD0D4B0E4AE9
:1063E0000E48D721FDF768FB1B040DD5A069E368B3
:1063F000890159182A00FFF71BFCA38A5B19A382A5
:10640000A3695B19A361E2E7054B034A0348DE2158
:10641000FDF752FBDCA2001008A40010FCA2001043
:1064200064A3001010B5040083681B680021FFF707
:10643000BDFF63681B685B0002D5A38B834200D05D
:1064400010BD01212000FFF7B1FFF9E710B580234F
:106450005B040C4A13600C4A13600C4B9A6880234F
:106460005B049343F9D10A4C9C2200212000FFF7E2
:10647000D9FB8022520100210648FFF7D3FB0923F4
:10648000636710BD00E0004000F0004000C0004025
:1064900000001150000010500023037443828382D7
:1064A0008361704710B5002902D083681B681940CA
:1064B000002A0FD0114352050CD5826813685B0582
:1064C0000BD40B4B0B401360FFE7FFE7FFE7FFE741
:1064D000FFE7FFE78368196010BD83787F211940CB
:1064E000DB09044A9B0004489A58FDF77DFBC0462F
:1064F000FFFBFFFF0005002084A3001070B504001F
:1065000043681E680021FFF71BFF80256D010543CE
:10651000144B1B6C9B0704D4A378DB0914D1013303
:1065200000E00023628A002A01D0002B0ED00E4B1F
:106530001E4080239B053343626813602A000021BC
:106540002000FFF7AFFF70BD0023EBE70121200023
:10655000FFF7F6FE0543054A3240A023DB0513434F
:10656000EAE7C04600001150FFFFFFAFFFFFFFDF6B
:1065700070B504000D001600037C002B09D1668263
:106580000023A38201332374A5612000FFF7B6FF27
:1065900070BD83787F211940DB09054A9B009A581A
:1065A0000448FFF773FC2000FFF776FFE7E7C046DB
:1065B00000050020A4A3001070B50400057C002D88
:1065C00006D0FFF72FFF638A002B08D1280070BD8B
:1065D00081787F231940044A0448FDF705FB200019
:1065E000FFF78CFF0025F1E700050020DCA3001079
:1065F00070B5050000240EE062001219D200194B9C
:106600001B689B1802E0230011E000235B68280050
:1066100098470134E4B2144B1B789A1CA2420EDB5B
:10662000124A002AEFD0A342E6D8E31ADBB2022BCB
:10663000EBD85A00D318DB000D4A9B18E6E70D4C47
:10664000532200212000FFF7EDFAE01C1022FF2169
:10665000FFF7E8FA200013302022FF21FFF7E2FACB
:1066600070BDC046800600203A1A012000000000DC
:1066700058A50010F009002010B50400C269EFF31E
:10668000108072B61368002BFCD0BFF35F8F2062BE
:10669000200002F087FAE269236ABFF35F8F0021CE
:1066A000116083F3108810BD10B5FFF7A1FF00F053
:1066B000CFFF10BD70B505000C001600C86800F0D3
:1066C000D1FFE368320000212800984770BD000028
:1066D000F0B5DE4657464E464546E0B583B08146A6
:1066E0000139C8B2FBF73CFA002803D0437898463A
:1066F000022B0CD05D495E485E4AFFF7C7FB0020C5
:1067000003B0F0BCBB46B246A946A046F0BDC67970
:1067100075110121584B0D402D011C781027BC43E9
:106720002C431C70B61131404901E4B22025AC4322
:1067300021431970070009378178C3781B020B4386
:1067400082469A44434601936FE0FB789B463B7830
:10675000FF1871E045494648484AFFF797FB00207B
:10676000CEE763001B19DB00454A12689046984447
:1067700003E023001AE00023984643469B6832005A
:10678000390028009847082801D9864217D20134D9
:10679000E4B23C4B1B7800949A1CA2423EDB3A4A7E
:1067A000002AE6D0A342DCD8E31ADBB2022BE2D8FF
:1067B0005A00D318DB00354A98469044DDE7A946D5
:1067C000454606005B46012B11D000205946814208
:1067D0001BD9BB781B18DBB2274AD218D278FF2A04
:1067E0000CD1254AD318DC700130C0B2EFE7A9689C
:1067F000274B9942E9D1019B9B46E6E71B491C4880
:10680000244AFFF743FB00207AE7234823003200A5
:10681000390001F00FFFB446674400E0A946194B68
:106820001B780233009A9A420FDC574515D27B78C9
:106830000B2B8AD001239B467B78042B8AD15346AD
:10684000DE1BB6B200244D46A3E7F32207490848F1
:106850009200FFF71BFB002052E7104B002B03D0E8
:10686000FBF73AF901204BE7012049E720A500108A
:1068700020A400107B030000F00900209603000014
:10688000800600203A1A01200000000058A50010E0
:1068900089790010BD030000030A0020D91A0010F6
:1068A00070B505000C00CB7888780F2B54D89A006F
:1068B0002F498A589746FBF741F90200122321001D
:1068C000280000F079FE48E02A4B002B46D000E07B
:1068D00000BF02008178C3781B020B43210028000F
:1068E00000F06AFE39E0022B10D0234B002B37D08A
:1068F00000E000BF0200002A0CD09178D3781B0280
:106900000B432100280000F057FE26E0FBF728F992
:106910000200F0E719491A481A4AFFF7B7FA0020AF
:106920001BE02379617909021943FBF71DF9021E67
:1069300018D003782100280000F03EFE0DE0124B35
:10694000002B11D000E000BF021E0FD00378210001
:10695000280000F031FE00E0002070BD0020FCE7C0
:106960000020FAE70020F8E70020F6E70020F4E72F
:1069700038A40010000000000000000008A500106E
:1069800020A40010140400000000000070B50400F2
:10699000C269EFF3108072B61368002BFCD0BFF30E
:1069A0005F8F2062200002F023F90500E169226A6E
:1069B000BFF35F8F0020086082F31088002D01D0A4
:1069C000280070BD02490348A822FFF75FFAF7E7E5
:1069D000F8A4001020A40010024B5878431E9841E0
:1069E000C0B27047F0090020024B18784007C00F72
:1069F0007047C046F0090020014B18787047C04628
:106A00003B1A012070B50500284B1878002800D0EB
:106A100070BD274853220021FFF704F9254C2000C0
:106A2000FCF7C6FD244B1C60244C2000FCF7E6FD5F
:106A30001C3C200002F016F9214B1C60214B002B5E
:106A400004D0214800E000BF204B186000240DE076
:106A500062001219D2001D4B1B689B1802E0230034
:106A600010E000231B6898470134E4B2164B1B78F2
:106A70009A1CA2420EDB134A002AF0D0A342E7D8A8
:106A8000E31ADBB2022BECD85A00D318DB00104A11
:106A90009B18E7E72800FFF7A5FB2800FFF76EFB30
:106AA000024B01221A700120B2E7C0463B1A0120B6
:106AB000F0090020A8090020440A00202405002035
:106AC000480A0020000000003A1A01208006002039
:106AD00058A5001030B585B004000D004378042B94
