+Beepy firmware 3.8
:020000041000EA
:1010000000B50C4B00219960042159610A4919600F
:101010000A490B480160002159600121996001BC17
:10102000002800D0004707480749086003C880F33C
:10103000088808470000001800031F00180200037A
:10104000F40000180001001008ED00E000000000AE
:101050000000000000000000000000000000000090
:101060000000000000000000000000000000000080
:101070000000000000000000000000000000000070
:101080000000000000000000000000000000000060
:101090000000000000000000000000000000000050
:1010A0000000000000000000000000000000000040
:1010B0000000000000000000000000000000000030
:1010C0000000000000000000000000000000000020
:1010D0000000000000000000000000000000000010
:1010E0000000000000000000000000000000000000
:1010F0000000000000000000000000002CEC210DAA
:1011000000200420F7110010C3110010C5110010B9
:10111000C1110010C1110010C1110010C111001047
:10112000C1110010C1110010C1110010C711001031
:10113000C1110010C1110010C9110010CB11001015
:10114000CD110010CD110010CD110010CD110010E7
:10115000CD110010CD110010CD110010CD110010D7
:10116000CD110010CD110010CD110010CD110010C7
:10117000CD110010CD110010CD110010CD110010B7
:10118000CD110010CD110010CD110010CD110010A7
:10119000CD110010CD110010CD110010CD11001097
:1011A000CD110010CD110010CD110010CD11001087
:1011B000CD110010CD110010CD110010CD11001077
:1011C00000BE00BE00BE00BE00BE00BE00F04BF878
:1011D000103800BEF2EB8871ACBF0010D4BF001015
:1011E0003412001090A31AE700202149086006C8B5
:1011F00081F3088810471F48006800282FD10DA4EC
:101200000ECC002902D000F012F8F9E71A491B4A67
:10121000002000E001C19142FCD1194988471949D9
:1012200088471949884700BEFDE701C901C29A42B3
:10123000FBD37047D4BF0010C00000207C05002005
:101240009CC4001000000420000004209CC4001076
:1012500000100420001004200000000070470B481C
:1012600004F056F90047EFF30580C0B27047000064
:1012700008ED00E0000000D088050020041A0120DD
:101280003558001025200010F55700105756000063
:1012900006005250ABB360534CBB001006005250D6
:1012A000861C03025CBB0010060052505422A29D13
:1012B00068BB001005005250DE65F4689CC4001045
:1012C000F8B5C0460448054B10B5834203D0044B23
:1012D000002B00D0984710BD7C0500207C05002025
:1012E0000000000006480749091A8B10C90FC918E9
:1012F00010B5491003D0044B002B00D0984710BD07
:101300007C0500207C0500200000000010B5074C83
:101310002378002B09D1FFF7D5FF054B002B02D016
:10132000044800E000BF0123237010BD9006002098
:101330000000000038A40010054B10B5002B03D0AE
:101340000449054800E000BFFFF7CCFF10BDC046D0
:10135000000000009406002038A40010F0B50B4EE9
:10136000840023189B0000259D5123189B00B44640
:1013700063449D60DD608D681D614D685D600B6834
:1013800013432418A400A351F0BDC046000005403B
:10139000002303604360836010334360014B83602C
:1013A0007047C046FFFF000083001B189B000B48DE
:1013B0008446634400290CD01020824000290AD0C2
:1013C0000749186842400A40802149010B431A60CE
:1013D00070470800F1E70349F3E7C0460C000540F9
:1013E0000000FFFFFFFF000010B5052000F0EEFE3B
:1013F000C20192B201210420FFF7D6FF10BD00B553
:1014000085B00421192002F04DF901A8FFF7C0FFB3
:10141000012201A90420FFF7A1FFFFF7E5FF05B0B6
:1014200000BD000010B50A00024B0100180006F0D4
:10143000EBFB10BD38A4001070B502000B00034D8B
:10144000034C2900200006F0DFFB70BDA4A40010AF
:1014500054A4001000B583B00300044800911A00A2
:10146000190006F0D1FB03B000BDC0466CA400100B
:10147000F0B5C64600B582B080460D0001F0BEF959
:1014800001A908F0B9FF002809D1D0231B061B6869
:10149000019A9A4211D001F0B1F908F0C5FF00207D
:1014A00007F04CFD002848D1254B00200021186092
:1014B000596001F0A3F908F07FFF02B080BCB84684
:1014C000F0BD07F0F1FA002007F054FD002007F00E
:1014D00035FD0028EDD0002007F0CEFD00281DD0FE
:1014E000AC42E6DA2E1B002007F0C6FD0200864261
:1014F00000DC3200002AE4D043461919002007F02E
:101500009FFD060007F0D0FA002007F033FDA41974
:1015100003F0D8F80A4B18605960E1E703F0D2F8FD
:10152000074B1E685F68074A002392197B41994266
:10153000BFD8D5D19042D3D9BBE70024D0E7C0466D
:101540008806002020A1070010B506F069FB0948B5
:10155000012106F0FBFA08480822032106F054FB9B
:10156000064800F0ADFC064801F0ACF8054800F074
:1015700069F910BD280400208CA400104C04002040
:10158000440400203C040020014B3E22985C70473C
:10159000D8120120044B002240215A5401395A54D8
:1015A00001395A547047C046D812012070B582B034
:1015B00001AB18800D4B3E229D5C1E2D13D81C00E4
:1015C00040269B5D581CC0B2A0555B0001AA128842
:1015D0001A531F2105F0C8FAA15501353E23E554E1
:1015E000012002B070BD0020FBE7C046D8120120E8
:1015F00030B583B001AB18800198FFF7D7FF002802
:1016000016D10C4C4025635D581CC0B260555B0080
:1016100001AA12881A531F2105F0A6FA6155013D4F
:10162000605D0130C0B260551F2105F09DFA615523
:1016300003B030BDD812012070B582B000236A46D5
:101640001380124B3E229D5C002D1BD00F4C3F2679
:10165000A35D581CC0B2A0555B001B5B6A4613809B
:101660001F2105F081FAA155013D3E23E5546B464B
:101670001A8801AB1A8001AA53781B02107818430C
:1016800002B070BD01AB00221A80F4E7D81201202D
:1016900070B582B004000D0016002649264800925D
:1016A0002B00220006F0B0FA200002F0CFF8012E45
:1016B00011D000220C21200002F04CF801210A0078
:1016C000A240D0231B065A62A940C9B20B2000F0E9
:1016D0009BFD02B070BD0123AB40DDB229000C20A0
:1016E00000F080FD002811D029000D2000F07AFDC7
:1016F000002805D0A300114A944663445B680AE0C1
:10170000A3000E4A944663445B6804E00022002173
:10171000200001F0DFFF0123A340D02212069362D4
:1017200001220C21200002F015F829000B2000F006
:1017300063FDCEE74CA50010B0A4001000C001402E
:1017400010B5152800D010BD054B1C6804E02368B7
:101750000021152098476468002CF8D1F3E7C046B3
:101760001C13012010B5040009490A48220006F0A4
:101770004BFA0B2000F02AFD6040C00700D410BDDA
:101780000122224000211520FFF782FFF7E7C04623
:1017900054A50010D8A40010F8B504000E00134999
:1017A00013483300220006F02FFA0C2000F00EFD43
:1017B00007000D2000F00AFD050021000C2000F0BC
:1017C0000BFD31000D2000F007FD7C40E40702D442
:1017D0006E40F60708D501210B2000F003FD020042
:1017E00000211520FFF754FFF8BDC04634A50010B6
:1017F000ECA4001010B504000C490D48220006F0BE
:1018000003FA01210B2000F0EDFC002806D1E407CB
:1018100005D5D0231B06802292035A6110BDD02328
:101820001B06802292039A61F8E7C04620A50010AB
:101830000CA50010D0231B065B685B0D012018402F
:1018400070470000064B1B68002B05D01A005B6830
:10185000002BFBD150607047014B1860FBE7C0467E
:101860001C13012010B5FF20FFF77CFF10BD000006
:1018700070B51C4B19680A68D36A002B1AD0580639
:1018800000D5506D0424200018401C4217D0154B81
:101890001B79002B0FD11369124A13711B0609D44F
:1018A000114B9A1E1C00083C6179207900F004FD60
:1018B0000023237170BD12690A4B5A71F0E79B0631
:1018C000F8D5084C257A063407E00B685A6F102AC1
:1018D000FBD022781A61013001348542F5D80B68BB
:1018E0001B6DE7E7201301202813012010B5054BDD
:1018F0001C68122000F06AFC02000121200003F0A5
:10190000EDFC10BD2013012010B5164C16482060C8
:10191000164903F0B7FCFFF7E9FF03211C2001F093
:10192000C1FE002201211C2001F0D4FE03211D2054
:1019300001F0B8FE002201211D2001F0CBFE246839
:10194000236864221A630A4BE41A63425C41173429
:101950000849200002F018F80121200002F004F8E4
:1019600010BDC0462013012028050020A0860100DC
:10197000200500207118001070B501248C40E4B2DD
:1019800021000F2000F02EFC002800D170BD202186
:10199000032000F031FC2100102000F02DFCD024A9
:1019A00024060125A561132000F010FC02F0DAFEE8
:1019B0006561EBE770B50121142000F013FC0028ED
:1019C00000D170BD4021032000F016FCD024240675
:1019D0000125A561132000F0F9FB02F0C3FE65614B
:1019E000EFE770B51021022000F0FCFB002800D1C9
:1019F00070BD0821032000F0FFFBD0242406012540
:101A0000A561132000F0E2FB02F0ACFE6561EFE798
:101A100070B5002001F01AFFD0242406012565626C
:101A200000220121002001F055FE6561044800F00C
:101A300047FA044800F046FE0348FFF703FF70BD75
:101A4000640400205C0400205404002010B5002928
:101A500005D0FA229200002305F0C8F803E0FA212D
:101A6000890005F081F810BD10B5002B02DB026083
:101A7000436010BD024B034A03483F2103F0BEFE02
:101A800068A50010F0A5001084A5001010B582B064
:101A9000040002F017FE02000B006846FFF7E4FFA7
:101AA000009A019B22606360200002B010BD00001C
:101AB00070B582B004000D00C378042B55D89B008C
:101AC0002B4AD3589F46002901D108004BE001233F
:101AD000C3706846FFF7DAFF00980199FFF7B6FF79
:101AE000606028003FE06846FFF7D0FF009801994A
:101AF000FFF7ACFF6668861B112000F067FB8300D0
:101B00001B185B00B34203D3002D05D000202AE050
:101B10000223E370012026E00323E370012022E08A
:101B2000002903D10323C37001201CE06846FFF79E
:101B3000ADFF00980199FFF789FF6368C01A0D4B4C
:101B4000984201D800200EE00423E37028000AE048
:101B5000002901D0002006E00323C370012002E029
:101B60000023C370012002B070BD0020FBE7C04617
:101B7000DCA5001088130000F0B585B00500160044
:101B80001F000192FA22920000230A98002105F01A
:101B900031FE02000B0092197B419F4202D804D112
:101BA000964202D901225242D31702A8FFF75CFFE6
:101BB000029A039B2A606B60280005B0F0BDF0B567
:101BC000C64600B586B080460C0015001E000CAB62
:101BD0001F7804A8FFF75AFF049A059B009404A8F5
:101BE000FFF7CAFF049A059B0297019600954046AD
:101BF00002F084FB06B080BCB846F0BDF0B583B0FF
:101C000004000D0016001F0002F062FB0097330075
:101C10002A002100FFF7D3FF03B0F0BD70B582B0FA
:101C200005000E0001AA1070090150780F2303402F
:101C30000B4353700198FFF7B9FC002802D0104BFA
:101C40001C6819E00221023000F0CCFA002809D10A
:101C50000121022000F0C6FA0028F0D00198FFF719
:101C6000C7FCECE70121032000F0C6FAF0E7236887
:101C70003100280098476468002CF8D102B070BD8C
:101C80002C13012070B504000D0016000D4B400010
:101C9000001940001B185B5C93420FD00A4B1B18C5
:101CA000585C002804D0002E09D00121FFF7B6FFB0
:101CB000044B6200121952009B185E5570BD03213F
:101CC000F4E7C0467C11012008A6001010B50400FE
:101CD00041788078084B4A00521852009B18195CD2
:101CE0002000FFF7E5FE002800D110BDE178207844
:101CF000FFF794FFF9E7C0467C11012010B50121E0
:101D00006620FFF78BFF03216620FFF787FF10BDDA
:101D100010B50100314B1800FFF7CAFE002809D0AA
:101D20002E4BDB78012B06D0032B0FD0022B1FD0BC
:101D3000042B30D010BD2D2000F048FA0028F9D037
:101D4000264BD9787820FFF769FFF3E701F01CF9FB
:101D5000002802D001F0D8F8ECE72D2000F036FA88
:101D60000028E7D01D4BD9787820FFF757FFE1E72F
:101D70002D2000F02BFA002807D101F0FFF800F029
:101D8000EDFF022000F078FFD4E7144BD9787820DB
:101D9000FFF744FFCEE72D2000F018FA002810D1FD
:101DA000252000F013FA43011B1A9B001B18DB00CF
:101DB0000B4A934208DC0A490122002000F094FFFC
:101DC000B8E7FFF79BFFEBE7252000F0FFF94101A3
:101DD000091A89000918C900EEE7C046C811012098
:101DE00088130000F8B500251BE02D4B1A5DD023A9
:101DF0001B065B68D34001221A4053425A41D2B2BB
:101E000029002000FFF73EFF0134062CEDD9D02435
:101E10002406666100220021380001F05BFCA66206
:101E20000135052D0ED81F4B5F5D002201213800C2
:101E300001F050FC0126BE40D0231B069E615E626D
:101E40000024E2E71848FFF741FF1848FFF73EFF7C
:101E50001748FFF73BFF1748FFF738FF1648FFF713
:101E600035FF1648FFF732FF0024002C0BD0072067
:101E700000F0ACF983051B1A9B011B185B001818B6
:101E8000C000C117F8BDD0231B065B681B090120E9
:101E9000184043425841C0B2FFF73AFF0134E4E72B
:101EA0003CA6001034A60010E80C0020E00B002037
:101EB000A8110120D0110120D80B0020941401207A
:101EC000084B1B68002B06D01A005B68002B05D05E
:101ED0008242F9D104E0034B186001E05060436096
:101EE0007047C0462C130120074B1B68002B0AD0FB
:101EF000054A1368002B06D01968814201D01A1DCB
:101F0000F7E75B68136070472C13012070B500245D
:101F10000FE0354B1D5D280001F098FC00220121E7
:101F2000280001F0D7FB0123AB40D02212069362B8
:101F30000134062CEDD900240AE02C4B1D5D28004D
:101F400001F084FC0123AB40D022120693620134DD
:101F5000052CF2D90024002C37D0254A74231370A5
:101F60000220507000239370D370224A76211170A2
:101F7000723951709370D3701F4A66241470D370F5
:101F80001E4A7B3414705070DE3C9470D3701C4A2F
:101F9000E2341470DF3C54709070D370194AE03012
:101FA0001070DD38507004389070D370164AE034E9
:101FB000147051709070D370063000F007F9134917
:101FC00001230022FFF71AFE70BD042001F03EFC41
:101FD00000220121042001F07DFBD0231B061022EA
:101FE0009A620134B7E7C0463CA6001034A6001040
:101FF000E80C0020E00B0020C8110120A8110120EE
:10200000D0110120D80B002094140120E51D0010F0
:1020100070B504000D0000F021FB29002000FFF73F
:102020008FFB70BD10B5FFF78FFA03F0E3F900F0F6
:10203000F5F8FFF7E4F9FFF715FCFFF767FF00F08D
:102040005FFBFFF7E5FCFFF75FFC00F0B1FE084B1C
:1020500001220021FF2001F08DFB00F0DDFD0120B9
:1020600000F0FEFE034805F09DFD20BFFDE7C046E1
:102070001120001044A60010BFF34F8F034B044AF9
:10208000DA60BFF34F8FC046FDE7C04600ED00E0C9
:102090000400FA050F4A1523D35618181623D356F1
:1020A00059180300803311DB031C7F2800DD7F23D8
:1020B000DBB2084A53750B00803309DB0B1C7F2908
:1020C00000DD7F23DBB2034A937570478023F0E77E
:1020D0008023F8E73013012010B501F055F910BD49
:1020E00010B5002B02DB0260436010BD024B034AB7
:1020F00003483F2103F082FB68A5001068A7001089
:1021000084A5001010B582B0040002F0DBFA0200D2
:102110000B006846FFF7E4FF009A019B22606360B2
:10212000200002B010BDF0B585B0050016001F00FC
:102130000192FA22920000230A98002105F05AFB2E
:1021400002000B0092197B419F4202D804D19642B3
:1021500002D901225242D31702A8FFF7C1FF029A07
:10216000039B2A606B60280005B0F0BDF0B5C64641
:1021700000B586B080460C0015001E000CAB1F7821
:1021800004A8FFF7BFFF049A059B009404A8FFF77B
:10219000CAFF049A059B029701960095404602F0FB
:1021A000ADF806B080BCB846F0BDF0B583B0040011
:1021B0000D0016001F0002F08BF8009733002A0074
:1021C0002100FFF7D3FF03B0F0BD0000014B185C06
:1021D0007047C04630130120014B19547047C04668
:1021E00030130120034B1B5C19404B1E9941C8B2B0
:1021F0007047C04630130120024A135C0B4313544E
:102200007047C04630130120034B1A5CC94349B2E2
:10221000114019547047C0463013012010B5922167
:102220000220FFF7D9FF16210520FFF7D5FF0A216D
:102230000620FFF7D1FF0A210720FFF7CDFFFF217E
:102240000A20FFF7C9FFFF210D20FFF7C5FF64211A
:102250001120FFF7C1FF1F211220FFF7BDFF012151
:102260001320FFF7B9FF00211420FFF7B5FF00216D
:102270002D20FFF7B1FF1E212520FFF7ADFF102114
:102280004220FFF7A9FF024800F01CFA10BDC0462B
:102290006C04002010B52520FFF798FF43011B1A9E
:1022A0009B001818C000034B984200DD10BD1800B9
:1022B000FCE7C04688130000F0B5C64600B586B0FE
:1022C000039117001D0046B27F24044000232B70A9
:1022D000432C66D8A300C34AD3589F46002E06DB82
:1022E0002000FFF773FF387001232B7059E003992A
:1022F0002000FFF771FF0A2C03D0122C04D0052C0C
:102300004FD1FFF771F84CE0FFF7F0FA49E0002EEB
:1023100006DB2000FFF75AFF387001232B7040E0E6
:102320000C2C07D00D2C0DD00B2C3AD10398FFF7B5
:1023300019FA36E00D20FFF749FF01000398FFF777
:102340002BFA2EE00C20FFF741FF0399FFF724FA48
:1023500027E0002E25DA03992000FFF73DFF20E05B
:10236000002E08DB4020FFF731FF00F049F93870FC
:1023700001232B7015E04020FFF728FF039900F0A0
:102380005BF90EE0002E10DB2000FFF71FFF387016
:1023900001232B70002E10DBFFF74CFA387001235D
:1023A0002B7006B080BCB846F0BD039800F09AF9D7
:1023B00003992000FFF710FFECE70398FFF71AFAE4
:1023C000EFE7002E06DB2000FFF700FF3870012347
:1023D0002B70E6E703992000FFF7FEFEE1E7002EF1
:1023E00006DB2000FFF7F2FE387001232B70D8E7E0
:1023F000039D29002000FFF7EFFE05AC257021208A
:10240000FFF7E4FE60702220FFF7E0FEA0702320BB
:10241000FFF7DCFEE070200000F0E6FCC1E7039B64
:10242000002B19D02D20FFF7D1FE0028B9D06E4C1B
:10243000039B5C43FFF72EFF05006C4BC318A342C0
:10244000AFD8FFF75BFC00222900002000F04CFC15
:10245000200000F02FFCA4E700F080FC2E20FFF706
:10246000B5FE03289DD104212B30FFF7B5FE98E778
:10247000002E06DB200000F0EBFD387001232B70EE
:102480008FE703992000FFF7A7FE8AE72B20FFF7CD
:102490009DFE80462A20FFF799FE05002920FFF7C0
:1024A00095FE06002820FFF791FE07002720FFF782
:1024B0008DFE04002620FFF789FE019000943B006A
:1024C00032002900404600F0A9FD6AE7002E06DB35
:1024D0003020FFF77BFE387001232B7061E70398F3
:1024E00000F0D4FE002809D004DB01213020FFF7E2
:1024F00073FE56E7C1B24942C9B2F7E70021302066
:10250000FFF76AFEFFF7FAFBFFF7C4FE04000022A4
:102510000100002000F0E8FB354920000A300123CB
:102520000022FFF742FE3CE7002E06DB2000FFF70B
:102530004DFE387001232B7033E7039D29002000E6
:10254000FFF74AFE002D0DD11420FFF73FFE0028B3
:1025500000D126E7FFF79EFE01000122254800F08A
:10256000C3FB1EE700F0FAFBFFF714F819E72000A1
:10257000FFF72CFE387001232B7000212000FFF79D
:102580002BFE0EE738233B70373B2B7009E71A4BC5
:1025900004221A60194B1B68DB05FBD5174B5A68E0
:1025A00093B23A701B0A7B7002232B70F9E6FEF798
:1025B000EBFF387001232B70F3E6FFF73DF805AB16
:1025C00018801A783A705B787B7002232B70E8E6EB
:1025D000FFF752FD2000FFF7F9FD387001232B7043
:1025E000DFE6C04658A6001060EA0000881300002D
:1025F000D92000103075000000E0044000C0044005
:1026000030B587B00F226A4410700A4D6868012304
:1026100000933B2102F086FE17246C446868002377
:102620000093013322003B2102F088FE207807B09E
:1026300030BDC0467413012000B585B06B461873D9
:102640005973054B586800230093023303AA3B21BA
:1026500002F068FE05B000BD7413012070B51628A5
:1026600001D1490700D470BD1438FFF7C9FFC30674
:1026700017D40006F7D50320FFF7C2FF45B20420A8
:10268000FFF7BEFF46B20520FFF7BAFF0400422065
:10269000FFF79CFD8442E6D3094B1C68002C0CD14B
:1026A000E1E70320FFF7ACFF0420FFF7A9FFDAE71B
:1026B00023683100280098476468002CF8D1D2E7DD
:1026C00074130120064B1B68002B05D01A005B68B1
:1026D000002BFBD150607047014B1860FBE7C046F0
:1026E0007413012010B504001A20FFF789FF072397
:1026F00098430443E1B21A20FFF79EFF10BD00008B
:1027000070B5224B22485860224902F0BBFD0321DC
:10271000122000F0C7FF00220121122000F0DAFF92
:102720000321172000F0BEFF00220121172000F036
:10273000D1FF182001F08AF8D024240680235B04FE
:102740006362A361162001F081F88023DB03A3629A
:1027500001220421162000F0FDFF102001F076F880
:1027600080256D026562A561642001F022FF65612C
:102770007720FFF745FF20231843C1B27720FFF7EA
:102780005BFF0320FFF7AEFF70BDC046741301204E
:1027900020050020A086010000207047704700003F
:1027A00070B590B00400002300933C22002101A8E2
:1027B00005F0DAF840226946200007F015F9084DC7
:1027C000AE1E6B46597818782B003200FFF774FD67
:1027D0002A783100200007F019F910B070BDC0460A
:1027E0008813012010B50220FFF7F0FC40231843A6
:1027F000C1B20220FFF7F0FC10BD00000048704796
:102800007C13012000487047B0A80010002803D0B6
:10281000012803D0002070470148FCE70148FAE78F
:102820006CA800101CA800100048704788A7001072
:1028300070B500280DD0072828D8154B8000C45843
:10284000200007F087FDC0B21F2800D91F200023F9
:1028500012E01048C1239B00040003800C4B196850
:102860000230022205F086F820000EE05A1CE55CDA
:10287000084B5100CD52D3B29842F7D801304000F6
:10288000C0239B0003430348038070BD0020FCE786
:1028900074040020AC14012083001B189B000B481B
:1028A0008446634400290CD01020824000290AD0BD
:1028B0000749186842400A40802149010B431A60C9
:1028C00070470800F1E70349F3E7C0460C000540F4
:1028D0000000FFFFFFFF000070B5140000282DD09E
:1028E000FF20421A1102521892B2011B0C02091960
:1028F0008DB2C01A0302C01884B200210220FFF773
:10290000CBFF2A0001210120FFF7C6FF2200012191
:102910000020FFF7C1FF124B1A68012319009143F1
:10292000104A1160104A1268190091430F4A116051
:102930000F4A126893430F4A136070BD0E4C220079
:1029400000210230FFF7A8FF220001210120FFF73C
:10295000A3FF220001210020FFF79EFFEDE7C04604
:1029600028000540281005401400054014100540BB
:102970000000054000100540FFFF000010B50400F6
:102980001F2100F08FFE00220021200000F0A2FE97
:102990000021200000F042FF10BD10B5040001F03E
:1029A00097FC210001F048FD10BD000010B5002B80
:1029B00002DB0260436010BD024B034A03483F2123
:1029C00002F01CFF68A50010B8A9001084A5001033
:1029D00010B582B0040001F075FE02000B006846DD
:1029E000FFF7E4FF009A019B22606360200002B0C1
:1029F00010BDF0B585B0050016001F000192FA2247
:102A0000920000230A98002104F0F4FE02000B005B
:102A100092197B419F4202D804D1964202D90122E9
:102A20005242D31702A8FFF7C1FF029A039B2A6004
:102A30006B60280005B0F0BDF0B5C64600B586B0A5
:102A400080460C0015001E000CAB1F7804A8FFF791
:102A5000BFFF049A059B009404A8FFF7CAFF049ADD
:102A6000059B029701960095404601F047FC06B091
:102A700080BCB846F0BDF0B583B004000D00160070
:102A80001F0001F025FC009733002A002100FFF70A
:102A9000D3FF03B0F0BD000010B5274B1B68002B1F
:102AA0001FDB264B187801225040C0B21870244B0F
:102AB0001B78032B18D0234B1C78022C2AD1190029
:102AC000DB788A784978FFF707FF1C4B1B78002BCF
:102AD0002FD0C8201C4901230022FFF7CCFF164B42
:102AE00018600020002110BD002807D01449CB78C1
:102AF0008A7849780120FFF7EFFEE6E71149087868
:102B0000CB788A784978013844426041C0B2FFF7F7
:102B1000E3FEDAE70B49CB788A784978013C6042DA
:102B20004441E0B2FFF7D8FE034B012252421A6043
:102B3000D7E7AF200001CDE79C040020FE1901205B
:102B4000740D0120780D0120992A001010B5802302
:102B50005B040C4A13600C4A92691A4205D1016069
:102B6000094B9B69DB0106D410BD084B084A094894
:102B7000512102F043FE054B054A0648532102F05D
:102B80003DFEC046183006400000064030A9001047
:102B9000ACA9001044A9001010B5044B1B68002B11
:102BA00001DBFFF7ABF80020002110BDA4040020DA
:102BB00010B5662805D0034B00221A700248FFF7B3
:102BC00093F910BD740D0120B12B001010B5040055
:102BD0000520FFF7FBFA20700C49601C042204F06A
:102BE000C9FE0B4B1B69A3600A4BA8229A58E260EE
:102BF000AC229B58236100210520FFF7EDFA00234A
:102C0000002200210120FFF767FE10BD780D012092
:102C100000ED00E00080004010B502F09BFB1A20A0
:102C2000FFF7ACFE094B1B68E022D2011340084AB3
:102C300013600F2000F00AFED0231B068022120230
:102C40005A629A61034B00221A7010BD00C0044002
:102C500000D00440FC190120064B1B78002B07D044
:102C6000D0231B06802212029A61024B00221A70A6
:102C70007047C046FC19012010B50400FFF7ECFFB7
:102C80000A4B1868002809DA0949FA2001232200B2
:102C90004000FFF7F0FE054B186010BDFFF77DFE0A
:102CA000024B012252421A60EEE7C046A8040020FF
:102CB000A52E001010B50400094B1868002808DA8A
:102CC0000849012303222000FFF7D5FE044B1860BA
:102CD00010BDFFF762FE024B012252421A60EFE77D
:102CE000A8040020A52E001070B504000E001500E9
:102CF000164B1868002819DA154B186800281CDADA
:102D0000092C00D80A241349012300222000FFF7D0
:102D1000B2FE0E4B1860A019002D15D001220E49ED
:102D20000123FFF7A8FE0A4B186070BDFFF735FEC0
:102D3000064B012252421A60DEE7FFF72EFE044BDB
:102D4000012252421A60DBE70022E8E7A4040020D7
:102D5000A0040020992B0010492F001010B5114B32
:102D60001868002808DA104B186800280BDA0F4B97
:102D7000186800280EDA10BDFFF70FFE094B01227C
:102D800052421A60EFE7FFF708FE074B012252425A
:102D90001A60ECE7FFF701FE044B012252421A6071
:102DA000E9E7C046A4040020A0040020A8040020F5
:102DB00010B50421142000F075FC0421132000F04C
:102DC00071FC0421112000F06DFC054B00221A70EB
:102DD000044B1A70002300210120FFF77DFD10BD78
:102DE000780D0120740D012010B504000378032B29
:102DF00011D017480422210004F0BCFD2078831E66
:102E0000DBB2012B19D8134B1B68002B09DB23788D
:102E1000032B0ED010BD10480422210004F0AAFD9F
:102E2000ECE70C4B01221A6000210020FFF734FE72
:102E3000EDE70A48FFF744F8ECE76178A278E37819
:102E4000013844426041C0B2FFF746FDE2E7C046A8
:102E5000780D01209C040020740D012094040020B2
:102E600030B583B004000E4B1B78012B16D0D02355
:102E70001B06802212025A61094B01251D70FEF7C4
:102E800089FB01A805700023437080228270C37003
:102E9000FFF7AAFF21002E20FFF79EF903B030BDF7
:102EA000FC19012010B50C00054B1B68002B04DB3E
:102EB000FFF754FFE0B2FFF7D3FF0020002110BD61
:102EC000A804002010B504000B490C48FFF73EFE93
:102ED000A2680B4B1A61E1680A4BA822995021693C
:102EE0000432995000F000FB601CFFF77DFF217851
:102EF0000520FFF771F910BD00F0FF00000006404B
:102F000000ED00E00080004000B589B006AB0D4A3E
:102F10001A8001229A70DA7003321A7100225A71F3
:102F20009A71DA7101A8FFF751FE012002F042FB0D
:102F300000220021042002F09DFB01A8FFF7C2FF40
:102F400009B000BDB207000070B50C000D006A1E8C
:102F50009541EDB2074B1B68002B07DBFFF77CFEAA
:102F6000002C03D0044B1D70FFF7CEFF0020002182
:102F700070BDC046A0040020FB190120014B187051
:102F80007047C046FB190120014B18787047C046B6
:102F9000FB19012070B50500C3001B18DB001B18CE
:102FA0009C001C19C217032313401B189B10E41824
:102FB0006421494203F0B0FD2418C82149002800CB
:102FC00003F0AAFD201870BD70B50400150009318A
:102FD0000E000C21300003F09FFD013804190C2174
:102FE000300003F099FD0E002000FFF7D3FF3301FE
:102FF0009B1B5B00C41870008019400005300A213B
:1030000003F08AFD20184019013070BD10B5FFF79C
:10301000DBFF072103F080FD080010BD70B582B012
:1030200006AC257807AC2478084EB44660446E465A
:103030003080B170F2707371B571F471FFF7E6FF13
:103040003071684602F00CFA02B070BD6C070000E7
:1030500010B582B00400684602F036FA2000263827
:10306000C3B2052B19D898000D4B1B589F466B46D1
:10307000D87902B010BD6B469879FAE76B4658795B
:10308000F7E76B46D878F4E76B469878F1E76B463C
:103090000020185E6C38C0B2EBE70020E9E7C046BC
:1030A000D0A9001010B5030010000AE04000013361
:1030B000072B05DC0028F9DA4000074A5040F6E704
:1030C00023000A000139002A05D05C1C1B781B066E
:1030D00058400023ECE710BDB71DC1040300303B8E
:1030E000DBB2092B09D920231843C0B20300613B8E
:1030F000DBB2192B09D9012070470A781201D2B22C
:103100000A7013430B700020F6E70B781B01DBB24B
:103110000B705738C0B203430B700020ECE770B55A
:1031200005000C0000230B700078FFF7D7FF002884
:1031300001D0012070BD68782100FFF7CFFF002883
:10314000F8D00120F6E7F0B5C3B00E000823FF3336
:103150006B4400221A7000E001300378002B01D08C
:103160003A2BF9D1002B39D0441C0027002509E067
:103170000823FF336B441B786A4653550135DF192A
:10318000FFB202342378002B12D082235B009D42D1
:103190000ED86378002B07D00821FF316944200046
:1031A000FFF7BDFF0028E3D00620404243B0F0BD4A
:1031B000002D16D0002F17D16B461A7832709B78ED
:1031C0006946497809020B4373806B46DB7833719B
:1031D000701D01A904F0CEFB0020E7E70620404265
:1031E000E4E706204042E1E707204042DEE7000036
:1031F000F8B5CE46474680B504001023984688446B
:10320000144BCD182D0B2D03134E0660134B43604A
:103210008160103001225242FFF744FFE060EFF37B
:10322000108972B68027BF022900380007F0ECF839
:1032300042462100380007F0CFF889F31088084B88
:10324000DE60084A1A61FA2292000021002001F093
:1032500035FEFEE70F100000FB5ECD8EA952AEC515
:103260000080054000000210044A00231360044A55
:103270001370044A1360044A13707047EC1801205D
:10328000EC140120700D0120001A012070B52B28CC
:103290001CD00A2821D00D2821D0354B1B78002BBB
:1032A0001FD1344B1B688022D200934254D0314A44
:1032B000591C1160304AD054002850D11378002B8B
:1032C00016D12C4B00221A60013010E0FFF7CCFF22
:1032D000274B01221A70012009E00020DDE70020C1
:1032E000DBE7002802D1224B00221A70012070BDBA
:1032F00022492148FFF727FF0028F8DB1D4B002259
:103300001A601D4B1A701D4B1B79012B19D0042B11
:103310001DD0002B01D00120E9E7194D2C682000B9
:103320001030184BC01815490E780531320004F0E2
:1033300021FBA4192C6080235B029C4211D2012046
:10334000D5E70F4B1B68002B0ED00020CFE70C4BAE
:1033500000221A600120CAE703204042C7E701208B
:10336000C5E705204042C2E704204042BFE7C0460F
:10337000001A0120EC180120EC140120F0180120A3
:10338000700D0120600D002010B5024B1968024835
:10339000FFF72EFF700D0120600D002010B50520F5
:1033A00000F022F9014B186010BDC046AC060020A9
:1033B00010B5FFF7F3FF10BD43001B189B00074A31
:1033C00094466344C02292011343802212011A6082
:1033D000034B80000022C2507047C046008000406E
:1033E000F00C0020F8B5DE4657464E464546E0B59F
:1033F00006000F0015000A9A93424ED31A0E924609
:103400001B0298460A9A00234046514603F0EEFB01
:1034100081467400A419A4002E4B9C466444636842
:10342000834200D26060331FDBB29B46012B3AD946
:10343000C0239B012343802212011A60264BB20055
:10344000D158002905D0586903F08EFB01300138AE
:10345000FDD16D0123685D40E0222A4080235B019D
:1034600023431A605A46012A28D980239B0123430B
:10347000802212011A604B4663604A460023404690
:10348000514603F0B3FB144BB60098510120F0BC39
:10349000BB46B246A946A046F8BD104B104A11489B
:1034A0002D2102F0ABF9012FC2D1C0239B01234390
:1034B00003221A60A368DB07FCD5CAE721687940BC
:1034C00003220A401A60A3680125BD401D42FAD0BC
:1034D000CBE7C04600800040F00C0020E8A90010B7
:1034E00054AA0010FCA9001030B583B00C2001F0E4
:1034F00097FC00F0AFF800280DD0002304E02E4A1E
:1035000099002E4888500133092BF8D92A4B2C4AB0
:103510005A6203B030BD2B4B00229A6701F0F2FCD7
:10352000294B01221A60274B5B6C012BFBD1274BE7
:1035300003221A60234B9B6B012BFBD102240094C6
:103540000533234A0121234801F0DAFB00940523C7
:10355000214A0121214801F0D3FB214B0093002295
:1035600002210420FFF73EFF1E4D00952B00002294
:1035700001210520FFF736FF104C009423000022A4
:1035800000210720FFF72EFF0094230000220021D6
:103590000820FFF727FF0A4B009323000022002199
:1035A0000920FFF71FFF00952B00002200210620B5
:1035B000FFF718FFADE7C046F00C0020006CDC02FE
:1035C0001BB70000008000403CB0004030B000401D
:1035D000002F68590080024000389C1C00C0024047
:1035E000001BB70040597307014B8000C05870475B
:1035F000F00C0020EFF3108072B6034B1B68002B19
:10360000FBD0BFF35F8F70472C0100D0BFF35F8FFB
:10361000024B00221A6080F3108870472C0100D002
:10362000F8B506000C001500FFF7E4FFE308F718F3
:10363000F15C07222240012393400B4205D1DBB20B
:103640000B433B70FFF7E2FFF8BD2100280002F0BA
:103650006DF90000034B1B6802201840431E98417F
:10366000C0B2704700C00640002307E0054A9A1820
:103670009200BFF35F8F0021116001331F2BF5D93A
:103680007047C04640000034054A1078431CDBB246
:103690001370172B02D9130010221A707047C046FE
:1036A000AC04002010B58300084A944663441A68AD
:1036B00040246240803414408022520113431C6035
:1036C000C000034B9C466044416010BD04C00140F3
:1036D0000040014080000B4B9C46604400290DD007
:1036E0000823002A0CD004221343026853400C2202
:1036F0001A4080235B0103431A6070470023F0E700
:103700000022F1E704C00140072303409B00C008EA
:1037100099403C308000014BC1507047004001404F
:10372000F8B507000C0016001D00FFF7EDFFFB08C1
:103730009B00ED180720384080008440002E04D004
:1037400080239B012B431C60F8BDC0239B012B43AE
:103750001C60F9E710B5D0231B061B68002B03D0B3
:10376000024BFFF7DDFF10BD014BFAE7304101408E
:103770000041014010B51C00FFF7ECFFD0231B06F1
:103780001968064A89008C5005490D2000F0FCF8A4
:1037900001210D2000F0E8F810BDC046B40600205D
:1037A000B537001010B5024BFFF7BAFF10BDC04689
:1037B0006041014070B5D0231B061B68002B02D06E
:1037C000134D002402E0134DFBE701341D2C1DD8DE
:1037D000E30808339B005A59072323409B00DA4033
:1037E00013000F2216001E401A42EED031002000B6
:1037F000FFF78AFFD0231B061A68074B9200D358A5
:10380000002BE2D0310020009847DEE770BDC046B3
:103810003041014000410140B4060020002909D098
:103820008000094B9C46604480239B010343402257
:103830001A6070478000044B9C466044C0239B0183
:10384000034340221A60F4E704C0014010B501238D
:103850008340D0221206936293610521FFF722FF75
:1038600010BD0000074B9B68103080001950BFF35B
:103870005F8FBFF35F8F044B0021196082F31088C4
:103880007047C04600ED00E0240100D010B5038869
:10389000DA0A1C2A05D15B055B1502335B00C018F0
:1038A00010BD034B034A0448992101F0A7FFC0460D
:1038B00064AA0010D0AB00107CAA001010B5091A41
:1038C00004394B08090B05D15B055B0D044818430F
:1038D00080B210BD034B044A04488B2101F08EFFD7
:1038E00000E0FFFFCCAA0010C4AB00107CAA0010BF
:1038F00010B5091A04394A08090B08D14905490DC0
:10390000064B0B430380064B1343438010BD054B0E
:10391000054A0648932101F071FFC04600F0FFFF01
:1039200000F8FFFFCCAA001098AB00107CAA001092
:1039300001238340034A10681840431E9841C0B2D7
:103940007047C04600E100E0002904D0034B186036
:10395000034B18607047034B1860FBE780E200E000
:1039600000E100E080E100E010B501238340180091
:10397000FFF7EAFF10BD0000024B9B68103080008B
:10398000C058704700ED00E070B504000D00EFF383
:10399000108672B60C4B1B68002BFBD0BFF35F8FF9
:1039A0002000FFF7E9FF094B984201D0A84205D15A
:1039B000320029002000FFF755FF70BD044B054A77
:1039C00005486E2101F01AFF240100D0CD1100102E
:1039D000DCAA0010E0AB00107CAA0010F0B5CE46C7
:1039E000474680B583B006000D00EFF3108872B62D
:1039F000524B1B68002BFBD0BFF35F8F504B9A6874
:103A000034001034A300D7584E4B9F4207D0AF422A
:103A100000D190E001974C4BFB1A2F2B09D942465D
:103A200039003000FFF71EFF03B0C0BCB946B046F6
:103A3000F0BD3000FFF77CFF814600213000FFF72A
:103A400093FFBFF35F8FFDF70EFC002801D0844287
:103A50001AD10123019C9C433B4A3C4B2100891A0B
:103A600049414B431B0D5BB29C460021A368AB420E
:103A700012D00622A256002A0DDB53009B189B0091
:103A8000314A2100D418F1E7314B324A1E21324825
:103A9000FF3101F0B3FE2100AB4245D10625655749
:103AA000002D2CDB284B6A00521992009B189A6853
:103AB000A260DA79E2719B795BB2A371002B10DA14
:103AC000BD200002A080204B6A00521992009B1872
:103AD000224A11789971157049463000FFF744FF6A
:103AE0009DE7680040198000174BC0180430FFF7AD
:103AF000CDFE0100231D1800FFF7E0FEE2E70028DD
:103B00000DD1002909D0FF238B71154B8B80134BEE
:103B10001A78A27162461A70DEE70A4FF7E7114978
:103B2000201DFFF7E5FED7E70F4B0A4AA9210A48F7
:103B3000490001F063FE034F71E7C046240100D045
:103B400000ED00E0CD110010B0040020AAAA000092
:103B500014AB0010B0AB00107CAA0010FD190120BE
:103B600000BDFFFFEA04002038AB001070B5040070
:103B7000012606432D4BF31A2F2B28D8FDF773FB94
:103B800000282BD0EFF3108C72B6294B1B68002B4A
:103B9000FBD0BFF35F8F254A264D2100891A49418A
:103BA0004D432D0D6DB2244B9B6880001B58B342D2
:103BB0001BD00021032932D81C4B4A005218920016
:103BC0009B189B795BB2AB421FD00131F2E71B4BD4
:103BD0001B4A78211B48FF3101F010FE1A4B184A8E
:103BE000BD211848490001F009FE134B9B68174A94
:103BF0001A50174B1A78A2711D70BFF35F8F0C4BD0
:103C000000221A608CF3108870BD084B4A005018CF
:103C100080001818FF2686710E4A8280E9E70E4B55
:103C2000074A8C210748FF3101F0E8FDB00400206D
:103C3000240100D0AAAA000000ED00E040AB001073
:103C40007CAB00107CAA001068AB0010CD110010F6
:103C5000FD19012000BDFFFF74AB00100022044BD2
:103C600002E0044902C30132072AFAD97047C0466C
:103C700000E400E080808080024B9C466144890023
:103C80000160704740000034084B5B6A994209D8D4
:103C9000064A926A824207D2994201D0012002E08C
:103CA000002000E0002070470120FCE700400540B4
:103CB00010B500290AD003681B7B8B4206D38068AD
:103CC000054B9C4661440901401810BD034B044A52
:103CD00004483B2101F092FDFFFFFF0FFCAB0010F9
:103CE00034AF001020AC0010F8B504001700FFF747
:103CF000DFFF0668456839002000FFF7D9FF02683A
:103D000043680120AB4201D802D00020C0B2F8BD08
:103D1000B242FBD8F9E7000010B5002B02DB0260CD
:103D2000436010BD024B034A03483F2101F066FD8A
:103D300068A5001000AF001084A5001070B582B017
:103D4000060014001D00069A079B12196B419D4244
:103D500002D804D1944202D901225242D3176846B4
:103D6000FFF7DAFF009A019B32607360300002B007
:103D700070BD000010B5002908D0037B8B4205D32D
:103D800000684B005B18033BC01810BD024B034A90
:103D90000348692101F032FD6CAC0010DCAE00106C
:103DA00088AC001010B5437B8B4201D1012010BDBF
:103DB000FFF7E0FF8378002B01D10020F7E7012017
:103DC000F5E770B50400857B002D01D1280070BD9A
:103DD0002900FFF7CFFF4378A373002B00D1E373D3
:103DE0000023837043700370F0E70000F8B506000D
:103DF0000C001500FFF7BEFF0700002C0DD0002DB2
:103E000011D0AC4215D029003000FFF7B3FF847009
:103E10003B78002B13D13D70F8BD0A4B0A4A0B4882
:103E2000702101F0EBFC0A4B074A0848712101F0B0
:103E3000E5FC084B044A0548722101F0DFFC4370A1
:103E40003D70E9E7E8AC0010B8AE001088AC001097
:103E5000F4AC001000AD001070B506000D001400A9
:103E6000002914D0002A14D043688068984700289D
:103E700006D0220029003000FFF7B8FF280007E035
:103E80002A0021003000FFF7B1FF200000E0100001
:103E900070BD0800FCE7000070B504000D1E0CD0DA
:103EA000FFF768FF0023837043700370617B2A0073
:103EB0002000FFF7D1FF607370BD034B034A044835
:103EC000A62101F09BFCC04618AD0010CCAE00103E
:103ED00088AC001070B505000C1E08D0FFF762FF1B
:103EE000002804D1E97B002907D1EC7370BD054B94
:103EF000054A0648F72101F081FC2800FFF73AFF48
:103F00004470F2E71CAD0010A8AE001088AC0010A1
:103F100010B5002907D003681B7B8B4203D3C06810
:103F20000139401810BD034B034A0448402101F0F9
:103F300065FCC046FCAB001094AE001020AC001035
:103F400070B505000C00080000F0B0FB200000F088
:103F5000DDFC0849200000F01DFCFFF795FB064B37
:103F60009C466044800068602C75044BA400E550BA
:103F700070BDC0468D40001040000034B8110120D3
:103F80000A4B1A68EFF3108172B61368002BFCD04D
:103F9000BFF35F8F054B1B68BFF35F8F00221A6072
:103FA00081F3108840BF0020002170479014012049
:103FB00010B582B0040000F085FB02000B006846DB
:103FC000FFF7AAFE009A019B22606360200002B006
:103FD00010BD70B584B0040016001D0002A8FFF7E4
:103FE000E7FF029A039B009601952000FFF7A6FECB
:103FF000200004B070BD0000F0B583B0070001924E
:104000001D000AAB1C780BAB1E78002C0BD000688F
:104010002100FFF7C7FE002809D0194B194A1A489A
:10402000652101F0EBFB0068FFF7CBFE0400002CDC
:1040300002D1200003B0F0BD21003800FFF738FEA8
:10404000019B03604560089B8360099BC3603868DF
:104050002100FFF721FFA042EBD1387D019A2B0010
:1040600000F0E0FB051E01D0002E04D00C9B002BBD
:10407000DFD01D70DDE73868210000F07FFDF5E737
:1040800040AD0010E8AE001020AC0010F0B5DE46E8
:1040900057464E464546E0B58FB00B900021784B11
:1040A0008200D458894682E029002000FFF700FEF4
:1040B000804602684368921BBB41002B09DD4346E2
:1040C0001A685B680B9800F0ADFB00239846002649
:1040D00089E0002B01D1002AF1D10021584600F0DF
:1040E00043FD0700A84215D143461A685B68089251
:1040F000099343469E68DB689846002E10D029003D
:104100002000FFF705FF037899461B021F43276134
:10411000002068E05B4B5C4A5C488C2101F06EFB40
:104120005B4B594A5948902101F068FB2369002BE9
:1041300077D0BB4219D106980799002342428B41A0
:1041400000920193089A099B0CA8FFF7F7FD0C9ABF
:104150000D9B00210491013103910295414601918B
:1041600000962000FFF748FF16E04A4B464A4748B2
:104170009F2101F043FB069A079B002B01D1002AE7
:1041800052D120682900FFF7A5FE29002000FFF783
:10419000BFFE037801330370002323616268BFF31D
:1041A0005F8F13608AF310880120002861D00CA86B
:1041B000FFF7FEFE0C9E0D9F00220023089209933C
:1041C0006268EFF3108A72B61368002BFCD0BFF35D
:1041D0005F8F23689B465D7B002D00D064E7002342
:1041E0009846002600206368BFF35F8F00221A60A4
:1041F0008AF31088002ED8D04B461F022F43414629
:104200003800B047069007916268EFF3108A72B6E3
:104210001368002BFCD0BFF35F8F079B002B00DAE5
:1042200084E7079B002BA6DD2369002BA9D0BB42A6
:1042300019D10CA8FFF7BCFE0C9A0D9B06980799A4
:10424000009001910CA8FFF779FD0C9A0D9B0021BD
:10425000049101310391029541460191009620009D
:10426000FFF7CAFE98E70B4B074A0848A22101F066
:10427000C5FA0FB0F0BCBB46B246A946A046F0BD99
:10428000B811012068AD001018AF001020AC00106C
:1042900080AD00108CAD001010B50A4B5B68002B90
:1042A00004D009480A21FFF7E7FC10BD054C074A76
:1042B00020682300102100F0D0FB03212000FFF72D
:1042C0003FFEEEE7F804002090140120E93C0010C6
:1042D00010B5064B5B68002B01D0044810BD044BA1
:1042E000044A05485C2101F089FAC046F804002020
:1042F000C8AD00107CAE001020AC0010F0B5DE465A
:1043000057464E464546E0B58DB0060090461F0024
:10431000169B9A46179B994618AB1B780793272341
:1043200002AA9446634400221A7021E00100300082
:10433000FFF7EEFD00783CE00698002B5CD0079B71
:10434000002B59D04946D04704000D0003000B4311
:1043500059D0002940DB08A8FFF72AFE089A099BDC
:104360000094019508A8FFF7E9FC089B9846099F6F
:104370007268EFF3108B72B6136859424B41D9B291
:104380000691002BF8D1BFF35F8F273302AA944622
:10439000634404930023039302934B4601935346D3
:1043A000009342463B003000FFF726FE0400051E46
:1043B000BCD17368BFF35F8F002119608BF3108845
:1043C000002D17D0272302AA944663441B78002BA4
:1043D000B2D100022043B0E700236242AB41009219
:1043E000019342463B0008A8FFF7A8FC089B9846AB
:1043F000099FBDE7012040420DB0F0BCBB46B2466C
:10440000A946A046F0BD0698F6E7F0B5C64600B549
:1044100084B00500884616001F000AAB1C78FFF721
:1044200057FF0294019700962A004346FFF766FF64
:1044300004B080BCB846F0BDF0B5C64600B5040077
:104440000D004268EFF3108772B61368002BFCD0A2
:10445000BFF35F8FEEB22368984631001800FFF774
:10446000A1FC00282AD02369AB4213D02D0AEDB25B
:1044700031002000FFF74CFD0378AB4211D0002043
:104480006368BFF35F8F00221A6087F3108880BCD7
:10449000B846F0BD0C4B0D4A85210D48490001F08E
:1044A000ADF93100404600F069FB0028E8D1094B26
:1044B000064A12210648FF3101F0A0F92369AB42F8
:1044C000DED100232361DBE7ECAD001064AE001009
:1044D00020AC001010AE001010B50400FFF7F8FE7D
:1044E0002100FFF7A9FF10BD30B587B004000D0013
:1044F000FCF7B9FE002820D106225242D317121928
:104500006B41AB4202D803D1A24201D90022002361
:1045100004A8FFF701FC02A8FFF74AFD02980399DF
:10452000049A059B121A8B41002B0BDC08D020004B
:10453000290000F0D3F807B030BD144801F0F6F9B7
:10454000002AF4D0124A0498059900230093FFF73B
:104550005CFF002813DAEAE70E4B1A68EFF31081CC
:1045600072B61368002BFCD0BFF35F8F094B1B683A
:10457000BFF35F8F00221A6081F3108820BF049878
:104580000599FFF781FB0028E6D0D0E714AE0010B4
:10459000813F00109014012000B583B002000B0091
:1045A0006846FFF716FD00980199FFF79DFF03B0DD
:1045B00000BD10B5FA2292000023002103F01AF981
:1045C000FFF7EAFF10BD000030B583B005000C0016
:1045D0000A4A00230093FFF718FF002808DD20BFD8
:1045E000FFF77AFF28002100FFF74EFB03B030BD34
:1045F00028002100FFF748FBF8E7C046813F001084
:1046000010B5002B02DB0260436010BD024B034A71
:1046100003483F2101F0F2F868A50010F8AF001040
:1046200084A5001070B5EFF305833F2018401038C3
:10463000EFF3108C72B6184B1B68002BFBD0BFF346
:104640005F8F012319008140144A5163144A127884
:104650001400C440234213D0104B5C6A114B8500F8
:10466000EB589C4205D3104BEB580D4C8A432270FB
:1046700007E00A4A031D9B0099589950002300E067
:104680000023BFF35F8F044A002111608CF3108870
:10469000002B00D0984770BD280100D00040054095
:1046A000FF1901209C140120C80B002010B5010047
:1046B000024A034B1800FEF7B3FF10BD40AF0010D5
:1046C000FA190120044B5B6A034A906A1900536A85
:1046D0009942F9D17047C04600400540084B5B6ADB
:1046E00001E0074B5B6A8B42FBD301E0044B5B6A42
:1046F0008B4203D1024B9B6A8342F7D37047C0467B
:1047000000400540F0B583B004000D00FFF7DAFF6C
:1047100006000F0022002B0092197B41994202D81B
:1047200004D1904202D901225242D3176846FFF7C2
:1047300067FF00980199FFF7D1FF03B0F0BD0000BB
:1047400010B5002807DB064B9A6A054B9B6A9B1A3B
:104750008342FAD310BD0021FFF7D4FFFAE7C04629
:104760000040054010B50A4B984207D843011B1A78
:104770009B001818C000FFF7E3FF10BDFA2292005B
:104780000023002103F036F8FFF7BCFFF5E7C04631
:104790009BC4200070B504000E00EFF3108572B6C4
:1047A0001B4B1B68002BFBD0BFF35F8F002E1CD070
:1047B0002000FFF7E1F8174B83420BD019002000CF
:1047C000FFF7E2F801212000FFF7CEF80123A34014
:1047D000114A1360114BA400E650BFF35F8F0C4BDE
:1047E00000221A6085F3108870BD0C4BA2000021D6
:1047F000D1500122A2400A490B7893430B7005491E
:104800002000FFF7EBF800212000FFF7ADF8E4E708
:10481000280100D02546001038600540C80B002054
:10482000FF190120F0B5DE4600B584B00400150084
:1048300001921E000293FFF745FF03958E4202D8B6
:104840004ED185424CD9EFF3108B72B6274B1B68C3
:10485000002BFBD0BFF35F8F254A17780125A540B9
:10486000EBB23B431370234B5D63221D9200019911
:10487000D150214AA100029888501B6A2B4212D1C4
:104880001C4B1B6C2B4208D00020BFF35F8F174BD3
:1048900000221A608BF3108823E0184B184A19483D
:1048A000C12100F0ABFFFFF70DFF8E4214D802D1FB
:1048B000039B834210D80E4B1B78BB420ED00D4B8E
:1048C0001D625D631F222240012393400E4A136044
:1048D000074B1F700120D8E70020D6E70120D4E75E
:1048E000012004B080BCBB46F0BDC046280100D00A
:1048F000FF190120004005409C14012064AF001006
:10490000DCAF001088AF001080E200E0EFF3108C05
:1049100072B60B4B1B68002BFBD0BFF35F8F0123DC
:104920008340084A136208490A789A430A70BFF321
:104930005F8F034B00221A608CF310887047C046CB
:10494000280100D000400540FF19012010B50029C2
:1049500008D0037B8B4205D300684B005B18033BF8
:10496000C01810BD024B034A0348692100F046FFFE
:104970006CAC001010B1001088AC0010F8B5060047
:104980000C001500FFF7E2FF0700002C0DD0002DF2
:1049900011D0AC4215D029003000FFF7D7FF84704A
:1049A0003B78002B13D13D70F8BD0A4B0A4A0B48E7
:1049B000702100F023FF0A4B074A0848712100F0DC
:1049C0001DFF084B044A0548722100F017FF437091
:1049D0003D70E9E7E8AC0010FCB0001088AC0010B6
:1049E000F4AC001000AD001070B506000D0014000E
:1049F000002914D0002A14D0436880689847002802
:104A000006D0220029003000FFF7B8FF280007E099
:104A10002A0021003000FFF7B1FF200000E0100065
:104A200070BD0800FCE770B5050000234373013337
:104A30008373037BC373012406E021002800FFF782
:104A400085FF0134E4B24470297BA142F5D82800E7
:104A5000FFF77CFF0023437070BD10B50173426007
:104A60008360FFF7E0FF10BDF0B5C64600B5050056
:104A70000C1E03D1200080BCB846F0BDFFF766FFD6
:104A80004678002EF6D031002800FFF75FFF477808
:104A900000239846437021002800FFF757FF434644
:104AA0004370320021002800FFF79EFF0400390008
:104AB0002800FFF7D9FF020021002800FFF794FF2C
:104AC0000400D7E7F0B5C64600B504000D00170096
:104AD000002920D0FFF73AFF4378002B21D18378BB
:104AE000002B24D101782000FFF7BEFF060080468E
:104AF000002F03D0E17B00291FD1E5734346002B33
:104B000020D129002000FFF721FF0023437030004F
:104B100080BCB846F0BD0F4B0F4A1048382100F05A
:104B20006DFE0F4B0C4A0D483A2100F067FE0D4B0D
:104B3000094A0A483B2100F061FE2000FFF706FF0A
:104B40004570DAE731002000FFF700FF0023837093
:104B5000D7E7C04610B00010E8B0001018B0001041
:104B600064B000108CB0001070B504000A00457BE2
:104B70002900FFF7A7FF6073280070BD70B506001D
:104B80000C1E40D0437B8B4207D0FFF7DFFE0500B1
:104B90008178002906D1002036E00121FFF7E4FFEB
:104BA000012031E03000FFF7D1FE0178A1420DD0A5
:104BB0003000FFF7CBFE4178A1420AD00029F7D19F
:104BC000124B134A1348673100F018FE6B780370DC
:104BD00001E06B7843700023AB706B700122210001
:104BE0003000FFF76FFF0200717B814205D030007B
:104BF000FFF7FAFE7073012006E0074B044A0548F0
:104C00006D2100F0FBFD002070BDC04674AB0010AC
:104C1000D0B0001018B00010B0B0001010B5002BCC
:104C200002DB0260436010BD024B034A03483F2190
:104C300000F0E4FD68A50010E0B1001084A50010AC
:104C4000F0B585B0050016001F000192FA2292000F
:104C500000230A98002102F0CDFD02000B009219FA
:104C60007B419F4202D804D1964202D9012252428E
:104C7000D31702A8FFF7D2FF029A039B2A606B604A
:104C8000280005B0F0BD10B582B00400FFF71AFD92
:104C900002000B006846FFF7C1FF009A019B2260EB
:104CA0006360200002B010BD30B585B004000D0077
:104CB00002A8FFF7E8FF029A039B00952000FFF788
:104CC000BFFF200005B030BD10B50400FEF7DCFCCE
:104CD00001002000FEF7D0FFFF232371BFF35F8F99
:104CE00010BD10B50400FEF7CFFC01002000FEF758
:104CF000C3FFFF23237100236371BFF35F8F10BDD8
:104D0000F0B5CE4600B504000E0091461F000C2001
:104D100001F02AFF050043011B1A9901C91AC900B5
:104D200009188901484601F01FFF0200103A982334
:104D30005B009A4233D87B1E062B36D8069B013B7C
:104D4000062B32D8069B9F4235D34B461B09AB42FC
:104D500037D33F04069B1D032F432368002B36DB0C
:104D6000234B9C4241D080235B01224A1360224A9C
:104D70001360224A926819009143FAD12660A0601C
:104D8000221DC0239B01134321221A602268002A9E
:104D9000FCDAE76008221A6080BCB946F0BD184B07
:104DA000184A1948162100F029FD184B154A1648D3
:104DB000192100F023FD164B124A13481F2100F061
:104DC0001DFD144B0F4A1048222100F017FD2268E8
:104DD0003F231340B342C3D1A3681B051B0D83427D
:104DE000BED1E368002FBBD1D6E780239B01BCE78F
:104DF00000C0024000E0004000F0004000C0004061
:104E0000F8B10010E4B2001014B2001064B2001047
:104E1000B0B20010C8B200102D23436070470000EC
:104E200080239B000343014AD36270470080054002
:104E3000024B1A68024B5A607047C046B0110120FD
:104E40000080054010B5174B8022D2051A60164B22
:104E5000164A1A6000290AD0154BE022D2041A60C3
:104E6000002809D1124B802212061A6010BD0D4B8A
:104E7000E022D2041A60F3E743011B1A9B001818C2
:104E800000010C4B186080235B04984202D3094B4D
:104E9000094A1A60FFF7CCFF054B8022D2051A6041
:104EA000E4E7C04600B0054008200140FCFF0100D7
:104EB00000A00540B0110120FFFFFF0010B5030066
:104EC00010000C4A8024E4051460002B0DD0012250
:104ED0001343094A094CD461094C5C401462516285
:104EE00093620021FFF7AEFF10BD034B0022DA6191
:104EF000F7E7C04600B0054000800540D3C007B0CA
:104F00002D3FF84F064BAA2212011A602F22DA60B9
:104F1000044B054A1A60024B5B68002BFBDA7047B2
:104F2000004002400060024000B0FA0005490A68F3
:104F3000054B1A40054B13430B60024B5B68002B7B
:104F4000FBDB704700400240FF0F00FF00E0D10094
:104F5000034B044A9A60024B5B68002BFBDA7047F4
:104F600000400240616D6F63F0B5DE4657464E4625
:104F70004546E0B585B00700100098460EAB1B789B
:104F800003930F9D109E3B680022DA663B685960D0
:104F90003B680132DA660022002399460024C346AA
:104FA0004146029190462BE03A79002A31D0012205
:104FB0002FE00399002901D000212EE001212CE0EF
:104FC0003000A84703000443E4B2002B06D13A683E
:104FD000526BD20602D4002DF2D1F6E7002B09D194
:104FE0003A6880215158894600291FD1002C2FD1C1
:104FF000C2451ED0002C33D101229446E0440198D2
:10500000D8452DDA029A013A92464246002ACBD080
:1050100000229202C245CCD0002149020A43411C21
:1050200001910078396802430A61D4E7526D012486
:105030000EE0039A002ADDD10AE03000A847030001
:105040000443E4B2002B06D13A68526B920502D4B5
:10505000002DF2D1F6E7002BCCD13A68126EC9E7E9
:105060004246002C09D0002B15D14B46002B16D000
:10507000DB0718D44B461B0709D5039B3B71100077
:1050800005B0F0BCBB46B246A946A046F0BD02231F
:105090005B421A00F1E701235B421A00EDE70223AD
:1050A0005B421A00E9E702235B421A00E5E7F0B52C
:1050B000DE4657464E464546E0B583B0050092466B
:1050C000180001930CAB1A7893460D9E0E9F2B6827
:1050D0000022DA662B6859602B680132DA66814655
:1050E000002398460024C8453FDA019A541E2A68D6
:1050F000516F1029FBD0414600290BD000208002BF
:1051000044450ED000214902084380214900014353
:10511000116118E02979002901D10020EFE7012071
:10512000EDE75946002901D00021ECE70121EAE72B
:105130003800B04703000443E4B2002C15D12A68BC
:10514000916F002909D12A6880215158546D621E3F
:105150009441E4B2002EEBD1EFE7126951460A7098
:1051600001229446E044E244BDE7002C04D0002B29
:105170000CD001235B4298465B462B71404603B03E
:10518000F0BCBB46B246A946A046F0BD02235B4236
:105190009846F1E7F0B5D6464F464646C0B50500FD
:1051A0000C000520FEF720FA060060088019210097
:1051B00001F0DAFC07004300994681440521484686
:1051C00001F0D2FC80463B1A9A46284B9C4224D8D8
:1051D00070008019264901F0C7FC441C4346023B7D
:1051E000A34221D32B680022DA6629680B680432B7
:1051F000534002321A4080235B010B431A602B6834
:105200005246DA612B6842461A624B464F2B11D93F
:105210005021484601F0A8FC0DE0700080191549A6
:1052200001F0A2FC441CD9E7134B144A14485F2137
:1052300000F0E4FA01202A68A023D0502B681A005D
:105240007C32DB6F5C402404240C80235B0113431D
:105250001C602B680122DA663900300001F084FC02
:10526000E0BCBA46B146A846F0BDC0463F420F007A
:105270008096980040787D01F0B2001060B3001075
:1052800010B3001010B5114B98421DD01022104BD6
:105290001A60104B1A60104B9B6814009C43231E2D
:1052A000F9D104710268D46602686624FF34146080
:1052B0000268D3630268936302688833633CFF3CEF
:1052C000D450FFF767FF10BD0822E0E72805002053
:1052D00000E0004000F0004000C0004010B503684E
:1052E0000024DC66002910D00468216880239B001C
:1052F0004B400B490B408021490121430B6003685F
:105300009A6003680122DA6610BD01680B684122C9
:105310005340034A1340802252010A431360F0E7CE
:105320004102000030B585B008AC25780024029415
:1053300001940095FFF718FE05B030BD30B585B07B
:1053400008AC25780024029401940095FFF7AFFE85
:1053500005B030BD0123084A1360084A1360084BAA
:105360009A6801239343FAD1064B01221A60054B38
:105370001B68DB05FBD5704700E0004000F00040F3
:1053800000C0004000C00440028880235B019A42B4
:1053900019D20223C356013BDBB20B2B15D80323D2
:1053A000C356013BDBB21E2B11D80379062B10D854
:1053B0004379172B0FD883793B2B0ED8C3793B2B1E
:1053C0000DD8012000E0002070470020FCE70020FD
:1053D000FAE70020F8E70020F6E70020F4E70020D5
:1053E000F2E70000024BDB685B08012018407047C1
:1053F00000C0054010B50920FEF7F6F8002813D0CC
:1054000080231B020E4A13600E4A13600E4B9A68EB
:1054100080231B029343F9D1013880235B02984219
:1054200008D20A4B186010BD094B0A4A0A481921D4
:1054300000F0E4F9094B074A0748242100F0DEF99F
:1054400000E0004000F0004000C0004000C0054007
:1054500074B30010F4B3001084B30010D4B3001080
:1054600010B50400FFF790FF002829D0154B00224B
:10547000DA60FFF7B7FF0028FBD10022A35E1B0311
:105480000222A256120213430322A25613430D4ACC
:1054900053600423E3561B060521615609040B43A0
:1054A0000621615609020B43072161560B439360A5
:1054B0001023D3600F3BD360FFF794FF0028FBD08D
:1054C00010BDC04600C0054070B50400FFF78AFF5C
:1054D00000281AD00D4BD9699D690A0E0723134085
:1054E00023710B0C1F22134063710E0A3F231E40D1
:1054F000A6710B40E3712B0B1B051B0D2380290AA2
:105500000F230B40A3702A40E27070BD00C005401D
:1055100010B5010018231B8814221088984710BD6D
:1055200010B5010018231B8816221088984710BD5B
:10553000F0B5C64600B507000E00002501239846C9
:1055400000E00135B5420AD2AC003C192068FFF7F3
:10555000DFFF20600028F4D100239846F1E74046A1
:1055600080BCB846F0BD0138C3B2002001229A4287
:105570004041C0B27047000010B50A4B1C782000B3
:10558000FFF7F1FF002804D0012C08D000F0E4F868
:1055900010BD054B054A06487C2100F02FF9FFF7A6
:1055A000D7FCF5E7F719012094B5001054B60010A8
:1055B000BCB5001030B583B00400FFF7D4FF00285D
:1055C00037D0234B1C70012C39D0224D002100957F
:1055D0002B0000220420FDF705FF00952B00002280
:1055E00000210520FDF7FEFE0720FDF7E5FE08205F
:1055F000FDF7E2FE012C25D00222174B00932B0071
:1056000000210920FDF7EEFE00952B00002200216D
:105610000620FDF7E7FE1148FFF7FEFB1048FFF7F5
:10562000FBFB012C10D0FFF781FC00F0DDF803B08C
:1056300030BD0C4B0C4A0D48292100F0DFF80C4D11
:105640000221C4E70322D8E700F072F8EDE7C04674
:10565000F7190120A02E63001BB700000080024054
:1056600000C0024010B6001080B60010BCB500109B
:10567000001BB70070B50400012310005840C0B2F1
:105680004B40DBB21D2C08D8002B0ED000280AD1CD
:105690000025002A0AD0022508E00F4B0F4A1048C7
:1056A0008A2100F0ABF80125F3E70025002907D097
:1056B000002A00D00825002902D0002800D00425A7
:1056C000012229002000FEF76DF8FFF755FF2900A1
:1056D0002000FEF719F870BD38B6001060B6001053
:1056E000BCB5001010B580235B040C4A13600C4A53
:1056F00092691A4205D10160094B9B69DB0106D40E
:1057000010BD084B084A0948512100F077F8054BB5
:10571000054A0648532100F071F8C046183006408B
:105720000000064030A90010A0B6001044A90010E7
:1057300010B506480368064A134006491943FFF7A7
:10574000D1FF024B9B69002BFBDB10BD0000064024
:10575000FF0F00FF00E0D10010B504490448FFF737
:10576000C1FF044B9B69002BFBDA10BD616D6F63B9
:105770000C0006400000064070B504000D00034810
:10578000FFF7C6FE0300290020009847554200009D
:1057900010B5002310E0114A99008858104A88502B
:1057A0000133022BF7D90F480021FEF7ABFF0C4B5A
:1057B00000221A6010BD0133022B08D8084A990054
:1057C0008858064A8A589042F5D00023E9E7044BEE
:1057D00000221A6000210020FFF7CEFFACB60010B7
:1057E0007C050020400D030010B502F01DFA10BD2D
:1057F00000BEFDE710B5FFF7FBFF000030B583B03A
:105800000D001900002A0BD0074B084C01920093A1
:105810002B000200200002F0F7F90120FFF7E8FF5B
:10582000034B1A00F1E7C046DCB60010ECB60010DE
:1058300068A4001070B52B4B2B4A1A602B4B2C4AD6
:105840001A602C4B9A682A4B9343FAD12A4C01E0F8
:1058500008CC9847294B9C42FAD3FDF745FE234BD1
:10586000274A1A60234B9B68DB43DB01FAD1254BA7
:1058700040229A675A671A67DA66234C09E0234B7D
:10588000234A24488321FFF7B9FF2000FFF71CFAC1
:105890000834214B9C4209D22368002BF5D0012B00
:1058A000EDD12000FFF71DFA0834F2E71B4DA9687F
:1058B0001B4CC022200002F05DF8AC60FBF7D3FC6B
:1058C000002800D000BEFDF7CFFEFEF7C7F9FEF7B7
:1058D000E3FC144C01E008CC9847134B9C42FAD3EC
:1058E00070BDC04600E00040BFCDFBFE00F00040B0
:1058F000FE7F3C0000C000406005002070050020D5
:10590000FFFFFF0100F00140580500201CB7001008
:10591000A0B700103CB700106005002000ED00E0CB
:1059200000000020700500207C0500200FB400B5A9
:1059300083B0084802F036F9049B002B07D005A974
:105940000191180002F03EF9034802F02BF9012002
:10595000FFF74EFF90B70010E8A40010704710B595
:10596000002802D00B684968984710BD010000204C
:1059700007E083001B185B00501C08601078C018FB
:1059800030380A681378303BDBB2092BF1D9704705
:10599000F0B5DE4657464E464546E0B583B09346E1
:1059A0001F000C9B9A460D9C0E9B99460F9B9B07D4
:1059B00003D0B8460F00060022E00192A3468846B5
:1059C0004E46B9460700B44207D2551C4B464146E5
:1059D0002020B84701342A00F5E73D004F465C46D9
:1059E000019B9B46B1464646B84637002E0007E06D
:1059F000013C551C5346185D43463900B0472A0008
:105A0000002CF5D135003E0047460F9B9B0707D47D
:105A1000100003B0F0BCBB46B246A946A046F0BD9C
:105A2000B0464E46B9462F005D46531BB342EFD2F7
:105A3000541C4B4641462020B8472200F5E7F0B5FC
:105A4000CE46474680B585B0944698460C9D0D9C41
:105A50000EAB1B789946109A119B129EB7071CD467
:105A6000002B0CD0F7070AD54F46002F02D10C3778
:105A7000374204D0013B02E030272F5501349442D5
:105A800001D21F2CF8D9F70707D59C4205D21F2C4D
:105A900003D830272F550134F5E7F70612D57705DF
:105AA00005D4002C03D0944221D09C421FD00F9AE1
:105AB000102A32D00F9A022A37D01F2C0AD830224F
:105AC0002A5501341F2C05D84A46002A33D02D22EE
:105AD0002A55013403960293019400954346624689
:105AE000FFF756FF05B0C0BCB946B046F0BD621E18
:105AF000012C10D00F9F102F0BD014000F9A102ADA
:105B0000D8D1B206D6D51F2CD4D858222A55013464
:105B1000D3E7023CCBE71400C9E7B206EED41F2C52
:105B2000ECD878222A550134C7E71F2CD2D860322E
:105B30002A550134C1E7720703D52B222A550134B7
:105B4000C8E73207C6D520222A550134C2E7F0B58E
:105B5000DE4657464E464546E0B593B081468A46F6
:105B6000089209931CAB10CB1B789B461E9D219B72
:105B70009846002C03D1102342469A439046802336
:105B8000DB0046461E4042461A4212D0002C22D06C
:105B900000260EE03033D9B2771C0AAB99552900A4
:105BA000200000F0E1FFAC4216D31F2F14D83E00B6
:105BB00004002900200000F0D7FFCBB2092BE9D95F
:105BC0004246920605D54121C918C9B20A39C9B25F
:105BD000E2E76121F8E7270043460693209B0593FF
:105BE0001F9B049303955B46029301970AAB0093B6
:105BF000099B089A51464846FFF721FF13B0F0BCB5
:105C0000BB46B246A946A046F0BDF0B5DE465746B3
:105C10004E464546E0B597B00A900B910C929A46D5
:105C2000209B9946219F22AA13789B46249B099387
:105C3000259C289B98464A463A4302D1103293430A
:105C400098468022D20045461540434613420AD06A
:105C50004A463A4341D000252E0053460D934D4607
:105C6000099B9A461BE02E0053460D934D46099B17
:105C70009A4614E03033DAB2731C99460EAB9A554B
:105C8000524623002800390000F0B0FFBC4226D85D
:105C900019D04B461F2B1CD84E4605000F0052460C
:105CA00023002800390000F0A1FFD3B2092BE1D96D
:105CB0004246920605D54122D218D2B20A3AD2B251
:105CC000DAE76122F8E7AA45E3D94E460D9B9A46EA
:105CD00008E04E460D9B9A4604E0002602E04E4640
:105CE0000D9B9A4643460693279B0593269B049358
:105CF000099B03935B46029301960EAB00935346B8
:105D00000C9A0B990A98FFF79AFE17B0F0BCBB46A5
:105D1000B246A946A046F0BDF0B5DE4657464E460F
:105D20004546E0B591B0804689460C929A461A9C49
:105D30001B9D22002B002000290001F0E6F900281D
:105D400000D0ECE001225242D44B2000290001F0A7
:105D5000D7F9002800D0E2E001225242D04B2000C7
:105D6000290001F0B7F9002800D0D8E00022002374
:105D70002000290001F0AEF9002800D0E4E00694EC
:105D800007958023DB001E9A1A400D921E9A1A4234
:105D900001D106231C930698079902000B00089274
:105DA000099303000A00024300D1D9E0080D400521
:105DB000400DBC4EB44660440A03120B1E00BA4BA1
:105DC00013431F0001F0B4F9B84AB94B01F03FF991
:105DD000B84AB94B01F014F9089009910022B74B69
:105DE0003000390001F003F9B54AB64B01F02FF944
:105DF00002000B000898099901F002F901F0B0F9CE
:105E0000834601F095F906000F00AF4AAF4B01F051
:105E10001EF90022AE4B01F0F3F801F0A1F9089051
:105E2000AC4AAD4B3000390001F011F906000F000B
:105E3000089801F07DF9A94AA94B01F008F9020080
:105E40000B003000390001F0D2F806000F0002000C
:105E50000B0001F0FCF80A900B91089BA14A9446B4
:105E6000634400210022089109921B050993002335
:105E7000089332003B003000390001F0C1F80E9069
:105E80000F9132003B0000208021C90501F0AFF8DE
:105E900006000F000022944B0A980B9901F0B9F804
:105EA0000022924B01F0ACF802000B000A980B990B
:105EB00001F0AFF800228E4B01F0A2F802000B00B7
:105EC0000A980B9901F0A5F802000B003000390088
:105ED00001F096F802000B000E980F9901F099F866
:105EE0000022714B01F08CF8089A099B01F0AFF881
:105EF00006000F0008960997069A079B01F000F923
:105F000000282FD001235B429C46E3440022774BBC
:105F10003000390001F07DF80890099122E01E9BC5
:105F200004931D9B03931C9B02930094019553467D
:105F30000C9A4946404600F0FFF811B0F0BCBB4651
:105F4000B246A946A046F0BD002100220691079264
:105F5000069480231B069C46AC446346079310E7D7
:105F600000239B465B466333C62B20D804261E9B2A
:105F70001B0528D5089A099B190011430FD05D4ACB
:105F80005D4B0698079901F0B3F800287AD00022FB
:105F90005A4B0698079901F09DF8002872D01C9B77
:105FA0005B4506DD5A469B1A013B1C9303E0052620
:105FB000DDE700231C938023DB001E9A1A431E9208
:105FC000002600239B461D9B9E4265D29F1B0223F9
:105FD0001E9A1A400A921E9A134202D0002E00D036
:105FE00000275B46002B07D0089A099B0698079963
:105FF00001F00FF8069007910022002320002900ED
:1060000001F068F8002800D07CE03D4B1E9A134058
:10601000049303971C9B0293069B079C0093019497
:1060200053460C9A4946404600F086F8002E00D1AF
:1060300083E71E9B9B0671D54525441C53460200F1
:1060400049462800C0475A46D317D2185A4005235C
:106050000593013E0496002303930A3302935B46A3
:10606000DB0F019300925346220049464046FFF75A
:106070006EFD0A9B002B00D15FE7020047460C9E95
:106080001D9D53E01C9B002B9DD00D9B002B9AD097
:106090001C9B013B1C9396E7002798E7FFFFEF7FCF
:1060A000FFFFEFFF01FCFFFF0000F03FFB799F5077
:1060B0001344D33FB3C8608B288AC63F0000F83F23
:1060C00061436F63A787D23F71A379094F930A4059
:1060D0000000E03F1655B5BBB16B0240EF39FAFE48
:1060E000422EE63FFF03000000002C400000244049
:1060F000000018402D431CEBE2361A3F80842E41ED
:10610000FFF7FFFF069C079D220029008020000664
:10611000844661440B000692079376E765258CE779
:10612000541C534649462020B8472200931BAB42DB
:10613000F6D3100001E7C046F0B5DE4657464E469E
:106140004546E0B595B00690079193469946209F45
:106150001E9A1F9B1000190000F0D7FF002831D1B4
:1061600001225242BF4B1E981F9900F0B3FF002836
:1061700037D101225242BC4B1E981F9900F0C0FF3C
:1061800000283DD10022B94B1E981F9900F0B8FF9E
:10619000002850D10022B64B1E981F9900F09AFF9C
:1061A000002848D1002200231E981F9900F092FF7A
:1061B000002850D100239846229B5B0500D4B6E00E
:1061C000002458E0229B0393219B02930323019315
:1061D000A84B00934B465A4607990698FFF7D8FB01
:1061E0000EE1229B0393219B029304230193A24B74
:1061F00000934B465A4607990698FFF7C9FBFFE004
:106200000423229A1A4022990B4210D09B4B002A59
:106210000FD00422229903912199029101920093B7
:106220004B465A4607990698FFF7B2FBE8E0944BB5
:10623000EDE70322EEE7229B0493219B0393029751
:106240001E9B1F9C009301944B465A460799069843
:10625000FFF762FDD4E01E9A1F9B0020002100F092
:10626000C6FE1E901F9101239846A5E70CAB302275
:106270001A55013F01341F2C01D8092FF6D81E985A
:106280001F9900F06DFF050000F052FF02000B00A7
:106290001E981F9900F0ABFE7A4BFA009B181A6803
:1062A0005B680A920B9300F0D2FE0890099100F00F
:1062B0007BFF060000F038FF02000B0008980999E8
:1062C00000F095FE0890099100226F4B00F018FF36
:1062D00000282ED00136300000F026FF02000B000F
:1062E0000A980B9900F0FCFE002801D00135002629
:1062F000002F2CD1280000F01BFF02000B001E987D
:106300001F9900F074FE06000F0000225E4B00F0A3
:10631000E1FE002846D100225B4B3000390000F03E
:10632000EFFE00283ED1EB073CD501353AE00627C9
:1063300046E70022544B0898099900F0CBFE00284C
:10634000D6D1002E01D0F307D2D50136D0E7AA4628
:106350001F2C11D8013F0A21300000F005FC651CFC
:1063600030310CAB19550A21300000F0FDFB092E2D
:106370000ED906002C00EBE755461F2C0CD87B1ECF
:10638000002F09D00CAA302111551F000134F4E769
:106390002B0055461C00F0E71F2C03D80CAB2E2217
:1063A0001A5501341F2C10D80A21280000F0B4FB24
:1063B000661C30310CAB19550A21280000F0ACFBEB
:1063C000051E01D03400EDE734000323229A134068
:1063D000012B1CD01F2C06D84346002B32D00CAB0F
:1063E0002D221A550134229B0393219B0293019481
:1063F0000CAB00934B465A4607990698FFF7C8FA2C
:1064000015B0F0BCBB46B246A946A046F0BD219BE4
:10641000002B13D04346002B02D10C3313420FD074
:10642000219B013B2193190003E00CAB30221A554C
:1064300001348C42CED21F2CF7D9CBE72199F8E753
:106440002199F6E7229B5B0704D50CAB2B221A554A
:106450000134C8E7229B1B07C5D50CAB20221A5577
:106460000134C0E7FFFFEFFFFFFFEF7F65CDCD41B8
:1064700065CDCDC1BCB70010C0B70010B0B70010DB
:10648000B8B7001068B900100000E03FF0B5DE4674
:1064900057464E464546E0B593B0824688469346F9
:1064A0001193002900D106E300255646119B187868
:1064B000002800D102E3252809D06C1C5B462A0085
:1064C0004146B047119B013311932500EEE701339C
:1064D0001193002720E001231F4301321192012470
:1064E00018E002231F4301321192012412E0042319
:1064F0001F430132119201240CE008231F43013293
:106500001192012406E010231F430132119201244D
:1065100000E00024002C09D0119A1378203BD9B256
:106520001029F6D88B00C449CB589F46119B1A7886
:106530001300303BDBB2092B10D92A2A13D00B945D
:10654000119B1A782E2A1ED0119A1378683BD9B263
:10655000122959D88B00B949CB589F4611A8FFF78B
:1065600005FA0B90ECE71C9B1A1D1C921B68002B74
:1065700004DB0B93119B01331193E1E702221743D4
:106580005B420B93F6E78022D20017435A1C11920C
:106590005A781300303BDBB2092B0BD92A2AD3D10E
:1065A0001C9B1A1D1C921C68002C08DB119B0133DC
:1065B0001193C9E711A8FFF7D9F90400C4E7002433
:1065C000F4E780235B003B43511C119151786C2907
:1065D00001D01F0018E0C0239B001F43023211921C
:1065E00012E080233B43511C11915178682901D05E
:1065F0001F0009E0C0231F430232119204E08023F0
:106600005B001F4301321192119B1878672816D83E
:10661000252826D30300253BDAB2422A21D893004D
:10662000874AD3589F4680239B001F430132119213
:10663000EAE780235B001F4301321192E4E77828E8
:106640000FD869280DD30200693AD2B201239340D2
:106650007C4A13420FD11A0600D507E25B0500D52C
:1066600094E16C1C5B462A004146B047119B013304
:10667000119325001AE778280AD062283AD06F28AB
:106680003BD058283CD010239F43063B9C4601E05A
:1066900010239C46582836D0692803D0642801D09E
:1066A0000C2297437A0501D50122974369282DD002
:1066B00064282BD0BA0500D5A2E0FA0500D5C3E0C6
:1066C0007A0600D4D5E01C9A111D1C911168FF2296
:1066D0000A4005970B9B049303946346029300239F
:1066E000019300925B462A0041463000FFF72FFAE3
:1066F00005002AE002239C46CCE708239C46C9E714
:1067000010239C46C6E720221743C5E7BA0520D4CC
:10671000FA0550D47A0666D51C9A111D1C91116891
:10672000FF220A40D0171118414005970B9B049394
:10673000039463460293D20F019200915B462A00B4
:1067400041463000FFF703FA0500119B0133119316
:10675000ACE61C9A073207218A43110008311C91CC
:10676000116853689946DB170C930D930C9A0D9B97
:10677000100048400E904A4653400F930E980F99D0
:106780000C9A0D9B801A99410E900F9108970B9BC4
:106790000793069463460493002305934B46DA0F50
:1067A0000292009001915B462A0041463000FFF7BB
:1067B0002CFA0500C9E71C9A111D1C911268D0170C
:1067C0001118414005970B9B049303946346029371
:1067D000D20F019200915B462A0041463000FFF73C
:1067E000B6F90500B1E73A0605D51C9A111D1C91B2
:1067F0000023D25E96E71C9A111D1C91126891E746
:106800001C9A073207218A43110008311C9108970E
:106810000B9B07930694634604930023059302930E
:1068200053681268009201935B462A00414630008B
:10683000FFF7EBF9050088E7C8B700100CB80010A7
:1068400058B80010419000001C9A111D1C9105972A
:106850000B9B0493039463460293002301931368F4
:1068600000935B462A0041463000FFF770F90500AF
:106870006BE73A0606D51C9A111D1C91126812048A
:10688000120C26E71C9A111D1C91126821E746285C
:1068900019D01C9B0733072293431A0008321C921D
:1068A00004970B9A039202941A685B680092019312
:1068B0005B462A0041463000FFF73EFC0500119B75
:1068C00001331193F2E520231F43E2E7672801D04B
:1068D000472802D180231B011F43452801D04728A8
:1068E00001D120231F431C9B0733072293431A0027
:1068F00008321C9204970B9A039202941A685B6800
:10690000009201935B462A0041463000FFF704FAEB
:106910000500119B01331193C8E502231A003A4088
:1069200091463B421DD001241C9B1A1D1C926F1CDA
:1069300018785B462A004146B0474B46002B14D1DD
:10694000119B013311933D00B0E5571C5B46414656
:106950002020B04723003A005C1C9D42F5D815006A
:10696000E2E701232A000B9DF6E73A00B1460B9EB1
:1069700006E0571C5B4641462020C8472C003A00E1
:10698000651CA642F5D817004E46D9E71C9B1A1D78
:106990001C921B689A46002C25D101225242534674
:1069A00001E001330A001978002902D0511E002AA3
:1069B000F7D152469B1A8022D200390011408946F5
:1069C000174202D0A34200D923000222110039400D
:1069D00010913A4209D02A00250057469A463300C2
:1069E0004E46994621E02200D9E72A004546A046B6
:1069F00006E0541C5B4629002020B0473B002200E3
:106A00005F1C0B999942F4D84446A8463B002500E8
:106A100057469A4633004E46994606E01D00013718
:106A2000541C5B464146C84722003878002804D0F1
:106A3000002EF4D06B1E002DF0D1150053464E46AB
:106A4000109A002A03D1119B013311932EE50B9F5D
:106A50002A0006E0551C5B4641462020B047230033
:106A60002A005C1C9F42F5D81500ECE721233B432C
:106A70001C9A111D1C91126805930823049303941A
:106A8000083302930023019300925B462A0041469B
:106A90003000FFF75CF80500119B0133119305E509
:106AA0006C1C5B462A0041462520B047119B0133F0
:106AB00011932500FAE40B4B9A46F5E4B2465D4586
:106AC0000DD35B465A1E5B4641460020D047280046
:106AD00013B0F0BCBB46B246A946A046F0BD2A00A2
