+Beepy firmware 3.2
:020000041000EA
:1010000000B50C4B00219960042159610A4919600F
:101010000A490B480160002159600121996001BC17
:10102000002800D0004707480749086003C880F33C
:10103000088808470000001800031F00180200037A
:10104000F40000180001001008ED00E000000000AE
:101050000000000000000000000000000000000090
:101060000000000000000000000000000000000080
:101070000000000000000000000000000000000070
:101080000000000000000000000000000000000060
:101090000000000000000000000000000000000050
:1010A0000000000000000000000000000000000040
:1010B0000000000000000000000000000000000030
:1010C0000000000000000000000000000000000020
:1010D0000000000000000000000000000000000010
:1010E0000000000000000000000000000000000000
:1010F0000000000000000000000000002CEC210DAA
:1011000000200420F7110010C3110010C5110010B9
:10111000C1110010C1110010C1110010C111001047
:10112000C1110010C1110010C1110010C711001031
:10113000C1110010C1110010C9110010CB11001015
:10114000CD110010CD110010CD110010CD110010E7
:10115000CD110010CD110010CD110010CD110010D7
:10116000CD110010CD110010CD110010CD110010C7
:10117000CD110010CD110010CD110010CD110010B7
:10118000CD110010CD110010CD110010CD110010A7
:10119000CD110010CD110010CD110010CD11001097
:1011A000CD110010CD110010CD110010CD11001087
:1011B000CD110010CD110010CD110010CD11001077
:1011C00000BE00BE00BE00BE00BE00BE00F04BF878
:1011D000103800BEF2EB8871F8890010208A0010E8
:1011E0003412001090A31AE700202149086006C8B5
:1011F00081F3088810471F48006800282FD10DA4EC
:101200000ECC002902D000F012F8F9E71A491B4A67
:10121000002000E001C19142FCD1194988471949D9
:1012200088471949884700BEFDE701C901C29A42B3
:10123000FBD37047208A0010C0000020E00400208B
:101240004C8E001000000420000004204C8E001082
:1012500000100420001004200000000070470B481C
:1012600003F000FD0047EFF30580C0B270470000B7
:1012700008ED00E0000000D0F0040020F819012083
:10128000214D0010D51B0010154E001057560000C0
:1012900006005250ABB360536088001006005250F5
:1012A000861C030270880010060052505422A29D32
:1012B0007C88001005005250DE65F4684C8E0010EA
:1012C000F8B5C0460448054B10B5834203D0044B23
:1012D000002B00D0984710BDE0040020E00400205F
:1012E0000000000006480749091A8910CB0F591859
:1012F00010B5491003D0044B002B00D0984710BD07
:10130000E0040020E00400200000000010B5074CBD
:101310002378002B09D1FFF7D5FF054B002B02D016
:10132000044800E000BF0123237010BDF005002039
:101330000000000060840010054B10B5002B03D0A6
:101340000449054800E000BFFFF7CCFF10BDC046D0
:1013500000000000F40500206084001010B5052096
:1013600000F0E4FD044BC0051B685840000C034B23
:101370000004186010BDC0465C0005405C100540CC
:1013800010B50421192001F099FE00220A4B052016
:101390001A659A65DA65094A1A6610225A650F3A83
:1013A0001A6500F0C3FD064BC0051B685840000CD1
:1013B000044B0004186010BD00000540FFFF000052
:1013C0005C0005405C1005403E23014AD05C70473C
:1013D00014110120F0B583B06B463E260B4C98806B
:1013E000A55D1E2D10D840276A46E05D9288430017
:1013F00001301A53C0B21F2103F07CFD01200135DA
:10140000E155A55503B0F0BD0020FBE71411012004
:10141000F0B5CE46474680B585B06B4686B29E8114
:101420003E23144C9946E35C1F2198464023E55C1B
:10143000681CC0B203F05EFD4346CFB26D001E2BA8
:101440000DD86B469B894A46635343460133A354E8
:101450004023E75405B00CBC90469946F0BD665356
:101460003F25605D1F210130C0B203F043FD61558F
:10147000EEE7C04614110120F0B5C6463E2700B580
:10148000114C82B0E55D002D1AD03F236A46984684
:10149000E05C1F2143001B5B01301380C0B21E1CA7
:1014A00003F028FD4346013DE15401ABE5551E80A4
:1014B00018785B781B02184302B004BC9046F0BD5C
:1014C00001AB1D80F4E7C0461411012010B50400E3
:1014D000152001F099FE012C0ED000220C211520C0
:1014E00001F01CFED02380221B0692035A620121C8
:1014F0000B2000F039FD10BD01210C2000F022FD71
:10150000002813D100220021152001F0EFFDD02387
:1015100080221B0692039A620C210122152001F001
:10152000FDFD01210B2000F017FDE4E701210D2056
:1015300000F008FD014B9B6DE9E7C04600C001408B
:1015400010B5152800D010BD094B1C68002CFAD02E
:1015500023680021152098476468002CF3D0236885
:101560000021152098476468002CF1D1EBE7C046B4
:101570005811012010B504000B2000F0D7FC012306
:101580006040034200D110BD23401800FFF79EFFCA
:10159000F9E7C046F8B507000C200E0000F0C6FCC5
:1015A00004000D2000F0C2FC050039000C207C4036
:1015B000754000F0C1FC2C4331000D2000F0BCFC54
:1015C000E30705D501210B2000F0BCFCFFF77EFFEF
:1015D000F8BDC04610B5012104000B2000F0B2FC9C
:1015E000002806D1E30705D5D02380221B069203ED
:1015F0005A6110BDD02380221B0692039A61F8E73E
:10160000D0231B0658688002C00F7047064B1A682B
:10161000002A01D105E01A005368002BFBD150606D
:1016200070471860FCE7C0465811012010B50B2028
:1016300000F07CFCC30700D510BD0120FFF746FF7A
:10164000FAE7C04610B5184C23681A68D36A002B15
:1016500015D0590600D5516D0421194010D02079BC
:1016600000281DD11369D8B220711B0607D46179F7
:101670002300A21D083300F0F9FA0023237110BDE6
:101680009B06FCD5207A002808D0536F102BFCD085
:1016900063189B79013113618842F6D8136DEEE728
:1016A0001169C9B26171E3E75C110120054B10B506
:1016B00012201C6800F03AFC01210200200003F017
:1016C0004DF910BD5C11012070B51948194C1A492B
:1016D000206003F0BFF81220256800F027FC0121EC
:1016E0000200280003F03AF903211C2001F0E6FC77
:1016F000002201211C2001F0F9FC03211D2001F032
:10170000DDFC002201211D2001F0F0FC6422246890
:101710000A4923681A630A4BE41A63425C4117348E
:10172000200001F0B1FD0121200001F08BFD70BD12
:101730005C0400205C110120A08601004516001009
:101740006404002070B501252C008C40E4B2210017
:101750000F2000F0F7FB002810D02021032000F01C
:10176000FBFB2100D0241020240600F0F5FBA5612E
:10177000132000F0DBFB02F02DFB656170BDC0465D
:1017800070B50121142000F0DDFB00280DD0D0241D
:10179000012540210320240600F0DEFBA561132073
:1017A00000F0C4FB02F016FB656170BD70B510213E
:1017B000022000F0C7FB00280DD0D024012508210D
:1017C0000320240600F0C8FBA561132000F0AEFB47
:1017D00002F000FB656170BD70B5D02401252406C0
:1017E000002001F011FD002201216562002001F0BE
:1017F0007DFC6561044800F06BF9044800F0B4FC1E
:101800000348FFF703FF70BDA0030020A8030020DA
:10181000980300200F2370B582B001AA1070050054
:1018200050780E00034009010B4353700198FFF7F5
:10183000D1FD00280CD0114B1C68002C06D0236869
:101840003100280098476468002CF8D102B070BDC0
:101850000221023000F076FB002809D1012102208C
:1018600000F070FB0028E6D00198FFF7D1FDE2E719
:101870000121032000F070FBF0E7C0466811012051
:10188000F0B5DE46454657464E460123E0B59B4639
:10189000834B85B0013B0293D0231B069846814BB6
:1018A000013B03935A46029B01219B5C00221800D6
:1018B0001C00019301F01AFC01231A004346A240C8
:1018C0009A615A62039B784C5B441E00774B9246A8
:1018D0005D1E23000733994601275D444346307857
:1018E000596800280DD023782A78D9403B008B43D3
:1018F00039400139B9432B700331934201D0FFF7CE
:1019000089FF0134063606354C45E7D14346524639
:1019100000215A610198002201F0E8FB434652463B
:101920009A6201239C46E3445B46072BBAD14346A7
:101930005F4D5B686E78DB06DC0F052E17D85D4ABD
:10194000B300D3589F46002C25D169788E420ED023
:1019500002230A009A43012A20D0042907D1012139
:101960006620FFF757FF03216620FFF753FF07208C
:1019700000F0DCFA83051B1A9B011B185B0018188A
:10198000C000C11705B03CBC90469946A246AB4684
:10199000F0BD002C4AD0032303216B707820FFF7A1
:1019A00039FFE4E7002CE2D0F5E7002CDFD101237A
:1019B0006B7002F0D3F900294FD0FA220023920075
:1019C00003F0DAFA68606978C0E702F0C7F9002925
:1019D00027D0FA220023920003F0CEFA6B68C71AD0
:1019E000112000F0A3FA83001B185B009F42AAD9C4
:1019F00002236B70BBE7002CCDD102F0AFF90029B8
:101A000040D0FA220023920003F0B6FA6B68C01AA5
:101A1000294B984226D904236B70A0E700236B70F2
:101A2000A5E7FA21890003F065FAD7E72D2000F039
:101A30007DFA002800D188E7252000F077FA4301DD
:101A40001B1A9B001C4A1B18DB00100093421EDC73
:101A500000F016FE05236B7089E7FA21890003F078
:101A600049FAAFE72B78662B00D06EE72D2000F007
:101A70005DFA002800D068E7022000F0A1FE0523EF
:101A80006B7074E7FA21890003F034FABEE7252071
:101A900000F04CFA43011B1A9B001818C000D7E74E
:101AA0007884001080840010AC840010C4100120E1
:101AB0000C110120608400108813000010B5012172
:101AC0006620FFF7A7FE03216620FFF7A3FE10BDE7
:101AD000064B1A68002A01D105E01A005368002B52
:101AE000FBD1506070471860FCE7C04668110120C8
:101AF000F0B5C646D02600B52D4C84B0E71D36069D
:101B000025780134280001F07FFB00220121280004
:101B100001F0ECFA0123AB40B362A742F0D1254CAF
:101B2000D026A31D984601273606257801342800C3
:101B300001F06AFB3B00AB40B3624445F5D10420A1
:101B400001F062FB01210022042001F0CFFA1023F2
:101B50006622B362184B07201A8000F0E7F90700ED
:101B600001F0E4FE060002F0F9F8FA2204000D008C
:101B7000920000233800002103F070FC02000B00EB
:101B800012196B419D420FD80CD001210291002106
:101B900001910A493000009101F0CCFE04B004BC70
:101BA0009046F0BD9442F0D901225242D317ECE79F
:101BB000AC840010788400100C11012081180010F2
:101BC00070B50D00040000F02BFA29002000FFF78B
:101BD000B7FC70BD10B500F05FFC02F0B1FF00F083
:101BE000CBF9FFF7CDFBFFF721FDFFF781FF00F0F9
:101BF000CBFAFFF7F1FDFFF767FDFF20064B01224F
:101C0000002101F0B3FA00F001FE00F0E3FC012036
:101C100000F0D6FD20BFFDE7C11B0010152210B556
:101C20000F4B9A561018162204009A56511880220B
:101C3000803403DB021C7F280BDCD2B208005A750B
:101C40008022803003DB0A1C7F2905DCD2B29A7522
:101C500010BD7F22D2B2F1E77F22D2B2F7E7C046B1
:101C60006C11012010B500F06FFF10BDF0B51C0025
:101C70007F230E0041B21840002387B01500237067
:101C8000432837D8A04A8300D3589F4630239F4C1F
:101C9000E054FFF713FF2523E05C9D4B4401241A19
:101CA000A4002418E4009C4200DA1C00200000F08C
:101CB000E7FC01F03BFE050002F050F8FA220600B6
:101CC00020000F00920000230A30002103F0C6FB21
:101CD00002000B0092197B419F4200D910E100D114
:101CE0000BE101210291002101918A492800009114
:101CF00001F020FE07B0F0BD002900DADEE043234A
:101D0000824AD35C2B7001232370FFF779FC0123F7
:101D100028702370EEE732232B70313B2370E9E704
:101D20007A4B002900DAA3E01B5C2B70012323709F
:101D3000E0E7FFF749FB012328702370DAE7734BD4
:101D40000029F1DA1E5400F0C7FCD3E72D226F4BB7
:101D50009A5C002ACED0704A564325229A5C6C4B7E
:101D60005401A41AA400A418E4009C4200DA1C0048
:101D7000674BE318B342BDD8FFF7A0FE200000F088
:101D80007FFC300000F050FCB4E700296ADA5F4BBA
:101D90001E54AFE72625282329222A212B205B4C1D
:101DA000655DE35CA25C615C205C01952725645D58
:101DB000009400F067FD9DE72E23544AD35C2B70FE
:101DC0000123237096E7002969DB30234F4AD35C57
:101DD0002B70012323708DE7002900DB8AE7402365
:101DE0004A4AD65486E74023484AD05C00294ADB59
:101DF00000F0E8F80123287023707BE7002984DADB
:101E00003000FFF7E7FB75E7404B1A5C2A700122B0
:101E1000227000221A546DE7042280213F4B4900B2
:101E20001A603F4A13680B42FCD053682B709BB278
:101E30001B0A6B70022323705CE7344A20230029BD
:101E4000BCDAD65400F048FC54E7FFF715FB030456
:101E50001B0E6B700223287023704BE7002916DBE2
:101E60002A4B61E700F05AFD01232870237041E7F7
:101E70001E540A2804D0122830D0052800D039E793
:101E8000FFF76CFA36E7310000F0B8F832E70C28BB
:101E90002DD00D2825D03000FFF76CFB2AE730004D
:101EA00000F0D6FD002800D1F0E60123002801DA79
:101EB0004042C3B2302215498B541BE7300000F07A
:101EC000EDF94323114AD6549AE7BFF34F8F154BD0
:101ED000154ADA60BFF34F8FC046FDE7FFF7E6FB18
:101EE00008E70A4B3100187BFFF754FB02E7074B6A
:101EF0003000597BFFF74EFBFCE6964200D8F0E637
:101F000001225242D317ECE6B48400106C11012078
:101F100088130000651C001060EA000000E0044027
:101F200000C0044000ED00E00400FA05014B185C1D
:101F30007047C0466C110120014B19547047C046D0
:101F40006C110120034B185C0840411E8841C0B24F
:101F50007047C0466C110120024B1A5C11431954A2
:101F60007047C0466C110120024A135C8B43135426
:101F70007047C0466C11012092220F4B10B59A7029
:101F80006D325A719A725A739B3A5A7420220B49D5
:101F9000FF32D98000215A82193AFF3A1A75263247
:101FA0009954083A1E31995405481D320E399954F6
:101FB00000F0DAF810BDC0466C1101200A0A0000DA
:101FC000B00300200F22012330B587B06A440A4DC8
:101FD000107000933B216868172402F0DDFC002399
:101FE0006C446868220000933B21013302F03EFDFF
:101FF000207807B030BDC046B011012000B5074BB6
:1020000085B003AA107058680023517000933B21DB
:10201000023302F0C1FC05B000BDC046B011012082
:10202000F0B5CE46474680B585B0162802D10427C4
:102030000F4204D105B00CBC90469946F0BD0E2568
:1020400002236D442B70474C013B00932A003B2137
:102050006068984602F0A0FC00230F220093994686
:102060006A4401333B21606802F000FD6B46102694
:10207000DB7B1E4051D15BB2002BDBDA03232B70DC
:10208000434600932A0001233B21606802F084FC50
:102090000F22009601236A443B21606802F0E6FCAF
:1020A0006B46DB7B2F709946434600932A00012341
:1020B0003B21606802F070FC0F22009601236A4405
:1020C0003B21606802F0D2FC6B46DF7B05232B705E
:1020D000434600932A0001233B21606802F05CFC28
:1020E0000F22009601236A443B21606802F0BEFC87
:1020F0006B464220DD7BFFF719FFA8429AD824687F
:10210000002C97D04B467FB25DB22368390028007F
:1021100098476468002CF8D18CE703232B70434662
:1021200000932A003B21606802F036FC4B460F22E8
:1021300000936A4401333B21606802F097FC4346F8
:102140002F7000932A003B21606802F025FC4B466B
:102150000F2260686A4400933B21013302F086FC41
:1021600068E7C046B0110120064B1A68002A01D169
:1021700005E01A005368002BFBD1506070471860CF
:10218000FCE7C046B0110120F0B5CE46474680B509
:102190003F4D404885B04049686002F05BFB032139
:1021A000122000F08BFF00220121122000F09EFF80
:1021B0000321172000F082FF00220121172000F0E8
:1021C00095FF182001F020F8D024802324065B041A
:1021D00063621620A36101F017F880238026DB03D9
:1021E000A36201220421162000F098FF760210203D
:1021F00001F00AF866626420A66101F003FD77230E
:102200000B276661002698466F443B70763B00932F
:102210003A003B21686803AC994602F0BDFB00968A
:10222000220001233B21686802F020FC424623780B
:1022300022702022134363700096220002233B2168
:10224000686802F0A9FB1A233B7098464B4600933E
:102250003A003B21686802F09FFB009622000123B0
:102260003B21686802F002FC424623782270133A50
:10227000934303221343637068680223009622008D
:102280003B2102F089FB05B00CBC90469946F0BD9D
:10229000B011012064040020A0860100F0B5C646FC
:1022A0000B221A270123002600B584B0114D6A4481
:1022B0001770009380463B21686802F06DFB03AC09
:1022C0000096220001233B21686802F0CFFB072320
:1022D000207822009843434618436070277068684E
:1022E000022300963B2102F057FB04B004BC904649
:1022F000F0BDC046B011012010B51F2000F0B4FFA2
:10230000FA200021800010BD10B5074C00212000EC
:1023100006F086F8002800D110BD03F0C9FF2000A8
:1023200006F05EF8F8E7C046B811012030B50400A9
:1023300085B001200D0005F0BBF9002801D105B0E2
:1023400030BD04211420FFF7FDFD0028F7D0012245
:10235000064B00211A725A7A0023009502930193CA
:102360000120230005F00CFAE9E7C046B81101206E
:1023700030B5050087B000200C0005F099F9002861
:1023800006D1012005F094F9002817D107B030BD1F
:1023900002211420FFF7D6FD0028F2D006220021EA
:1023A00004A803F0C7F8012C22D0022CE9D004AB1A
:1023B00000220021002005F099F9E2E70421142011
:1023C000FFF7C0FD0028E1D0652DDFD1012C12D030
:1023D000022C1ED0032CD9D10023154A00215372A0
:1023E0000120029301930093002205F0C9F9CDE783
:1023F0006B461D74DBE780220D4B52001A810023CF
:10240000FF3A0293019300930021012005F0B8F9EF
:10241000BCE7074A137A002BB8D15472002102930B
:10242000019300930222012005F0AAF9AEE7C0460D
:10243000B8110120002070477047C04670B50500F4
:1024400090B040220021684603F074F869464022AB
:10245000280005F0BFFB094C6A46260023000A3617
:102460000C33517810783200FFF700FC227B3100EA
:10247000280005F0D9FB10B070BDC046B81101208E
:1024800010B50220FFF752FD40210143C9B20220DE
:10249000FFF752FD10BDC04610B584B005F0DCFC5E
:1024A0001748FFF715FB1748FFF75EFE16491F2078
:1024B00000F0EAFE01211F2000F0C4FE134802F0E4
:1024C000E3F801F033FA040001F048FCFA2200239B
:1024D000920012184B4199420DD80AD00121029165
:1024E000002101910A492000009101F023FA04B073
:1024F00010BD9042F2D901225242D317EEE7C046F6
:10250000B8030020C003002009230010B8110120E7
:10251000F92200100048704764860010031E05D0A1
:102520000020012B00D070470148FCE70148FAE782
:10253000BC8600107886001000487047D0850010D7
:1025400070B5002821D007282BD8184B8000C5581B
:10255000280005F00FFFC0B2011C1F2813D8C9B214
:10256000002820D000231248821CEC5C0133148028
:10257000DCB20232A142F8D8C023013149009B00ED
:102580001943018070BD1F21E9E7C123084C9B005E
:102590002380064BA01C1968022202F0D1FF200004
:1025A000F0E70020EEE70248E6E7C046C803002057
:1025B000E0110120064B1A78002A06D0D022802193
:1025C00012060902916100221A7000200021704752
:1025D0002F17012010B502F097FA1F211A2000F0E2
:1025E0006DFD002200211A2000F080FD00211A203C
:1025F00000F0F6FDE022094BD2011B680F201340CA
:10260000074A136000F000FED02380221B0612024E
:102610005A629A610022034B1A7010BD00C0044038
:1026200000D004402F170120F0B585B0070001F05D
:102630007DF9060001F092FBFA2204000D009200E1
:1026400000233800002102F009FF02000B001219DC
:102650006B419D420DD80AD00121029100210191C8
:1026600006493000009101F065F905B0F0BD9442D3
:10267000F2D901225242D317EEE7C04635280010A6
:10268000F0B585B0070001F051F9060001F066FBD6
:10269000FA2204000D00920000233800002102F00D
:1026A000DDFE02000B0012196B419D420DD80AD0CD
:1026B000012102910021019106493000009101F0B1
:1026C00039F905B0F0BD9442F2D901225242D31734
:1026D000EEE7C046B525001070B52120FFF726FCB7
:1026E00006002220FFF722FC04002320FFF71EFC37
:1026F00005002020FFF71AFC254B002826D11B6877
:10270000244ADB431B041B0C1360234B234A1B6826
:10271000DB431B0C1B041360214B224A1B68DB4369
:102720001B0C1B041360204B1A68012319009143F2
:102730001E4A116019001E4A126891431D4A116019
:102740001D4A126893431D4A136070BD1A68FF2327
:102750009E1B31027618564036040E4A360C16601F
:102760001C1B0D4A21021268641824045440240CD6
:102770000A4A240414605B1B094A190212685B1898
:102780001B0453401B0C074A1B041360CBE7C046D5
:10279000340005403410054020000540201005405D
:1027A0000C0005400C10054028000540281005408D
:1027B00014000540141005400000054000100540BD
:1027C000114B10B51A780400012A1CD0D0228021A8
:1027D0001206090251610122012120201A70FFF71F
:1027E000ABFB00212120FFF7A7FB80212220FFF770
:1027F000A3FB00212320FFF79FFBFFF76DFF2100C4
:102800002E20FFF799FB10BD2F17012010B50421D2
:10281000142000F053FC0421132000F04FFC04218D
:10282000112000F04BFC00212020FFF785FBFFF773
:1028300053FF10BD124B10B51A78012A1CD0D022BC
:1028400080211206090251610122012120201A7003
:10285000FFF772FB00212120FFF76EFB8021222071
:10286000FFF76AFB00212320FFF766FBFFF734FF29
:1028700003212E20FFF760FB0020002110BDC04681
:102880002F170120F0B5244E83B086196846150035
:1028900008AA14788170093184710C0009AA127891
:1028A0004371C2710680C5700C21200002F0FAFA53
:1028B0000C21471E200002F0F5FABF190E0064211A
:1028C000FB00DB19DB00DB199C001C194942BB1023
:1028D0003800E41802F0E6FAC8212418490038004C
:1028E00002F0E0FA24183001801B40002418700028
:1028F000801940000A21053002F0D4FA201840194E
:102900000130072102F0CEFA6B466846197102F0D9
:1029100033F903B0F0BDC0466C07000010B50400E9
:1029200082B06846263C02F07BF9E0B2052818D850
:102930000D4B80001B589F466B46987802B010BD27
:102940006B4618886C38C0B2F8E76B46D879F5E763
:102950006B469879F2E76B465879EFE76B46D87883
:10296000ECE70020EAE7C04674870010F0B5354C6C
:10297000C3B02378002B04D11FE001342378002B4F
:102980001BD03A2BF9D16178601C002915D0A678AC
:10299000002E12D02C4B6D469C4620236444002709
:1029A0009C460B00303BDBB2092B0CD96346194324
:1029B000C9B20B00613B192B03D90620404243B03A
:1029C000F0BD5739CBB23200303AD2B2092A18D909
:1029D00062461643F2B2110061391929EDD8573A0F
:1029E000190111430230CAB20178BF182A70FFB230
:1029F000002910D0A0420ED046780135002ED0D14B
:102A0000DBE71B011A430230D2B20178BF182A70EB
:102A1000FFB20029EED1002F11D16B460B481A7876
:102A2000027059789B7809020B4343806B46DB7830
:102A300001A90371053002F083FD0020BFE70720E4
:102A40004042BCE7201201200B02000024160120A6
:102A500070B52B2827D0354A13780A2811D00D28B5
:102A60000FD0002B3DD18022314CD20023689342FD
:102A700059D0304D5A1C2260E85400280DD0012056
:102A800070BD002B2FD18021294CC90022688A42B9
:102A900049D0284D511C2160AB542B78002B0ED10E
:102AA00023600120ECE70023214A2A381360214AE1
:102AB0001370214A136001221C4B1A70E0E7FFF7E4
:102AC00055FF0028DCDB00221C4922602A700B79AC
:102AD000012B0CD0002B13D0042BD0D1164B1A6035
:102AE000CDE70028CBD1002301201370C8E7124B9B
:102AF0001868431E98414342042018400438BFE739
:102B00000D4D0E782C680E4B20001030C01805318A
:102B1000320002F015FD0B4BA4192C609C42AED97B
:102B200005204042ACE703204042A9E731170120CD
:102B30002016012020120120C00C012024160120A3
:102B4000B00C0020FFFF00002E4BF0B51E681023D4
:102B5000C64698462C4C2D4A2D4B00B5F1182260E4
:102B60002C4A090BB04409036260A660002E46D0CF
:102B700001202700284BA61940423A7C1206424009
:102B80005500002A00DA5D406800002D00DA584048
:102B90004200002800DA5A405000002A00DA58406B
:102BA0004200002800DA5A405000002A00DA58405B
:102BB0004200002800DA5A405000002A00DA58404B
:102BC0000137BE42D9D1E060EFF3108672B68020A3
:102BD000800205F02DFC802042462100800205F095
:102BE0000FFC86F310880D4B084A0021DA600C4A6E
:102BF00000201A61FA22920001F0CCFDFEE70120CC
:102C00004042E0E7C00C0120B00C0020FB5ECD8EFE
:102C10000F100000A952AEC5B71DC10400800540C9
:102C20000000021010B5052000F066F9014B186095
:102C300010BDC0463417012030B50C2083B001F020
:102C4000A1FD00F0CFF900280ED0944B944A1A60F1
:102C50005A609A60DA601A615A619A61DA611A629E
:102C6000904A5A6203B030BD8F4CA06701F0DEFD80
:102C700001228E4B1A60636C012BFCD103228C4B1A
:102C80001A60894A936B012BFCD102240533894ACF
:102C900001218948009401F023FD0523874A00940F
:102CA0000121874801F01CFD864B5A68FF2A02D893
:102CB000802252005A608022784C7D4B216912019B
:102CC000804D1A60002905D0606902F013F90130C7
:102CD0000138FDD1E0217B4B02201A68114080228F
:102CE00052012A43116019684840032101401160D4
:102CF00004219A681142FCD08022802192012A434B
:102D000009011160802252005A606F4B23616F4BA2
:102D10005968FF2900D85A6003226C48634B01218F
:102D20001A60020093681942FCD0E02513681D4028
:102D300080235B0103431D6012684A400321114058
:102D400019600221614A93681942FCD080238021D6
:102D50009B0103430901196080215D4B49005160CB
:102D600063615C4B5A68FF2A00D8596080225A4B35
:102D7000E1691201574D1A60002905D0606902F01F
:102D8000B9F801300138FDD1E02252490B681A40F0
:102D900080235B012B431A60802380229B012B43FD
:102DA00012011A6080223E4B52004A60E3614B4B95
:102DB0005968FF2900D85A608022494B216A1201C4
:102DC000464D1A60002905D0606902F093F8013081
:102DD0000138FDD1E02241490B681A4080235B0194
:102DE0002B431A60802380229B012B4312011A601F
:102DF00080235B004B602A4B3A4A23623A4B596866
:102E0000914201D801325A608022384B616A120126
:102E1000354D1A60002905D0606902F06BF8013069
:102E20000138FDD1E02230490B681A4080235B0154
:102E30002B431A60802380229B012B4312011A60CE
:102E40008023DB024B60174B6362294B5A68FF2AD1
:102E500002D8802252005A608022264BA1691201BA
:102E6000234D1A60002905D0606902F043F8013053
:102E70000138FDD1E0221E490B681A4080235B0116
:102E80002B431A60802380229B012B4312011A607E
:102E900080235B004B600E4BA361E3E6400C0020F7
:102EA000006CDC021BB70000008000403CB000401A
:102EB00030B00040002F68590080024000389C1C50
:102EC00000C0024030800040001BB7003C80004042
:102ED000405973075480004054B000406080004067
:102EE00060B00040FFFF03006C8000406CB0004009
:102EF0004880004048B00040014B8000C0587047F7
:102F0000400C0020F8B5EFF3108772B60D4E336811
:102F1000002BFCD0BFF35F8F0725CB08C01801231F
:102F20000D40AB401D000478254007D123430370BA
:102F3000BFF35F8F356087F31088F8BD100001F094
:102F40006BFFC0462C0100D0F8B5CE4647468C46F4
:102F500080B5EFF3108872B6214D2C68002CFCD0A0
:102F6000BFF35F8F9A422CD80721012511408D4075
:102F7000D4080419267835421FD00721894606391E
:102F800009E04D460F001540AF40D40804192678DB
:102F90003D00374211D001329342F2D2012040422B
:102FA000BFF35F8F00220E4B1A6088F31088002851
:102FB0000FDB0CBC90469946F8BD354325701000D8
:102FC000EEE7BFF35F8F00232B6088F310880120AA
:102FD00040426346002BECD0089801F01DFFC0462C
:102FE0002C0100D0024B18688007C00F7047C04604
:102FF00000C006400021044B044ABFF35F8F02C3A8
:103000009342FAD17047C046000100D0800100D041
:10301000044A1078431CDBB2172B00D9102313701D
:103020007047C046E803002000B5054B83B001009F
:10303000009318221F230348FFF786FF03B000BD4B
:103040008C8700103C0C0020D0231B06F0B51D68B7
:10305000C6466B1E9D416B4230251D40144B00241B
:103060009C46144B07270F26984600B56544E20896
:10307000130008339B0059593B0023409B00D94063
:1030800031400FD0080098403C320B4B9200D0509A
:10309000D02342461B061B689B009B58002B01D087
:1030A0002000984701341E2CE1D104BC9046F0BDAD
:1030B000004101401006002000400140094A830001
:1030C00094464022634410B51C68C0006240C0248E
:1030D00014408022520113431C60034B9C46604401
:1030E000416010BD04C00140004001400A4B800017
:1030F0009C4604236044002901D00C230821002AA7
:1031000000D10B00026853400C221A4080235B015F
:10311000184302607047C04604C00140D0231B061C
:103120001B6830B55D1EAB410E4C5D423023A4469A
:1031300007242B40C50804402800A400A1403C30CF
:10314000094C63448000AD0001515B19002A04D092
:10315000802292011343196030BDC02292011343B3
:103160001960F9E7004101400040014070B5D024EA
:1031700024062468C608651EAC41302564422C40F4
:10318000134DAC46072505403000AD00A9403C304A
:10319000104D64448000B6004151A419002A12D099
:1031A0008022920114432160D022120612680A493B
:1031B000920053500D20094900F066F801210D20BE
:1031C00000F040F870BDC022920114432160EBE78B
:1031D000004101400040014010060020493000102D
:1031E000084B80009C466044002905D080239B0149
:1031F0001843402303607047C0239B0118434023BA
:103200000360F8E704C001400123D0228340120686
:1032100093629361094A830094464022634419688B
:10322000C0004A40C021114080225201134319605E
:10323000034B9C46052360444360704704C0014033
:103240000040014001238340002904D0034A136059
:10325000034A13607047034A1360FBE780E200E013
:1032600000E100E080E100E001238340014A1360B7
:103270007047C04600E200E0024B10309B688000BF
:10328000C058704700ED00E070B50D00EFF31086F8
:1032900072B60F4A1368002BFCD0BFF35F8F0D4B43
:1032A00010309B6884001B590B4A934203D09D4207
:1032B00001D001F0C9FD074B9B681D51BFF35F8F23
:1032C000BFF35F8F0022024B1A6086F3108870BD37
:1032D000240100D000ED00E0CD110010F0B545460E
:1032E000DE4657464E46E0B50D0083B0EFF3108A38
:1032F00072B65C4A1368002BFCD0BFF35F8F1022BC
:10330000914681444A46584B96009B689C59574BBE
:1033100098469C4205D0AC4216D0554FE31B2F2B4C
:1033200014D9514B9B689C51BFF35F8FBFF35F8FE4
:1033300000224C4B1A608AF3108803B03CBC9046C4
:103340009946A246AB46F0BD1C00EAE70123834044
:103350009B465A46474B1B681A4000925A46464BBA
:103360001A60BFF35F8FFDF77EFF0190002803D046
:10337000814501D001F068FD012322009A433F4BB3
:1033800006209C4613006146DB1B5B415943090D37
:1033900093688C4610569D420AD14EE043001B189C
:1033A00006209B00FB1899681856A9420FD01A00F6
:1033B0000028F3DA009B002B05D05A46304B1A60E8
:1033C0002C4B1A60ADE75A462B4B1A60A9E7002830
:1033D00021DB4200111889007D188846A968996090
:1033E000E979D971062169569971002922DBAD88E6
:1033F000F91A6D052D1545444919E0250905490DB2
:103400002D022943998012181E4B9200BF181A787A
:103410001870BA71CEE70199002914D1002A1FD083
:10342000FF20907118489080164A10789871634672
:103430001370BFE7BD210902E4E713000028C8DAD2
:10344000019A002A0CD0114A1149D21A083A5002A6
:10345000400D014399800F4952080A43DA80A9E7D9
:103460004446E1E7240100D000ED00E0CD1100105A
:10347000EC03002000E100E080E100E0AAAA0000E7
:1034800080E200E02E17012000BDFFFF260400208F
:1034900000F0FFFF00F8FFFFF8B501250400054329
:1034A000FDF7E1FEEFF3108672B6214A1368002B98
:1034B000FCD0BFF35F8F1F4B1F4A2100C91A49413F
:1034C0004A43120D1D4980008F6852B23F58AF42E7
:1034D0001CD00621595691421CD0122159569142B6
:1034E00022D01E215956914220D02A21595603201C
:1034F000914210D0124B19781A70A171BFF35F8FEF
:1035000000220B4B1A6086F31088F8BD8B680D49BA
:103510001950EFE700204100091889005B18FF21CE
:10352000997109499980E5E70120F4E70220F2E763
:10353000240100D0EC030020AAAA000000ED00E066
:103540002E170120CD11001000BDFFFF054B064ACC
:103550001360064A136053609360D3601361536134
:10356000936170478080808000E400E004E400E024
:10357000024B9C4661448900016070474000003462
:1035800083680B4810B58446614462440901120106
:103590009A18591854684B6801209C4201D802D0EF
:1035A0000020C0B210BD12680B689A42F9D8F7E744
:1035B000FFFFFF0F0A4B1968EFF3108072B60A681D
:1035C000002AFCD0BFF35F8F1B68BFF35F8F002220
:1035D0001A6080F3108840BF002000217047C04669
:1035E000CC110120F8B5454657464E46DE46E0B5BB
:1035F00014000DAA12781D000CAB92461B780268CD
:1036000081469046002B13D1977B002F4AD040462D
:103610007E001268F619033E921951783B008173BF
:10362000002900D1C173002191705170117003E025
:103630001F005E00F618033E2E4A94464A469268E2
:10364000634494461B010A9A63449A600B9A1C6077
:103650005D60DA60434600221B689B199A705A70BD
:103660001A7043465B7B9B46002B2BD043463A00A7
:10367000986859465B6898475B4642465B005B44E6
:10368000033B1268002814D0D31896195A46B2701A
:103690001A78002A00D072701F705A4643465A7337
:1036A000BB4511D038003CBC90469946A246AB467B
:1036B000F8BDD31896199F703278002A00D05A703E
:1036C0005B46337043465F734B462200187D2B00E8
:1036D00000F01EFC041E07D05346002B04D14B46BD
:1036E0003900186800F092FF0E9B002BDAD01C7096
:1036F000D8E7C046FFFFFF0FF0B5DE4657464E46FF
:1037000045460023E0B58DB00A936D4B8200D45836
:1037100000239B460B9000F021FB6268EFF31085BD
:1037200072B61368002BFCD0BFF35F8F23689C46F2
:103730005B7B9946002B00D16BE0A268614B904601
:103740004B441B01984443461E685F6832003B00AF
:10375000121A8B41002B65DD3B0032000B9800F004
:10376000D7FB0023002208920993002300279A46E2
:103770006368BFF35F8F5A461A6085F3108853461B
:10378000002B08D10028C6D10DB03CBC904699460C
:10379000A246AB46F0BD0A9B390018024B461843BF
:1037A000D047626806900791EFF3108872B65646CC
:1037B00045461368002BFCD0B246A846BFF35F8F86
:1037C0000699079A131E49DB194302D02369002B7F
:1037D0005FD12368DA7B002A07D051008A18196864
:1037E0008C4649466244033A51704A46DA73E268AD
:1037F0004B469446013B63441A7801321A705B468B
:1038000023616368BFF35F8F5A461A6088F310889C
:1038100081E70023002208920993002300279A469B
:103820000020A5E7002B01D1002A95D10021604698
:1038300000F00EFE43461A685B68089209934346FF
:103840009B689A464346DF68E3684B44013B1B781C
:103850000A931B0203432361002089E72369002B9D
:10386000B7D0089D099E6D1A96412A003300089D25
:10387000099E9E4218D81BD05946049101210391FC
:10388000494602915146019700912000FFF7AAFE98
:10389000B5E700F063FA069A079B12184B4199426C
:1038A00002D8E9D19042E7D901225242D317E3E787
:1038B00008999142E0D901225242D317DCE7C04671
:1038C000FC100120FFFFFF0F10B5124C6368002BA6
:1038D00004D00A211048FFF74BFE10BD23000F4A09
:1038E0001021206800F0D6FB032000F02BFA032003
:1038F00000F082FB0A49032000F0C4FAFFF788FBBE
:10390000084B9C46032360442375074B800060608E
:10391000DC60DEE734040020CC110120813500108A
:10392000F936001040000034FC10012000487047B8
:1039300034040020F0B557464546DE464E46E0B515
:1039400085B00092019310AB1B78002703930023EE
:1039500080469A4643465A68EFF3108972B6136858
:10396000002BFCD0BFF35F8F43461D68AC7B002C5F
:103970004FD0660036192B68033E9B195A78AA73FC
:10398000002A00D1EA7342469F705F701F709268F0
:103990004E4B94460099019AE3181B016344196049
:1039A0005A600E9A9A600F9ADA602B689B199F7082
:1039B0005F701F706B7B9B46002B42D0220019006A
:1039C000A8686B6898475B465B005B44033B2A68CA
:1039D00000282DD0D31896195A46B2701A78002AAA
:1039E00000D072701C705B466B735C452AD04346F6
:1039F000DB681B19013B187843465B68BFF35F8F98
:103A00001F6089F310885346002B2AD100022043FF
:103A100007E05B68BFF35F8F1C6089F310880120AB
:103A2000404205B03CBC90469946A246AB46F0BD2C
:103A3000D31896199C703278002A00D05A705B46D1
:103A400033706C734346187D009A019B00F060FA56
:103A500082460028CBD043462100186800F0D6FDEE
:103A6000C5E7039B002B2FD00E9B0F990020984792
:103A700003000B4328D004000D1E0DDA00980199B5
:103A800002000B00121BAB41994213D818D00092D0
:103A90000193039B9A465DE700F060F924184D41BD
:103AA00023002C0000930194A94203D8F1D1009B7C
:103AB0009842EED901235B42DC1700930194E8E7BA
:103AC00000999142E3D9F5E70020AAE7FFFFFF0F35
:103AD000F8B542680400EFF3108572B61368002B46
:103AE000FCD0BFF35F8FFF232068CEB2427B0B4038
:103AF000B24208D007685A00BC46D2186244033A62
:103B00009278002A11D0E268090A94466344013B86
:103B10001B78C9B28B420ED000206368BFF35F8F61
:103B200000221A6085F31088F8BD23698B42F3D117
:103B300022610020F1E7310000F068FDEDE7C046AA
:103B4000F0B504000D0006267642F717C646361972
:103B50006F4100B584B08F4214D811D000F0FEF848
:103B600032003B00121A8B41002B15DC002B3ED09B
:103B70002000290000F076F904B004BC9046F0BDA6
:103B80008642EBD90026002700F0E8F832003B001F
:103B9000121A8B41002BE9DD002302930193154B90
:103BA0003200009314483B00FFF7C4FE0028DFDB1F
:103BB00000239846BC46114A114F7B6A9C4504D8A5
:103BC000B96AB142D4D29C45D2D11168EFF31080CA
:103BD00072B60B68002BFCD0BFF35F8F1368BFF386
:103BE0005F8F4146196080F3108820BFE5E7002A07
:103BF000BED0D1E7B535001034040020CC1101202F
:103C00000040054070B5060000F0A8F8FA22040054
:103C10000D00920000233000002101F01FFC00196C
:103C200069418D4205D802D0FFF78AFF70BD8442FA
:103C3000FAD901204042C117F6E7C046002370B50B
:103C400084B0114E02930193104B050000930200C3
:103C50000B0030000C00FFF76DFE002804DD20BFD4
:103C600001003000FFF734FF094A0020536AA342E5
:103C700003D3926A0130AA4201D304B070BD1C1B69
:103C8000601E8441E0B2F8E734040020B53500102E
:103C900000400540F0B5C64600B5EFF305833F226E
:103CA000134018001038EFF3108772B61F4D2A68C2
:103CB000002AFCD0BFF35F8F0122110081408846AB
:103CC00044461B494C631B4C2678A4463400C44030
:103CD000224015D04C6A1849820051588C4217D3A3
:103CE000164BD25843469E4363461E70BFF35F8F08
:103CF00000232B6087F31088002A06D0904704E049
:103D0000BFF35F8F2A6087F3108804BC9046F0BD34
:103D10000B4A9B00944663441A681A60BFF35F8F96
:103D200000232B6087F31088EFE7C046280100D0FE
:103D30000040054030170120D01101202C0B00203D
:103D4000D03F054010B50100024A0348FFF7DAF8FA
:103D500010BDC046A88700102D170120044A516AE3
:103D600000E01900906A536A9942FAD17047C04640
:103D700000400540164A70B5546A00E01C00956A80
:103D8000536AA342FAD12A00230080185941050042
:103D90000E008C4202D819D1824217D90122012586
:103DA0006D42EE1752420A4C636A9342FCD39A4228
:103DB0000BD1074B2800996AA94203D305E0996A01
:103DC000814202D2596A9142F9D070BD3200EAE7CD
:103DD00000400540214B70B598420BD843011B1A97
:103DE0001F4A9B001818916AC000936A5B1A984298
:103DF000FBD870BDFA2200239200002101F02EFBB7
:103E0000174B5C6A00E014009D6A5A6AA242FAD11C
:103E10002A0023008018594105000E008C4216D854
:103E200013D032000E4C636A9A42FCD89342E0D120
:103E30000B4B2800996A8D4203D8DAE7996A8842C9
:103E4000D7D9596A8A42F9D0D3E78242E9D9012207
:103E500001256D42EE175242E4E7C0469BC42000A4
:103E600000400540064A536A9942FCD807D1044BEA
:103E700002E05A6A914202D19A6A8242F9D37047AB
:103E80000040054070B504000D00EFF3108672B6D7
:103E90001A4A1368002BFCD0BFF35F8F002D1BD094
:103EA0002000FFF7E9F9164988420AD02000FFF701
:103EB000EBF901212000FFF7C5F90123A340114AC6
:103EC0001360114BA400E550BFF35F8F00220B4B32
:103ED0001A6086F3108870BD0B4BA200D5500122EA
:103EE000A2400A4920000B7893430B700449FFF766
:103EF000F5F900212000FFF7A5F9E5E7280100D03A
:103F0000953C0010386005402C0B00203017012034
:103F1000F0B5D6464F464646324CC0B5656A00E01D
:103F20000D00A66A616AA942FAD1AB4209D806D04F
:103F3000012420001CBC90469946A246F0BDB24226
:103F4000F6D9EFF3108972B6274C21680029FCD00E
:103F5000BFF35F8F0126254986408C460978244DA2
:103F60000F0037438846F9B28A46614654460C70C2
:103F70001C49041DA4004E636250840063510D6A05
:103F8000002435421AD04D6A00E025008F6A4C6A41
:103F9000AC42FAD1AB4219D801D1BA4216D8C245C7
:103FA0001DD0104B134A1E625E631F2318401E3B38
:103FB000834013606346424601241A70BFF35F8F4B
:103FC0000022094B1A6089F31088B2E70024BFF37E
:103FD0005F8F0022044B1A6089F31088A9E701243F
:103FE000ECE7C04600400540280100D03017012012
:103FF000D011012080E200E010B5EFF3108472B61A
:104000000A490B68002BFCD0BFF35F8F012383406C
:10401000074A0848136202789A430270BFF35F8F21
:1040200000230B6084F3108810BDC046280100D027
:10403000004005403017012070B506000D00140047
:1040400000291ED0002A1ED073688068984763003C
:104050006A001B195219033B033A3168002808D043
:10406000CB188A189D70117800290ED11470280081
:1040700008E08A18CB1894701978002900D0517084
:104080001D70200070BD0800FCE7597028001470F6
:10409000F8E7C046F0B5DE4657464E464546E0B521
:1040A0008360002389B04260026806914373C9B2FD
:1040B0000133059101738373C1730492012900D800
:1040C000A4E00A004B1ED9B2931E0791072B00D81B
:1040D000AEE00025CB080393049B564C591C564B6D
:1040E00056489B46564B9A46564B9C46564B029317
:1040F000524663465F465E4662401A40504B274038
:10410000FB185A40064053460196664643403340EA
:104110004B4E0A70B046019E0135B146C844464632
:1041200073401604360ECE701602120E4A721A042E
:10413000120E0B73CA731A021B0E4B75029B360EBE
:104140005C4063461C40404B120E9846029B47441D
:104150005840634618404B4643445840039BEDB2D9
:104160008E718A747C401831AB42C1D10799072304
:104170000A009A43531CDBB2914247D0049C5A0078
:10418000A446D218591C6244059DC9B2033A517025
:104190008D423BD94A005218981C6244C0B2033A7F
:1041A0005070854232D942001218D91C6244C9B2FB
:1041B000033A51708D4229D94A005218181D6244A1
:1041C000C0B2033A5070854220D942001218591DDE
:1041D0006244C9B2033A51708D4217D94A0052184D
:1041E000981D6244C0B2033A507085420ED9420015
:1041F0001218D91D6244C9B2033A51708D4205D9D3
:104200004A0052186244033A08335370FF23069A57
:1042100013405900C918049B9C460023614403398C
:104220004B7009B03CBC90469946A246AB46F0BDE7
:104230000123A3E7010203047F7F7F7F05060708B0
:1042400001010101808080800808080870B5040021
:10425000002907D04B0000685B18033BC3185A784D
:10426000002A01D1080070BD5500AD18033D40196A
:104270000025467845705D702000FFF7DDFE3100B7
:1042800005002000FFF7E2FF290002002000FFF7F1
:10429000D3FE0100E6E7C046F0B54E464546DE4691
:1042A0005746E0B50E0074000168A41985B0033CC0
:1042B00001920A190500107800284CD043001B1801
:1042C000033BCB185F78BC46002F16D1019C002C15
:1042D0003ED0EC7B002C04D063001B19CB18033BB1
:1042E0005E70EE7300282FD10023537005B03CBCE4
:1042F00090469946A246AB46F0BD7A006244033A26
:1043000089184A78934600224A7090465A700100F4
:104310003A002800FFF790FE5B468146002B07D04D
:104320005B0029685B44033BCB185A78002A16D1FE
:104330005A4649462800FFF77FFE2968019B0A1963
:10434000002BC6D10028CFD043001B18033BCB184D
:1043500000219970C8E7019B002BBAD1C4E7500037
:1043600080180338091848788246404648705870CB
:1043700059462800FFF760FE53468346002B07D0BE
:104380005B0029685344033BCB185A78002A06D1B6
:10439000594652462800FFF74FFE8346C8E75000B3
:1043A00080180338091840464F78487058705146B5
:1043B00028000297FFF740FE8246002F08D0BC4637
:1043C0007B0029686344033BCB185A78002A06D146
:1043D0005146029A2800FFF72FFE8246D8E7500088
:1043E00080180338091840464F7848705870029971
:1043F00028000397FFF720FE8046002F08D0BC4618
:104400007B0029686344033BCB185A78002A06D105
:10441000039A41462800FFF70FFE0290D8E70320D9
:1044200050430338091800204F784870587003999A
:104430002800FFF701FE390002902800FFF706FF71
:10444000029902002800FFF7F7FD0390E0E7C0465D
:10445000F0B54E464546DE465746E0B5467B05007C
:1044600074000068A419033C85B002190191117809
:1044700000294ED04B005B18033BC3185F78BC4645
:10448000002F18D1019C002C40D0EC7B002C04D0D4
:1044900063001B19C318033B5E70EE73002931D112
:1044A000002330005370697305B03CBC90469946B8
:1044B000A246AB46F0BD7A006244033A80184278C7
:1044C00093460022427090465A7028003A00FFF747
:1044D000B3FD5B468146002B07D05B0029685B4437
:1044E000033BCB185A78002A17D15A464946280070
:1044F000FFF7A2FD019B010028680219002BC4D11F
:104500000029CDD04B005B18033BC31800209870E6
:10451000C6E7019B002BB8D1C2E7500080180338D2
:104520000918487882464046487058705946280015
:10453000FFF782FD53468346002B07D05B002968B6
:104540005344033BCB185A78002A06D159465246A9
:104550002800FFF771FD8346C7E750008018033835
:10456000091840464F784870587051462800029705
:10457000FFF762FD8246002F08D0BC467B00296809
:104580006344033BCB185A78002A06D15146029A5D
:104590002800FFF751FD8246D8E750008018033805
:1045A000091840464F7848705870029928000397C0
:1045B000FFF742FD8046002F08D0BC467B002968EB
:1045C0006344033BCB185A78002A06D1039A41462C
:1045D0002800FFF731FD0290D8E70320504303384D
:1045E000091800204F784870587003992800FFF789
:1045F00023FD390002902800FFF728FE02990200EF
:104600002800FFF719FD0390E0E7C04670B50400ED
:1046100000292CD0437B8B422ED0056848004018DF
:10462000033828188278002A21D053009B18033BB6
:10463000EB181A788A4202D11BE0002A08D05300F6
:104640009B18033BEB185A788A42F6D142785A708D
:1046500000230122837043702000FFF71DFE617B61
:1046600002002000FFF7E8FC6073012000E000205A
:1046700070BD42781A70EBE701221900FFF70CFEBB
:1046800060730120F4E7C04610B50400FEF7C0FCDB
:1046900001002000FEF76CFFFF232371BFF35F8F43
:1046A00010BDC04610B50400FEF7B2FC01002000AA
:1046B000FEF75EFFFF23A380BFF35F8F10BDC046F0
:1046C00010B504000120FEF7AFFC044B9C4660448B
:1046D00080002060BFF35F8F10BDC04640000034F3
:1046E000F8B504000C201E0017000D0000F002FCBD
:1046F0004201121A9101891AC9000918890138006A
:1047000000F0F8FB069B226836041B033343002AA3
:1047100021DB184A184EA21851424A418021490112
:104720008C4652420A40154962440A6014490A60A4
:104730001700B1688F43FBD1C021221D89011143AD
:1047400021222560A0600A602268002AFCDAE3606A
:1047500008230B60F8BD3F2221680A40AA42D8D145
:10476000A2681205120D8242D3D1E268002BD0D18B
:10477000F0E7C0460040FDBF00C0004000E0004040
:1047800000F000408023024A9B000343D36270473D
:104790000080054010B580241B4BE4051C600028F8
:1047A0002BD00123194C1843194BDC61194C4440A0
:1047B0001C62596298628021134BC9051960164822
:1047C00016490860E021C9041960002A04D180223A
:1047D000134B12061A6010BD53019B1A9B009A18C6
:1047E000104B12019A420BD80F4B1A60084B5A60BB
:1047F00080220B4BD2051A60EDE7054BD861DAE752
:10480000094A13601A00F1E700B00540D3C007B0B1
:10481000008005402D3FF84FFCFF010008200140BB
:1048200000A00540FFFFFF00F4100120AA23064A64
:104830001B0113602F230549D360054B1960536892
:10484000002BFCDA7047C0460040024000B0FA007E
:10485000006002403A4AF0B5821A53425A41072397
:10486000D6464F464646040052429A43354B1032D4
:10487000C0B51A60344B0D0034491A6010008B68C3
:104880009843031EFAD166212268FF312071D06659
:10489000116063398833FF39D0639063D1500520AC
:1048A000FEF72AFB060068082900801900F022FBA9
:1048B00043009846804407000521404600F01AFB5B
:1048C0003B1A9A46224B8146700080199D4232D88D
:1048D000204900F00FFB451C002324680120E366FB
:1048E00022680433534006221A4080235B0123438D
:1048F0001A605346E3614B46236243464F2B03D96C
:104900005021404600F0F6FAA0232200E050802318
:10491000E06F7C32684000045B011343000C1860B8
:10492000012339003000E36600F0E4FA1CBC904635
:104930009946A246F0BD084900F0DCFA451CCBE7D9
:104940005C04002000E0004000F0004000C0004097
:104950003F420F008096980040787D010368002058
:1049600010B5D86680204001184300290AD0802164
:104970001C6889006140074C214001609A60012257
:10498000DA6610BD41211A684A4002490A400260B5
:10499000F5E7C04641020000F0B54546DE46574601
:1049A0004E46E0B50025046883B0E56661600121EC
:1049B00090460CAA1278E166002B55DD591E8C46F4
:1049C00010350127AA4670350021A9466646574092
:1049D0007F0200930025002903D105796B1E9D41BC
:1049E000AD0200239C46B14237D043465B5C1D4379
:1049F00063461D43009B25619C465346656B2B42D5
:104A0000FBD0634600934B46E3589C46002B0ED1E7
:104A1000B14224D0009B01318B42DBD102710800EE
:104A200003B03CBC90469946A246AB46F0BD656DCE
:104A3000012501928022636B92001342FAD0019A01
:104A4000236E002DE6D06546002D03D0EB0701D480
:104A50002B07E3D402214942E0E7BC46C5E7002A20
:104A6000D8D100250192E5E70021D7E7F0B5D64679
:104A70004F46464600250468C0B5E56661600121E1
:104A8000944608AA1278E166002B3BDD0135FF351C
:104A90000126591EAA46803D8846A9460021564057
:104AA0007602656F102DFCD0002923D080270025C9
:104AB0007F00884512D0276102E0A56F002D11D13B
:104AC0004D466559656D002DF7D0022149420271AE
:104AD00008001CBC90469946A246F0BD5746354397
:104AE0002F43E8E7654624696C5401318B42EED0D0
:104AF0000468D6E70579002DD8D0A0278025FF00CF
:104B0000ED00D6E70021E2E701230121084A136006
:104B1000084A1360084A080093689843FBD1074A83
:104B200011608021490013680B42FCD07047C046D9
:104B300000E0004000F0004000C0004000C0044021
:104B400010B50920FEF7D8F98022074B12021A602F
:104B5000064B07491A6014008B689C43FBD1054B38
:104B60000138186010BDC04600E0004000F0004071
:104B700000C0004000C00540F0B5C6460023C45E3A
:104B8000254BA2B200B59A4241D80223C3569C4697
:104B9000013BDBB20B2B3AD80323C3569846013BAB
:104BA000DBB21E2B33D804254557EBB2062B2ED88B
:104BB0000527C757FBB2172B29D806268657F3B20D
:104BC0003B2B24D8C07940B2C3B23B2B1FD8002363
:104BD0000221124AD360D3681942FCD163462403F0
:104BE0001B021C4343463F041C432B063B43034329
:104BF00036023343546093601023D3600F3BD3607D
:104C000002220649CB681A42FCD0012000E00020B5
:104C100004BC9046F0BDC046FF0F000000C0054038
:104C20000F4B30B5DA68920718D5D9699C694B01EA
:104C30005B0F03711F230A0C1A4042713F220D0AB9
:104C400015400A40C2712202120D02802205120F85
:104C5000234085718270C370012030BD0020FCE7C5
:104C600000C00540142310B50100188804331B88C8
:104C7000984710BD162310B50100188802331B8811
:104C8000984710BDF0B5C64600B5002916D01423CC
:104C900004000125984618278900461843462168D4
:104CA00018883B88984701C4431E984140420540FC
:104CB000A642F3D1280004BC9046F0BD0125F9E7D7
:104CC00010B5114C114B22689A4210D1104B6268FA
:104CD0009A420CD10F4BA2689A4208D100230E4889
:104CE0002360FFF7BFFF0021030000209847074B18
:104CF0000A482360064B00216360064BA360FFF760
:104D000039F80023236010BDE0040020DE8116F096
:104D1000299B72BD7ABE59D355420000400D030055
:104D20002D4B2E4A70B51A602D4A2E4B2E491A6013
:104D300010008B689843FBD12C4C2D4B9C4209D220
:104D4000013B1D1BAD080135AD002D1908CC98475E
:104D5000AC42FBD1FDF770FF264A224B1A60224A73
:104D60009368DB018033FBD14022234B234D244841
:104D70009A675A671A67DA66A84205D30EE0FFF70A
:104D800091FC2000AC4209D2040003680834002BD7
:104D9000F5D1FFF779FC2000AC42F5D3194C1A4D40
:104DA000A168C022280000F0CBFBA560FEF722F925
:104DB000FEF7CCFBFEF788FD144C154B9C4209D244
:104DC000013B1D1BAD080135AD002D1908CC9847DE
:104DD000A542FBD170BDC04600E00040BFCDFBFE48
:104DE000FE7F3C0000F0004000C00040C4040020F2
:104DF000D4040020FFFFFF0100F00140C4040020A4
:104E0000BC04002000ED00E000000020D4040020DD
:104E1000E004002000BEFDE70FB400B5084883B0F1
:104E200000F0C0FC049B002B07D005A918000191DD
:104E300000F018F8034800F0B5FC00BEFDE7C046DE
:104E4000FC8700100C88001010B50148FFF7E4FF44
:104E5000F087001010B5002800D110BD00F050FC04
:104E6000FBE7C04610B5094A84B01468002C09D08D
:104E7000012200910300524203A90548A0470120E6
:104E800004B010BD00F08EFC0020F9E7F010012006
:104E9000554E001001480421014B184770040020B2
:104EA000854C0010124A936F9B0815D29066D1660C
:104EB000002905D0FFE7FFE7FFE7516F106F70474C
:104EC00004B580210906C2175140002800D0C8430C
:104ED00003F09EFA002104BDF0B5146E556E576FB5
:104EE000166FFFF7E3FF1466556657671667F0BD48
:104EF000000000D0114A936F9B0813D210665166D0
:104F0000002905D0FFE7FFE7FFE7516F106F7047FB
:104F100004B5002801D00020C04303F079FA002135
:104F200004BDC046F0B5146E556E576F166FFFF78F
:104F3000E5FF1466556657671667F0BD000000D0A0
:104F400094464E4A926F9208624601D230E0C046C3
:104F5000F0B54A4EB56F6D08FCD3346E756E776F41
:104F6000366F00F025F89446444A14665566576734
:104F700016676246F0BDC0469446404A926F92085A
:104F8000624601D258E0C046F0B53C4EB56F6D08A0
:104F9000FCD3346E756E776F366F00F04DF8944623
:104FA000364A14665566576716676246F0BDC046B6
:104FB000002B24DB11D000293EDA00B5C943404262
:104FC00000D1013100F038F8C943404200D101312D
:104FD000DB43524200D1013300BD002AEBD100284F
:104FE00001D1002905D00020C90FC90701D1C04354
:104FF000410800B503F0FCF90022002300BD00B514
:1050000000290ADBDB43524200D1013300F014F8DF
:10501000C943404200D1013100BDC943404200D1E3
:105020000131DB43524200D1013300F005F8DB438C
:10503000524200D1013300BD002923D1002B18D1E9
:10504000002A0CD0BC460D4F38667A66002100233A
:10505000FFE7FFE7FFE77A6F386F67467047002882
:1050600001D00748010000B503F0C2F90022002377
:1050700000BD02000B00002000217047000000D09E
:10508000FFFFFFFF002B00D0BFE0130C28D1002A48
:10509000E7D080B4114F39667A66FFE7FFE730B496
:1050A000040C7B6F396F1B0423433B667A66FFE772
:1050B000FFE7FFE7C04684B27B6F3D6F1B042343CD
:1050C0003B667A66FFE7FFE7C04600232C042D0C01
:1050D0007A6F386F00196941B0BC7047000000D08A
:1050E000F0B594460025140E01D112020835140FB4
:1050F00001D112010435940F01D192000235D40F71
:1051000001D152000135D40B0134254F7C66254C6A
:105110003C660E0C93B2FFE7FFE7FFE73C6F664388
:10512000360C7703BE467343DF0B5B04C01AB941EC
:10513000130C7343DB18C91ACE086643360CB64409
:1051400093B273431F0F1B01C01AB941130C734371
:105150001F0B1B05C01AB941860D8F023E436643E3
:10516000360C092D24DB520A7243801A7703460A53
:105170006643360C16235B1BDE40DF40BF196446D6
:105180006643821B7046043506330100D940A840AF
:10519000C01900D30131A24206D20023F0BD0000A5
:1051A000000000D0FFFFFFFF121B0130F3D3F1E737
:1051B00009277F1BFE406446A2B27243801A00D2C8
:1051C0000139220C7243130C1204821A99410B000C
:1051D0007046043513370100F940A840801900D308
:1051E0000131002B02D1A2420AD2F0BD013000D31E
:1051F0000131121BFAD2013BF8D1A24200D2F0BD1C
:10520000013000D30131121BF7E7F0B51C0C00D0C0
:1052100080E00CB400251C0A04D11B02160E334397
:10522000120208351C0B04D11B01160F3343120167
:1052300004359C0B04D19B00960F3343920002353A
:10524000DC0B02D192185B4101351C0097186441B8
:105250000134464F7C66464C3C660E0CFFE7FFE788
:10526000FFE7C0463C6F6643360C7703BE4697B2F5
:105270007743C01B00D20139C01B00D201399FB255
:105280007743C91BC91B170C77437E04FF0B801B98
:10529000B941CE086643360C0C2D33DBB644120BF5
:1052A0001F053A431B0B97B27743C01B00D201394D
:1052B0009FB27743C91B170C77433E043F0C801BFA
:1052C000B941860D8F023E43664329277F1BFE406E
:1052D0000C3D7746AF40BF1930BCA2B2ABB27243AF
:1052E0007343801A9941220C7243130C1204801AE2
:1052F000994102000B000137001BA941F9D2781E29
:105300000021F0BD0C277F1BFE4077467F0BAF408E
:10531000FF19E0E700245D1C07D0144F7D66396655
:10532000FFE7FFE7FFE7FFE73C6F95B29EB26543FB
:105330006643401BB141150C1E0C654366433604A1
:105340002F0C3E432D04401BB141994204D2020070
:105350000B0020000021F0BD01D19042F7D3801A4C
:10536000994101349942F2D3F6E70000000000D0E1
:10537000FFFFFFFF132370B51D78012D15D010DD41
:105380002648FFF777FC264C01008022200000F021
:10539000D7F8022D06D02348FFF764FC224B186093
:1053A00070BD1F4C214AA264F5E71D4C1F4AA3089B
:1053B0005B421D402FD02B0022602020A9006118E5
:1053C000451B0A604A608A60CA600A614A618A6154
:1053D000CA610A624A628A62CA620A634A638A636B
:1053E000CA630A644A648A64CA640A654A658A654B
:1053F000CA650A664A668A66CA660A674A676D08A7
:10540000102D03D18A67CA67A264C4E71E339B00CC
:10541000E250A264BFE70023CFE7C0465344000038
:10542000381701204C330000C811012031540010FE
:1054300007B5604601880A0A0230DF2AFAD1C9B2EC
:10544000820804D3028840880004104300E000680A
:10545000014A5050039007BD381701205143434380
:10546000C9188C46110C83B24B4310B4040C614331
:1054700092B280B2504362431C041B0C001910BC52
:1054800059411304120CC018514161447047000087
:10549000132310B51C781348FFF7ECFB012C0BD03D
:1054A00004DD01008022104800F04AF80F48FFF7A1
:1054B000D9FB0F4B186010BD0B4C0100542220008B
:1054C00000F03EF80B4B6365A365E36523666366F6
:1054D000A366E36623676367A367E3672362E36109
:1054E000E4E7C04653460000381801204C33000062
:1054F000C8110120F954001007B5604601880A0A56
:105500000230DF2AFAD1C9B2820804D30288408867
:105510000004104300E00068014A5050039007BDAA
:105520003818012001480421014B1847800400204D
:10553000854C0010014B1B681847000080040020B8
:10554000014B5B681847000080040020030010B581
:1055500008001B681100984710BDC046F8B54746C3
:10556000CE4680B5437C80460C001500002B43D00E
:10557000002A34DD0A78037C00200A2A33D0012D6A
:105580001ED0204B0121671E994602E03100B54232
:1055900016D0635C7A5C4E1C0A2BF7D10D2AF5D02D
:1055A00043461B68884204DA091A20189847434684
:1055B0001B6802214846984730003100B542E8D1C7
:1055C000854204DD4346291A1B6820189847641950
:1055D000013C23780D3B5A425341424613740CBCA4
:1055E00090469946F8BD002BC9D143460548022193
:1055F0001B6898470120C2E7036811002000984704
:10560000EDE7C04688880010F0B5DE4657464E46A6
:105610004546E0B51E00D0231B0683B01C68334B03
:1056200001AF80460D001800390091469B4602F0FC
:10563000F7FE8246002808D1019B64B29C4204D048
:10564000584602F005FF01239A466B1C03D14046E1
:1056500002F090FE0500002E28D1254E254B1C6837
:10566000002C16D04B46002B22D1234F02E0E468D9
:10567000002C0ED02368002BF9D03B68002B01D002
:10568000A342F4D120002A004146B047E468002C30
:10569000F0D15346002B25D1681E8541E8B203B0F6
:1056A0003CBC90469946A246AB46F0BD134ED5E7AA
:1056B000114B994602E0E468002CEAD02368002BE5
:1056C000F9D04B461B68002B01D0A342F3D12A002E
:1056D00041462000B0470A230122390020003B70D8
:1056E000B047E8E7584602F07BFED5E7BC0400204F
:1056F0005D550010A80C0020AC0C00204D5500108A
:10570000F0B54746CE4680B583B06B46DF1CD0234C
:1057100038701B061C68204B060001A9180098462B
:1057200002F07EFE051E22D01C4B1C68002C2AD0E5
:105730001B4B994602E0E468002C10D02368002B34
:10574000F9D04B461B68002B01D0A342F3D12000B7
:1057500001223900FFF702FFE468002CEED1002D92
:1057600011D1300003B00CBC90469946F0BD019BAE
:1057700064B29C420BD0404602F06AFE074B012502
:105780001C68002CD4D1404602F02AFEE9E7034B06
:105790001C68002CCCD1E4E7BC040020A80C00203D
:1057A000AC0C002070B5040002F0E4FD0023010001
:1057B000050001222000FFF727FF084B1C68002C82
:1057C00006D06368002B05D09847E468002CF8D118
:1057D000280070BDE468002CF3D1F9E7A80C002084
:1057E000F0B5982357464546DE464E466C4AE0B52E
:1057F000D75880253C006D02883B83B02C409A46E8
:105800000FD001222321674B00205A54DA706649D9
:1058100001F0F4FA8022654B92021A65644B2C0069
:105820009A46FB0617D480235B011F4245D1802393
:10583000DB011F4200D088E080231B021F4200D002
:1058400091E0BC4200D0A5E003B03CBC9046994634
:10585000A246AB46F0BD524B9B6D9846002B27D01D
:10586000524B00259B460123994643460126B846E4
:105870001F0004E001357600EDB2202D17D037422D
:10588000F8D05B469E654B466C08AB436400E41859
:10589000444B64019C466444200000F081FB0028D6
:1058A0006CD10135B743EDB27600002FE5D1474604
:1058B00080235B0154461F42B9D01C430023384A61
:1058C00000211360384A3B489360D3603A4A9360A2
:1058D000D3603A4A9360D360394A9360D360394ABF
:1058E0009360D360384A9360D360384A9360D36042
:1058F000374A9360D360374A9360D360364A9360E7
:10590000D360364A9360D360354A9360D360354A9A
:105910009360D360344A9360D360344A9360D36019
:10592000F0229200FFF706FE314B324A00211A6046
:105930000020012201F036FA80221C4B12031A6566
:105940008023DB011F4200D176E7012204210020E1
:105950001C4301F095F91022144B1A6580231B0299
:105960001F4200D16DE70122052100201C4301F0F8
:1059700087F980220D4B12011A6562E74B46A28A15
:10598000A17800200093002301F060FA200000F0CD
:1059900045FA86E7210018487940FFF73DFAC046EE
:1059A00000001150C40C01200000105000301150B4
:1059B00010000100040D01200800105010001050CC
:1059C00018001050200010502800105030001050C7
:1059D0003800105040001050480010505000105037
:1059E00058001050600010506800105070001050A7
:1059F000F8100120800110508C88001010B5012192
:105A00000520FDF71FFC10BD10B500220021024843
:105A100000F02AFA10BDC046E40C01208022024B9F
:105A20005202DA647047C04600201150F0B5C646F5
:105A300000B5070000F0CCF90C23354D3549AB67B4
:105A40000520FDF721FC40239846334C40220021DD
:105A50002000FFF76FFD43460126A3832121002389
:105A60002E4A6670A260136063545F3161844146C0
:105A7000A187023963542A4A2A496360E260A1621D
:105A80000B60E262284A63629360D360274A200079
:105A90009360D360264A00219360D360254A40304A
:105AA0009360D360244A9360D360244A9360D360A8
:105AB000234A9360D360234A9360D360224A936061
:105AC000D360224A9360D360214A9360D360214A15
:105AD0009360D360204A9360D360204A9360D36080
:105AE0001F4A9360D360F0229200FFF723FD1D4B05
:105AF0001D4A38001A6080239B052E64EB649023B6
:105B00001A4AEA50FFF78AFF04BC9046F0BDC0462F
:105B100000001150E1570010C40C01208400105007
:105B2000000110508000105000001050080010506C
:105B30001000105018001050200010502800105075
:105B400030001050380010504000105048001050E5
:105B50005000105058001050600010506800105055
:105B600070001050F81001208001105010D001007A
:105B70000B785B0602D14B78052B00D070478A78F2
:105B8000014B1A60FAE7C04600001150F0B5C64656
:105B9000072300B548798F780A790340C8787F21B8
:105BA00080073940800F1B02FC0913434E00C2B22C
:105BB0009446284D32195201AA1897700127674060
:105BC000577000279383D7709077CA00012C27D095
:105BD00021488046880142442818826017600029C5
:105BE00027D01E4AC9009046414441603F223F33BE
:105BF00093436246022A00D15B00194936190A68AC
:105C00007601D3180B60174BAD19EA60534062461A
:105C1000920613438022120613436A6813600EE053
:105C20001148804688014244281882621760002982
:105C300009D1002364012D196B600C4BEB6001202E
:105C400004BC9046F0BD074AC900904641444162F9
:105C5000CCE7C046C40C0120840010500400105052
:105C6000F81001200000105080001050000110506A
:105C700000231C4A10B59360D3601B4A0021936037
:105C8000D3601A4A1A489360D3601A4A9360D3606B
:105C9000194A9360D360194A9360D360184A93609D
:105CA000D360184A9360D360174A9360D360174A51
:105CB0009360D360164A9360D360164A9360D360B2
:105CC000154A9360D360154A9360D360144A936079
:105CD000D360F0229200FFF72DFC124B124A1A609B
:105CE00010BDC046000010500800105010001050A9
:105CF000040D0120180010502000105028001050F2
:105D00003000105038001050400010504800105023
:105D10005000105058001050600010506800105093
:105D200070001050F8100120800110507F2020B525
:105D3000150008404000C9094018044940014018B6
:105D40001A00290000F090F8012020BDC40C0120A9
:105D50007F2310B50B40C909002B03D1022207484D
:105D6000521A8266802258004018054B4001C01824
:105D70001201002100F058F810BDC046002011505B
:105D8000C40C01207F2310B50B4000D110BDC90900
:105D900058004018044B4001181800230022C3701B
:105DA000024900F041F8F1E7C40C0120FFF7FFFFC2
:105DB0007F2110B58078044AC3099B0001409A589E
:105DC0000248FFF729F8C04690040020A088001080
:105DD00080220D4B520410B51A600C4B0C491A600E
:105DE00010008B689843FBD10A4C9C2200212000B4
:105DF000FFF7A0FB8022002152010748FFF79AFB22
:105E00000923636710BDC04600E0004000F0004079
:105E100000C0004000001150000010500023037427
:105E2000438283828361704710B58368002901D063
:105E30001C682140002A11D08024E4001143224232
:105E40000CD01A6822420BD1064A0A401A60FFE7BA
:105E5000FFE7FFE7FFE7FFE7FFE78368196010BD93
:105E6000FFF7A6FFFFFBFFFFF0B5C646002300B516
:105E7000838201330374436804001E68838B81614D
:105E80001F1C934200D9171C8025BFB2D21BE37898
:105E900092B2ED0062823D43002B02D09025AD010D
:105EA0003D4301204340E3706378002B2AD0002A51
:105EB00022D080235B011D43354B1B6C9B072ED4E6
:105EC000A378DB092BD1334B33408026B6051E4324
:105ED0006368A2681E6013685B0555D42E4B2B4087
:105EE0001360FFE7FFE7FFE7FFE7FFE7FFE7A368D0
:105EF0001D6004BC9046F0BDA023DB011D43244B74
:105F00001B6CE0E73A00E068FFF71AFBA369628ABE
:105F10009C46802367441B02A7611D43C7E7A38BF0
:105F2000191C934200D9111C80278BB2FF00D21A92
:105F300098461F43E37892B26282002B03D09027E9
:105F40004146BF010F4301214B40E3706378002BB2
:105F50000CD0002A02D18023DB011F430F4B3F04EA
:105F60003340A026F6053D431E43B1E7E0684246B4
:105F70004030A169FFF7E4FAA369628A4344A36150
:105F800080231B021F43E4E72000FFF711FFC046F8
:105F900000001150FFFFFFAFFFFBFFFFFFFFFFDF20
:105FA000F0B5C64600B5067C0400002E00D1D1E055
:105FB00083681A681D684378AD05AD0D002B50D17C
:105FC000838AEB189BB28382A18B62688D4206D2D2
:105FD000002363821368300004BC9046F0BD126851
:105FE000520002D58D4200D174E0638A002BF2D0BA
:105FF00062681F1C16688B4200D90F1C8025BFB237
:10600000DB1BE2789BB2ED0063823D43002A02D0A5
:106010009025AD013D4301214A40E2706278002A9B
:1060200067D0002B2AD1A023DB011D434E4B1B6CF4
:106030004E4B33408026B6051E436368A2681E603F
:1060400013685B0500D58CE0494B2B401360FFE7DC
:10605000FFE7FFE7FFE7FFE7FFE7A36800261D6014
:10606000B9E72A00C1688069FFF76AFAA38AA269C2
:10607000EB189BB25219A382A261A5E780225201BC
:106080001543394A126C920702D4A278D209CFD0B4
:10609000A28B111C9A423FD880278AB2FF009B1A1C
:1060A00090461743E2789BB26382002A2FD10121E8
:1060B0004A40E2706278002A3ED0002B02D1802351
:1060C000DB011F432B4B3F043340A026F6053D4325
:1060D0001E43B2E7A26815686278AD01AD0D002AD3
:1060E0001CD1EB18A3828D4200D37EE7002363828C
:1060F00071E73A00A169E068FFF722FAA3699C46BC
:10610000802367441B021D43A761638A89E79027A8
:106110004146BF010F43CAE7191CBDE7E1682A00E9
:106120004031A069FFF70CFAA38AA18BEB18A38278
:10613000A3695B19A361D6E7E06842464030A169D4
:10614000FFF7FEF9A3694344A36180231B021F43A9
:10615000638AB2E77F238178074A19400748FEF730
:106160005BFE2000FFF724FE00001150FFFFFFAF91
:10617000FFFBFFFFFFFFFFDF90040020C08800103F
:10618000024B5878431E9841C0B2704784090020E2
:10619000024B18784007C00F7047C04684090020A2
:1061A000014B18787047C0462B170120F8B54746B9
:1061B000CE46354E80B533780700002B04D0012041
:1061C0000CBC90469946F8BD532200212F48FFF79A
:1061D000B1F92F4C2000FEF757FA2E4B1C602E4CC5
:1061E00020001C30FEF76CFA200002F07FF82B4BE9
:1061F0002B4D1C602B4B9846002B04D0280000E050
:1062000000BF294B186042462B780024002A26D074
:10621000264A9046244A9146A34218D8E31ADBB294
:10622000022B2ED85A00D318DB0043441B68984732
:106230002B780134E4B29A1CA242EDDA3800FFF761
:10624000F5FB3800FFF7DAFB01233370B7E74A4666
:106250001268630094461B19DB006344E6E7134BA6
:106260000024984601E0032C0BD043461B68984756
:1062700018239C462B7801340233E0449C42F2DD23
:10628000DCE700231B68FFDE2B17012084090020B8
:106290003C090020D809002098040020DC090020D7
:1062A0002A170120000000000C0600208089001041
:1062B000F0B5DE4657464E464546E0B58DB001F096
:1062C000D1FD002800D18DE1D34B09AC9A46D34BC8
:1062D0009B4653461D68EA69EFF3108372B6116856
:1062E0000029FCD0BFF35F8F2B622100280001F052
:1062F00073FEEA692B6ABFF35F8F0021116083F39D
:106300001088002800D16DE16378082BE1D8C44AD9
:106310009B00D3589F466368002BDAD0A06898474B
:10632000D7E77F222179BD4B0A405500C8095B1988
:106330001B18180001263030C578B543C570C578E4
:106340000336B543C570002A00D179E1B54ADB7C3C
:10635000002A06D0B44A1278934200D239E19B1A3F
:10636000DBB2022B00D93DE15A00D218AF4BD2006C
:106370009B181D6962792078A368A847A9E75B4646
:1063800001221B78012113435A46137033235846C8
:10639000D25C5D468A43C254C25C04208243EA5404
:1063A0000133EA5C26788A43EA54EA5C8243EA5481
:1063B000002000F0E9FE602223791A40602A00D113
:1063C00020E1402A00D186E1DB06DB0ED9B20129AB
:1063D00000D19AE15BB2002B00D18AE1022900D002
:1063E00010E17023217A0B4200D00BE10F330B40F8
:1063F0005B00E818CF098B4DC019C07C002D06D07A
:10640000894D2D78A84200D201E2401BC0B202287B
:1064100000D9CBE145002818844DC0002D18002A72
:1064200000D1C7E1E86800F0AFFEEB680AAA0021DE
:106430003000984759E1794B1B78DB0700D448E7D7
:106440007B4B002B00D144E700E000BF41E7734BDA
:106450001A78D20700D43CE7764A002A00D138E700
:1064600018780007C00F00E000BF32E76E4D6D4A9C
:106470002B7800266D4F002A00D1FCE06E4A904632
:106480009E4216D3F11AC9B2022900D90BE14A0083
:106490005218D200BA185269002A14D020789047B6
:1064A0002B780136F6B29A1C964200DD11E79E4227
:1064B000E8D24146096872008C469219D2006244C3
:1064C0005269002AEAD10136F6B29A1CB242D7DAF2
:1064D000FFE6554D534A27782B780026002A00D135
:1064E000E4E0524A9046544A9146B34261D8F31AC6
:1064F000DBB2022B00D9B2E35A00D318DB004344CD
:106500005B68380098472B780136F6B29A1CB24285
:10651000EBDA424D532200212800FFF70BF810223E
:10652000FF21E81CFFF706F828002022FF21133086
:10653000FFF700F800F01EFE404B002B00D1C8E62C
:1065400000E000BFC5E6384D364A27782B78002694
:10655000002A00D17AE0354A9046374A9146B34244
:106560002FD8F31ADBB2022B00D978E35A00D318E4
:10657000DB0043445B68380098472B780136F6B25D
:106580009A1CB242EBDA254D532200212800FEF777
:10659000D1FF1022FF21E81CFEF7CCFF28002022AB
:1065A000FF211330FEF7C6FF00F0E4FD2379AB7046
:1065B0008FE64A461268730094469B19DB006344D9
:1065C0009EE74A461268730094469B19DB006344B9
:1065D000D0E75A00D218184BD2001B689B18002B2A
:1065E00000D0C6E60DB03CBC90469946A246AB46EC
:1065F000F0BD114A5D00EB181568DB00ED18002DA9
:1066000000D00FE720780021FFF7A2FB207880213F
:10661000FFF79EFB5DE6C046DC09002084090020F0
:10662000F4880010000000002A1701208089001063
:1066300000000000000000000C0600200000000028
:1066400062792078A36800F0B3FD42E6CD4B0026C6
:1066500098462B004546984602E0032E00D1FEE204
:106660006B683800984743461B780136023318356B
:106670009E42F2DD87E700260AE0207890472B78DB
:1066800001369A1C1837B24200DA22E6032E0AD0ED
:106690007A69002AF1D101369A1C1837B24200DA21
:1066A00017E6032EF4D100235B69FFDEB54B00260D
:1066B00098462B004546984602E0032E00D1CEE2D4
:1066C0006B683800984743461B780136023318350B
:1066D0009E42F2DD1DE7AC48002893D000F054FD47
:1066E0000AAA0021300000E000BF002800D0F0E539
:1066F00088E7202A41D0002A84D16379092B00D968
:1067000080E7A24A9B00D3589F46237A0F2B00D9DB
:1067100078E79F4A5B44DB78002A06D09D4A1278CE
:10672000934200D27FE09B1ADBB2022B00D969E7CB
:106730005D00EB18934DDB00ED18E86800F024FDD8
:10674000EB680AAA002130009847002800D0C0E575
:10675000602523791D4000D054E763790A3B012B63
:1067600000D94FE700F010FD63790A2B00D1EAE170
:106770000AA9300000F08CFCABE5237A0F2B00D97E
:1067800040E7834A5B44DB78002A06D0814A1278CE
:10679000934200D22DE79B1ADBB2022B00D931E7DE
:1067A0005D00EB18774DDB00ED183BE60025002A75
:1067B00000D027E762799046012A05D0002A00D14F
:1067C000D6E0032A00D01DE7E288002A0AD142461B
:1067D0005B44DF193037FB78012A00D1E6E09B07E4
:1067E00000D4F2E0002D00D173E5E86800F0CCFCA5
:1067F000EB680AAA002130009847002000F0C4FC92
:1068000034235A46D35CDB0700D562E5B0E7450088
:106810002818614DC0002D682D18002ACAD0002DFF
:1068200000D0FFE5EEE65C4A5D00EB181568DB0082
:10683000ED18002D00D1E5E67FE7A27902926B7892
:106840009A4207D06B78002B00D03BE1029B002BD3
:1068500000D0C6E05B46029A0AA930005A7000F0E8
:1068600017FC36E56B7808AA023213700AA90123D7
:10687000300000F025FC2CE5E088030AC0B20F2BA5
:1068800000D9BFE645499A008A5897460AA800F001
:1068900081FCA1793000FFF7B7F802222B7813436F
:1068A0002B7016E5E388012B00D0ABE608222B788D
:1068B00093435A4613705BE70220297808AB9A1C71
:1068C0008B068908DB0F01400B4313800AA90223C2
:1068D000300000F0F5FBFCE4E388012B00D091E6EA
:1068E00008222B781343E4E72D4B002B00D189E6D7
:1068F00000E000BFC37881781B0202000B43300028
:106900000AA900F0DDFBF0E6264B002B00D179E66A
:1069100000E000BF021E00D174E613780AA930001F
:1069200000F0CEFBE1E62189FBF70AFE021EF4D15E
:1069300068E6022B00D189E11B4B002B00D161E6F8
:1069400000E000BF002800D15CE6C37882781B021B
:1069500013430AA90200300000F0B2FBC5E6FBF7C2
:10696000D9FD122302000AA9300000F0A9FBBCE601
:106970005B44DF193037FB7808AA9B07DB0F023234
:10698000A3E7C046808900100000000018890010AD
:10699000000000002A1701200C060020408900108A
:1069A0000000000000000000000000009B0700D471
:1069B00018E73000FFF7E6F90222FB7893434246DE
:1069C000FB70FB789343FB700CE73000FFF7C0F9D6
:1069D0000222FB7813430122FB70FB781343FB7008
:1069E00000E7581EC0B2FBF7A7FD002800D109E65A
:1069F00043780693022B00D004E60125C3791027C3
:106A00005A112A4011015A4612789B11BA430A437F
:106A100020212B408A435B0113435A460700137021
:106A2000C37882781B021343C318093705939F422A
:106A300000D3FFE0049601227B7801920B2B04D156
:106A4000FB7801933B78FF187B78042B00D0D9E5C5
:106A5000059B844ADB1B9BB20393834B1B78002A64
:106A600000D18EE000220025904620E0EB1ADBB238
:106A7000022B00D9F0E05E00F6187C4BF6009C4635
:106A80006644039B390099461A000498B3689847F6
:106A9000082803D94B46834200D38DE0724B013561
:106AA0001B78EDB29A1CA846AA4200DAAAE59D42DC
:106AB000DCD26F4B6E001B6876199C46F60007937C
:106AC0006644DEE73000FFF7D3F8AB78654A664DE1
:106AD000984600212B78002A3FD02A000D009146CD
