+Beepy firmware 3.5
:020000041000EA
:1010000000B50C4B00219960042159610A4919600F
:101010000A490B480160002159600121996001BC17
:10102000002800D0004707480749086003C880F33C
:10103000088808470000001800031F00180200037A
:10104000F40000180001001008ED00E000000000AE
:101050000000000000000000000000000000000090
:101060000000000000000000000000000000000080
:101070000000000000000000000000000000000070
:101080000000000000000000000000000000000060
:101090000000000000000000000000000000000050
:1010A0000000000000000000000000000000000040
:1010B0000000000000000000000000000000000030
:1010C0000000000000000000000000000000000020
:1010D0000000000000000000000000000000000010
:1010E0000000000000000000000000000000000000
:1010F0000000000000000000000000002CEC210DAA
:1011000000200420F7110010C3110010C5110010B9
:10111000C1110010C1110010C1110010C111001047
:10112000C1110010C1110010C1110010C711001031
:10113000C1110010C1110010C9110010CB11001015
:10114000CD110010CD110010CD110010CD110010E7
:10115000CD110010CD110010CD110010CD110010D7
:10116000CD110010CD110010CD110010CD110010C7
:10117000CD110010CD110010CD110010CD110010B7
:10118000CD110010CD110010CD110010CD110010A7
:10119000CD110010CD110010CD110010CD11001097
:1011A000CD110010CD110010CD110010CD11001087
:1011B000CD110010CD110010CD110010CD11001077
:1011C00000BE00BE00BE00BE00BE00BE00F04BF878
:1011D000103800BEF2EB8871BCB80010E4B8001003
:1011E0003412001090A31AE700202149086006C8B5
:1011F00081F3088810471F48006800282FD10DA4EC
:101200000ECC002902D000F012F8F9E71A491B4A67
:10121000002000E001C19142FCD1194988471949D9
:1012200088471949884700BEFDE701C901C29A42B3
:10123000FBD37047E4B80010C00000207C050020FC
:10124000ACBD00100000042000000420ACBD001064
:1012500000100420001004200000000070470B481C
:1012600003F0BCFF0047EFF30580C0B270470000F9
:1012700008ED00E0000000D088050020001A0120E1
:10128000E9520010D51F0010A95200105756000057
:1012900006005250ABB360535CB4001006005250CD
:1012A000861C03026CB40010060052505422A29D0A
:1012B00078B4001005005250DE65F468ACBD001033
:1012C000F8B5C0460448054B10B5834203D0044B23
:1012D000002B00D0984710BD7C0500207C05002025
:1012E0000000000006480749091A8B10C90FC918E9
:1012F00010B5491003D0044B002B00D0984710BD07
:101300007C0500207C0500200000000010B5074C83
:101310002378002B09D1FFF7D5FF054B002B02D016
:10132000044800E000BF0123237010BD9006002098
:1013300000000000E89E0010054B10B5002B03D004
:101340000449054800E000BFFFF7CCFF10BDC046D0
:101350000000000094060020E89E0010F0B50B4E3F
:10136000840023189B0000259D5123189B00B44640
:1013700063449D60DD608D681D614D685D600B6834
:1013800013432418A400A351F0BDC046000005403B
:10139000002303604360836010334360014B83602C
:1013A0007047C046FFFF000083001B189B000B48DE
:1013B0008446634400290CD01020824000290AD0C2
:1013C0000749186842400A40802149010B431A60CE
:1013D00070470800F1E70349F3E7C0460C000540F9
:1013E0000000FFFFFFFF000010B5052000F0C6FE63
:1013F000C20192B201210420FFF7D6FF10BD00B553
:1014000085B00421192001F0DDFF01A8FFF7C0FF1E
:10141000012201A90420FFF7A1FFFFF7E5FF05B0B6
:1014200000BD000010B50A00024B0100180006F0D4
:1014300045F910BDE89E001070B502000B00034D89
:10144000034C2900200006F039F970BD549F0010AC
:10145000049F001000B583B00300044800911A00F7
:10146000190006F02BF903B000BDC0461C9F001008
:10147000F0B5C64600B582B080460D0001F06CF9AB
:1014800001A908F011FD002809D1D0231B061B6813
:10149000019A9A4211D001F05FF908F01DFD002079
:1014A00007F0A6FA002848D1254B0020002118603B
:1014B000596001F051F908F0D7FC02B080BCB84681
:1014C000F0BD07F04BF8002007F0AEFA002007F05F
:1014D0008FFA0028EDD0002007F028FB00281DD04F
:1014E000AC42E6DA2E1B002007F020FB0200864209
:1014F00000DC3200002AE4D043461919002007F02E
:10150000F9FA060007F02AF8002007F08DFAA4196E
:1015100002F060FF0A4B18605960E1E702F05AFFE1
:10152000074B1E685F68074A002392197B41994266
:10153000BFD8D5D19042D3D9BBE70024D0E7C0466D
:101540008806002020A1070010B506F0C3F809485E
:10155000012106F055F808480522032106F0AEF8EF
:10156000064800F085FC064801F05AF8054800F0EE
:101570005DF910BD280400203C9F00104C040020A1
:10158000440400203C040020014B3E22985C70473C
:10159000D812012070B582B001AB18800D4B3E22ED
:1015A0009D5C1E2D13D81C0040269B5D581CC0B2AC
:1015B000A0555B0001AA12881A531F2105F02EF8CE
:1015C000A15501353E23E554012002B070BD002035
:1015D000FBE7C046D812012030B583B001AB1880BC
:1015E0000198FFF7D7FF002816D10C4C4025635D0A
:1015F000581CC0B260555B0001AA12881A531F2103
:1016000005F00CF86155013D605D0130C0B26055D8
:101610001F2105F003F8615503B030BDD812012039
:1016200070B582B000236A461380124B3E229D5C47
:10163000002D1BD00F4C3F26A35D581CC0B2A055F7
:101640005B001B5B6A4613801F2104F0E7FFA15576
:10165000013D3E23E5546B461A8801AB1A8001AA6E
:1016600053781B021078184302B070BD01AB002202
:101670001A80F4E7D812012070B582B004000D0082
:1016800016002649264800922B00220006F016F884
:10169000200001F063FF012E11D000220C21200058
:1016A00001F0E8FE01210A00A240D0231B065A6285
:1016B000A940C9B20B2000F00BFF02B070BD01239E
:1016C000AB40DDB229000C2000F0F0FE002811D064
:1016D00029000D2000F0EAFE002805D0A300114AE1
:1016E000944663445B680AE0A3000E4A9446634450
:1016F0005B6804E000220021200001F07BFE012352
:10170000A340D0221206936201220C21200001F096
:10171000B1FE29000B2000F0D3FECEE7FC9F0010A5
:10172000609F001000C0014010B5152800D010BD0A
:10173000054B1C6804E02368002115209847646865
:10174000002CF8D1F3E7C0461C13012010B50400AB
:1017500009490A48220005F0B1FF0B2000F00EFDF8
:101760006040C00700D410BD012222400021152096
:10177000FFF782FFF7E7C04604A00010889F001023
:10178000F8B504000E00134913483300220005F099
:1017900095FF0C2000F0F2FC07000D2000F0EEFC9D
:1017A000050021000C2000F0EFFC31000D2000F0BE
:1017B000EBFC7C40E40702D46E40F60708D501211B
:1017C0000B2000F073FE020000211520FFF754FFEC
:1017D000F8BDC046E49F00109C9F001010B50400A7
:1017E0000C490D48220005F069FF01210B2000F093
:1017F0005DFE002806D1E40705D5D0231B06802214
:1018000092035A6110BDD0231B06802292039A6175
:10181000F8E7C046D09F0010BC9F0010D0231B06E5
:101820005B685B0D0120184070470000064B1B6889
:10183000002B05D01A005B68002BFBD1506070476D
:10184000014B1860FBE7C0461C13012010B5FF20B8
:10185000FFF77CFF10BD000070B51C4B19680A68CB
:10186000D36A002B1AD0580600D5506D04242000EE
:1018700018401C4217D0154B1B79002B0FD1136950
:10188000124A13711B0609D4114B9A1E1C00083C06
:101890006179207900F07EFC0023237170BD12690C
:1018A0000A4B5A71F0E79B06F8D5084C257A0634A6
:1018B00007E00B685A6F102AFBD022781A610130BA
:1018C00001348542F5D80B681B6DE7E72013012032
:1018D0002813012010B5054B1C68122000F04EFCA7
:1018E00002000121200003F05FFB10BD2013012046
:1018F00010B5164C16482060164903F029FBFFF777
:10190000E9FF03211C2001F05DFD002201211C20C4
:1019100001F070FD03211D2001F054FD0022012182
:101920001D2001F067FD2468236864221A630A4BB6
:10193000E41A63425C4117340849200001F0ACFE10
:101940000121200001F098FE10BDC04620130120A7
:1019500024050020A08601001C0500205918001055
:1019600070B501248C40E4B221000F2000F09EFDF0
:10197000002800D170BD2021032000F0A1FD21002E
:10198000102000F09DFDD02424060125A561132020
:1019900000F0F4FB02F06EFD6561EBE770B501212C
:1019A000142000F083FD002800D170BD40210320E9
:1019B00000F086FDD02424060125A561132000F047
:1019C000DDFB02F057FD6561EFE770B510210220E5
:1019D00000F06CFD002800D170BD0821032000F04C
:1019E0006FFDD02424060125A561132000F0C6FB5D
:1019F00002F040FD6561EFE770B5002001F0AEFD3B
:101A0000D02424060125656200220121002001F076
:101A1000F1FC6561044800F02BFA044800F000FE78
:101A20000348FFF703FF70BD640400205C0400203E
:101A30005404002010B5002905D0FA22920000239A
:101A400004F02EFE03E0FA21890004F0E7FD10BD4A
:101A500010B5002B02DB0260436010BD024B034A4D
:101A600003483F2103F024FC18A00010A0A00010A0
:101A700034A0001010B582B0040002F0ABFC0200EC
:101A80000B006846FFF7E4FF009A019B2260636049
:101A9000200002B010BD000070B582B004000D003F
:101AA000C378042B55D89B002B4AD3589F46002956
:101AB00001D108004BE00123C3706846FFF7DAFF4D
:101AC00000980199FFF7B6FF606028003FE0684684
:101AD000FFF7D0FF00980199FFF7ACFF6668861BFF
:101AE000112000F04BFB83001B185B00B34203D3B3
:101AF000002D05D000202AE00223E370012026E01B
:101B00000323E370012022E0002903D10323C370E3
:101B100001201CE06846FFF7ADFF00980199FFF730
:101B200089FF6368C01A0D4B984201D800200EE06F
:101B30000423E37028000AE0002901D0002006E019
:101B40000323C370012002E00023C370012002B010
:101B500070BD0020FBE7C0468CA000108813000079
:101B6000F0B585B0050016001F000192FA22920020
:101B700000230A98002105F097FB02000B00921940
:101B80007B419F4202D804D1964202D9012252429F
:101B9000D31702A8FFF75CFF029A039B2A606B60D1
:101BA000280005B0F0BDF0B5C64600B586B0804649
:101BB0000C0015001E000CAB1F7804A8FFF75AFF9D
:101BC000049A059B009404A8FFF7CAFF049A059B9A
:101BD000029701960095404602F018FA06B080BCC4
:101BE000B846F0BDF0B583B004000D0016001F002C
:101BF00002F0F6F9009733002A002100FFF7D3FF27
:101C000003B0F0BD70B582B005000E0001AA1070DF
:101C1000090150780F2303400B4353700198FFF7DD
:101C2000B9FC002802D0104B1C6819E002210230D8
:101C300000F03CFC002809D10121022000F036FC14
:101C40000028F0D00198FFF7C7FCECE70121032042
:101C500000F036FCF0E723683100280098476468FC
:101C6000002CF8D102B070BD2C13012070B5040017
:101C70000D0016000D4B4000001940001B185B5C66
:101C800093420FD00A4B1B18585C002804D0002E3A
:101C900009D00121FFF7B6FF044B62001219520070
:101CA0009B185E5570BD0321F4E7C0467C110120EE
:101CB000B8A0001010B5040041788078084B4A00A5
:101CC000521852009B18195C2000FFF7E5FE00280F
:101CD00000D110BDE1782078FFF794FFF9E7C04606
:101CE0007C11012010B501216620FFF78BFF032135
:101CF0006620FFF787FF10BD10B50100234B1800C9
:101D0000FFF7CAFE00280BD0204BD978012908D054
:101D1000032906D01D4BDB78022B06D0042B15D0EF
:101D200010BD7820FFF76EFFF4E72D2000F026FAB3
:101D3000002805D100F036FF022000F0A7FFEFE7F2
:101D4000124BD9787820FFF75DFFE9E7FFF7CAFF6C
:101D50002D2000F013FA0028E2D0252000F00EFA22
:101D600043011B1A9B001B18DB00094A934203DC4A
:101D7000074800F0FDFED3E7252000F0FFF94301FE
:101D80001B1A9B001818C000F3E7C046C8110120B9
:101D900088130000F8B500251BE02D4B1A5DD023F9
:101DA0001B065B68D34001221A4053425A41D2B20B
:101DB00029002000FFF75AFF0134062CEDD9D0246A
:101DC0002406666100220021380001F013FBA662A0
:101DD0000135052D0ED81F4B5F5D00220121380013
:101DE00001F008FB0126BE40D0231B069E615E6207
:101DF0000024E2E71848FFF75DFF1848FFF75AFF95
:101E00001748FFF757FF1748FFF754FF1648FFF72B
:101E100051FF1648FFF74EFF0024002C0BD007207F
:101E200000F0ACF983051B1A9B011B185B00181806
:101E3000C000C117F8BDD0231B065B681B09012039
:101E4000184043425841C0B2FFF756FF0134E4E75F
:101E5000ECA00010E4A00010E80C0020E00B002033
:101E6000A8110120D0110120D80B002094140120CA
:101E7000084B1B68002B06D01A005B68002B05D0AE
:101E80008242F9D104E0034B186001E050604360E6
:101E90007047C0462C130120074B1B68002B0AD04B
:101EA000054A1368002B06D01968814201D01A1D1B
:101EB000F7E75B68136070472C13012070B50024AE
:101EC0000FE0354B1D5D280001F048FB0022012189
:101ED000280001F08FFA0123AB40D0221206936252
:101EE0000134062CEDD900240AE02C4B1D5D28009E
:101EF00001F034FB0123AB40D0221206936201347F
:101F0000052CF2D90024002C37D0254A74231370F5
:101F10000220507000239370D370224A76211170F2
:101F2000723951709370D3701F4A66241470D37045
:101F30001E4A7B3414705070DE3C9470D3701C4A7F
:101F4000E2341470DF3C54709070D370194AE03062
:101F50001070DD38507004389070D370164AE03439
:101F6000147051709070D370063000F007F9134967
:101F700001230022FFF736FE70BD042001F0EEFAC7
:101F800000220121042001F035FAD0231B06102283
:101F90009A620134B7E7C046ECA00010E4A000103C
:101FA000E80C0020E00B0020C8110120A81101203E
:101FB000D0110120D80B002094140120951D001091
:101FC00070B504000D0000F0F7FA29002000FFF7BB
:101FD000ABFB70BD10B5FFF7B7FA03F071F800F076
:101FE00081FAFFF70CFAFFF731FCFFF767FF00F00B
:101FF00035FBFFF701FDFFF77BFC094B01220021B8
:10200000FF2001F047FA00F0E9FD00F05BFD012040
:1020100000F03CFE034805F01FFB20BFFDE7C04673
:10202000C11F0010F4A00010BFF34F8F034B044AF0
:10203000DA60BFF34F8FC046FDE7C04600ED00E019
:102040000400FA050F4A1523D35618181623D35641
:1020500059180300803311DB031C7F2800DD7F2328
:10206000DBB2084A53750B00803309DB0B1C7F2958
:1020700000DD7F23DBB2034A937570478023F0E7CE
:102080008023F8E73013012010B501F023F810BDCC
:1020900010B5002B02DB0260436010BD024B034A07
:1020A00003483F2103F004F918A0001018A2001003
:1020B00034A0001010B582B0040002F08BF90200C9
:1020C0000B006846FFF7E4FF009A019B2260636003
:1020D000200002B010BDF0B585B0050016001F004D
:1020E0000192FA22920000230A98002105F0DCF800
:1020F00002000B0092197B419F4202D804D1964204
:1021000002D901225242D31702A8FFF7C1FF029A57
:10211000039B2A606B60280005B0F0BDF0B5C64691
:1021200000B586B080460C0015001E000CAB1F7871
:1021300004A8FFF7BFFF049A059B009404A8FFF7CB
:10214000CAFF049A059B029701960095404601F04C
:102150005DFF06B080BCB846F0BDF0B583B00400AA
:102160000D0016001F0001F03BFF009733002A000E
:102170002100FFF7D3FF03B0F0BD0000014B185C56
:102180007047C04630130120014B19547047C046B8
:1021900030130120F0B5C64600B586B00391170094
:1021A0001D0046B27F24044000232B70432C66D8C8
:1021B000A300B84AD3589F46002E06DB2000FFF745
:1021C000DDFF387001232B7059E003992000FFF7E1
:1021D000DBFF0A2C03D0122C04D0052C4FD1FFF7C3
:1021E00003F94CE0FFF776FB49E0002E06DB200008
:1021F000FFF7C4FF387001232B7040E00C2C07D090
:102200000D2C0DD00B2C3AD10398FFF79FFA36E036
:102210000D20FFF7B3FF01000398FFF7B1FA2EE09E
:102220000C20FFF7ABFF0399FFF7AAFA27E0002E77
:1022300025DA03992000FFF7A7FF20E0002E08DB36
:102240004020FFF79BFF00F089F9387001232B70C5
:1022500015E04020FFF792FF039900F09BF90EE094
:10226000002E10DB2000FFF789FF387001232B7050
:10227000002E10DBFFF7D2FA387001232B7006B066
:1022800080BCB846F0BD039800F0DAF9039920004D
:10229000FFF77AFFECE70398FFF7A0FAEFE7002ECD
:1022A00006DB2000FFF76AFF387001232B70E6E79A
:1022B00003992000FFF768FFE1E7002E06DB20000E
:1022C000FFF75CFF387001232B70D8E7039D2900CE
:1022D0002000FFF759FF05AC25702120FFF74EFFC6
:1022E00060702220FFF74AFFA0702320FFF746FF0F
:1022F000E070200000F08EFCC1E7039B002B20D093
:102300002D20FFF73BFF0028B9D0634D039B5D43B1
:102310002520FFF733FF43011B1A9B001818C40048
:102320005E4B9C4200DC1C005C4BE318AB42A6D821
:10233000FFF7D8FC200000F01BFC280000F0FEFB9B
:102340009DE700F02FFC2E20FFF718FF032896D101
:1023500004212B30FFF718FF91E7002E06DB200049
:1023600000F01CFD387001232B7088E703992000D2
:10237000FFF70AFF83E72B20FFF700FF80462A20A4
:10238000FFF7FCFE05002920FFF7F8FE06002820D5
:10239000FFF7F4FE07002720FFF7F0FE04002620D9
:1023A000FFF7ECFE019000943B003200290040460C
:1023B00000F0DAFC63E7002E06DB3020FFF7DEFEDC
:1023C000387001232B705AE7039800F005FE0028AF
:1023D00009D004DB01213020FFF7D6FE4FE7C1B260
:1023E0004942C9B2F7E700213020FFF7CDFEFFF7E1
:1023F00079FC2520FFF7C2FE4401241AA40024180A
:10240000E400264B9C4200DC1C00200000F0B0FBE6
:10241000234920000A3001230022FFF79EFE2EE709
:102420002000FFF7ABFE387001232B700021200045
:10243000FFF7AAFE23E735233B70343B2B701EE7E2
:10244000184B04221A60184B1B68DB05FBD5164B92
:102450005A6893B23A701B0A7B7002232B700EE706
:10246000FFF792F8387001232B7008E7FFF7D8F8D0
:1024700005AB18801A783A705B787B7002232B705A
:10248000FDE6FFF7D1FD2000FFF778FE387001234D
:102490002B70F4E608A1001060EA00008813000029
:1024A0008920001000E0044000C00440034B1B5C86
:1024B00019404B1E9941C8B27047C04630130120E5
:1024C000024A135C0B4313547047C046301301207B
:1024D000034B1A5CC94349B2114019547047C046B6
:1024E0003013012010B592210220FFF74DFEFF218D
:1024F0000520FFF749FE0A210620FFF745FE0A21C5
:102500000720FFF741FEFF210A20FFF73DFEFF21D4
:102510000D20FFF739FE64211120FFF735FE1F2142
:102520001220FFF731FE01211320FFF72DFE0721B6
:102530001420FFF729FE00212D20FFF725FE1E2184
:102540002520FFF721FE10214220FFF71DFE024843
:1025500000F066F810BDC0466C04002030B587B0AE
:102560000F226A4410700A4D6868012300933B21D2
:1025700002F03EFD17246C44686800230093013389
:1025800022003B2102F040FD207807B030BDC0465C
:102590007413012000B585B06B4618735973054B51
:1025A000586800230093023303AA3B2102F020FD68
:1025B00005B000BD7413012070B5162801D149077C
:1025C00000D470BD1438FFF7C9FFC30617D4000646
:1025D000F7D50320FFF7C2FF45B20420FFF7BEFF87
:1025E00046B20520FFF7BAFF04004220FFF7C6FD00
:1025F0008442E6D3094B1C68002C0CD1E1E7032090
:10260000FFF7ACFF0420FFF7A9FFDAE723683100EA
:10261000280098476468002CF8D1D2E77413012091
:10262000064B1B68002B05D01A005B68002BFBD102
:1026300050607047014B1860FBE7C04674130120DF
:1026400010B504001A20FFF789FF072398430443BD
:10265000E1B21A20FFF79EFF10BD000070B5224BBB
:1026600022485860224902F073FC0321122000F036
:10267000A9FE00220121122000F0BCFE0321172038
:1026800000F0A0FE00220121172000F0B3FE182068
:1026900000F064FFD024240680235B046362A361FE
:1026A000162000F05BFF8023DB03A36201220421DC
:1026B000162000F0DFFE102000F050FF80256D0294
:1026C0006562A561642001F0FCFD65617720FFF77C
:1026D00045FF20231843C1B27720FFF75BFF03209B
:1026E000FFF7AEFF70BDC046741301201C0500202B
:1026F000A0860100002070477047000070B590B0C0
:102700000400002300933C22002101A804F086FE6F
:1027100040226946200006F0C1FE084DAE1E6B4601
:10272000597818782B003200FFF734FD2A783100F1
:10273000200006F0C5FE10B070BDC0468813012011
:1027400010B50220FFF71AFD40231843C1B2022042
:10275000FFF71AFD10BD0000004870477C130120F0
:102760000048704760A30010002803D0012803D060
:10277000002070470148FCE70148FAE71CA300105D
:10278000CCA200100048704738A2001070B5002895
:102790000DD0072828D8154B8000C458200007F01A
:1027A00033FBC0B21F2800D91F20002312E01048BD
:1027B000C1239B00040003800C4B196802300222E5
:1027C00004F032FE20000EE05A1CE55C084B51007C
:1027D000CD52D3B29842F7D801304000C0239B00BD
:1027E00003430348038070BD0020FCE7740400200D
:1027F000AC14012083001B189B000B4884466344E3
:1028000000290CD01020824000290AD007491868FE
:1028100042400A40802149010B431A60704708007A
:10282000F1E70349F3E7C0460C0005400000FFFF55
:10283000FFFF000070B5140000282DD0FF20421AC1
:102840001102521892B2011B0C0209198DB2C01A62
:102850000302C01884B200210220FFF7CBFF2A0038
:1028600001210120FFF7C6FF220001210020FFF710
:10287000C1FF124B1A68012319009143104A1160DD
:10288000104A1268190091430F4A11600F4A1268EA
:1028900093430F4A136070BD0E4C2200002102309A
:1028A000FFF7A8FF220001210120FFF7A3FF22006C
:1028B00001210020FFF79EFFEDE7C04628000540FC
:1028C0002810054014000540141005400000054084
:1028D00000100540FFFF000010B504001F2100F0AC
:1028E00071FD00220021200000F084FD0021200065
:1028F00000F01CFE10BD10B5040001F071FB2100BA
:1029000001F022FC10BD000010B5002B02DB0260BC
:10291000436010BD024B034A03483F2102F0C8FC4C
:1029200018A00010E0A3001034A0001010B582B071
:10293000040001F04FFD02000B006846FFF7E4FFC2
:10294000009A019B22606360200002B010BDF0B5C8
:1029500085B0050016001F000192FA2292000023A4
:102960000A98002104F0A0FC02000B0092197B41A0
:102970009F4202D804D1964202D901225242D31773
:1029800002A8FFF7C1FF029A039B2A606B60280030
:1029900005B0F0BDF0B5C64600B586B080460C0067
:1029A00015001E000CAB1F7804A8FFF7BFFF049AA8
:1029B000059B009404A8FFF7CAFF049A059B0297A1
:1029C00001960095404601F021FB06B080BCB84658
:1029D000F0BDF0B583B004000D0016001F0001F03B
:1029E000FFFA009733002A002100FFF7D3FF03B05E
:1029F000F0BD000010B5274B1B68002B1FDB264BDA
:102A0000187801225040C0B21870244B1B78032B59
:102A100018D0234B1C78022C2AD11900DB788A7835
:102A20004978FFF707FF1C4B1B78002B2FD0C820DD
:102A30001C4901230022FFF7CCFF164B1860002031
:102A4000002110BD002807D01449CB788A78497836
:102A50000120FFF7EFFEE6E711490878CB788A7886
:102A60004978013844426041C0B2FFF7E3FEDAE73B
:102A70000B49CB788A784978013C60424441E0B206
:102A8000FFF7D8FE034B012252421A60D7E7AF206E
:102A90000001CDE79C040020FC190120740D0120E9
:102AA000780D0120F529001010B5662805D0034BDC
:102AB00000221A700248FFF7EFF910BD740D0120D3
:102AC000A92A001010B502F0ABFA1A20FFF704FF94
:102AD000094B1B68E022D2011340084A13600F2003
:102AE00000F03CFDD0231B06802212025A629A613C
:102AF000034B00221A7010BD00C0044000D00440F7
:102B0000FA190120064B1B78002B07D0D0231B0697
:102B1000802212029A61024B00221A707047C0464E
:102B2000FA19012010B5044B1B68002B01DBFFF7DD
:102B3000E9FF0020002110BDA004002010B5040012
:102B4000094B1868002808DA0849012300222000F0
:102B5000FFF73FFF044B186010BDFFF7CCFE024BA0
:102B6000012252421A60EFE7A4040020CD2C00108D
:102B700010B50400094B1868002808DA0849012339
:102B800000222000FFF725FF044B186010BDFFF75F
:102B9000B2FE024B012252421A60EFE7A00400206D
:102BA000252B001010B50B4B1868002804DA0A4BCF
:102BB0001868002807DA10BDFFF79DFE054B0122BB
:102BC00052421A60F3E7FFF796FE034B012252428E
:102BD0001A60F0E7A4040020A004002010B504212E
:102BE000142000F0EFFB0421132000F0EBFB042184
:102BF000112000F0E7FB054B00221A70044B1A70FD
:102C0000002300210020FFF715FE10BD780D0120E4
:102C1000740D012010B504000378032B11D0174860
:102C20000422210004F000FC2078831EDBB2012B7B
:102C300019D8134B1B68002B09DB2378032B0ED00C
:102C400010BD10480422210004F0EEFBECE70C4B11
:102C500001221A6000210020FFF7CCFEEDE70A48B0
:102C6000FFF706F9ECE76178A278E378013844428F
:102C70006041C0B2FFF7DEFDE2E7C046780D0120FB
:102C80009C040020740D01209404002010B582B033
:102C900004000D4B1B78012B14D0D0231B0680227F
:102CA00012025A61084B01221A7001A80270002317
:102CB00043707F328270C370FFF7ACFF21002E207B
:102CC000FFF762FA02B010BDFA19012010B5FFF744
:102CD00069FF0320FFF7DAFF0020002110BD70B567
:102CE0000500C3001B18DB001B189C001C19C21731
:102CF000032313401B189B10E4186421494203F07E
:102D000065FC2418C8214900280003F05FFC201846
:102D100070BD70B50400150009310E000C213000A3
:102D200003F054FC013804190C21300003F04EFC70
:102D30000E002000FFF7D3FF33019B1B5B00C4187C
:102D400070008019400005300A2103F03FFC201874
:102D50004019013070BD10B5FFF7DBFF072103F00C
:102D600035FC080010BD000070B582B006AC2578B7
:102D700007AC2478084EB44660446E463080B1708B
:102D8000F2707371B571F471FFF7E5FF3071684649
:102D900002F0CCF902B070BD6C07000010B582B033
:102DA0000400684602F0F6F920002638C3B2052B6D
:102DB00019D898000D4B1B589F466B46D87902B026
:102DC00010BD6B469879FAE76B465879F7E76B4682
:102DD000D878F4E76B469878F1E76B460020185EE8
:102DE0006C38C0B2EBE70020E9E7C046F8A300105A
:102DF00010B5030010000AE040000133072B05DC8A
:102E00000028F9DA4000074A5040F6E723000A009C
:102E10000139002A05D05C1C1B781B065840002392
:102E2000ECE710BDB71DC1040300303BDBB2092B3A
:102E300009D920231843C0B20300613BDBB2192B30
:102E400009D9012070470A781201D2B20A701343DF
:102E50000B700020F6E70B781B01DBB20B705738C4
:102E6000C0B203430B700020ECE770B505000C0006
:102E700000230B700078FFF7D7FF002801D0012056
:102E800070BD68782100FFF7CFFF0028F8D001203F
:102E9000F6E7F0B5C3B00E000823FF336B44002201
:102EA0001A7000E001300378002B01D03A2BF9D1E1
:102EB000002B39D0441C0027002509E00823FF33EC
:102EC0006B441B786A4653550135DF19FFB2023453
:102ED0002378002B12D082235B009D420ED86378AA
:102EE000002B07D00821FF3169442000FFF7BDFF08
:102EF0000028E3D00620404243B0F0BD002D16D09C
:102F0000002F17D16B461A7832709B786946497842
:102F100009020B4373806B46DB783371701D01A986
:102F200004F082FA0020E7E706204042E4E70620AA
:102F30004042E1E707204042DEE70000F8B5CE4618
:102F4000474680B50400102398468844144BCD189A
:102F50002D0B2D03134E0660134B43608160103020
:102F600001225242FFF744FFE060EFF3108972B68E
:102F70008027BF022900380006F09EFF424621004C
:102F8000380006F081FF89F31088084BDE60084A9C
:102F90001A61FA2292000021002001F013FEFEE7E0
:102FA0000F100000FB5ECD8EA952AEC5008005401B
:102FB00000000210044A00231360044A1370044AFC
:102FC0001360044A13707047EC180120EC140120C0
:102FD000700D0120FE19012070B52B281CD00A2885
:102FE00021D00D2821D0354B1B78002B1FD1344B1D
:102FF0001B688022D200934254D0314A591C116080
:10300000304AD054002850D11378002B16D12C4BC5
:1030100000221A60013010E0FFF7CCFF274B01229D
:103020001A70012009E00020DDE70020DBE700281E
:1030300002D1224B00221A70012070BD2249214882
:10304000FFF727FF0028F8DB1D4B00221A601D4BFD
:103050001A701D4B1B79012B19D0042B1DD0002B8E
:1030600001D00120E9E7194D2C6820001030184BE1
:10307000C01815490E780531320004F0D5F9A419AD
:103080002C6080235B029C4211D20120D5E70F4BBC
:103090001B68002B0ED00020CFE70C4B00221A60DB
:1030A0000120CAE703204042C7E70120C5E7052009
:1030B0004042C2E704204042BFE7C046FE1901205B
:1030C000EC180120EC140120F0180120700D0120F3
:1030D000600D002010B5024B19680248FFF72EFF63
:1030E000700D0120600D002010B5052000F00CF9D6
:1030F000014B186010BDC046AC06002010B5FFF7AC
:10310000F3FF10BDF8B5DE4657464E464546E0B5DE
:1031100006000F0015000A9A93424ED31A0E9246EB
:103120001B0298460A9A00234046514603F0B8FA1B
:1031300081467400A419A4002E4B9C466444636825
:10314000834200D26060331FDBB29B46012B3AD929
:10315000C0239B012343802212011A60264BB20038
:10316000D158002905D0586903F058FA01300138C8
:10317000FDD16D0123685D40E0222A4080235B0180
:1031800023431A605A46012A28D980239B012343EE
:10319000802212011A604B4663604A460023404673
:1031A000514603F07DFA144BB60098510120F0BC53
:1031B000BB46B246A946A046F8BD104B104A11487E
:1031C0002D2102F075F8012FC2D1C0239B012343AA
:1031D00003221A60A368DB07FCD5CAE7216879409F
:1031E00003220A401A60A3680125BD401D42FAD09F
:1031F000CBE7C04600800040F00C002010A4001077
:103200007CA4001024A4001030B583B00C2001F081
:103210008BFC00F0AFF800280DD0002304E02E4A0C
:1032200099002E4888500133092BF8D92A4B2C4A93
:103230005A6203B030BD2B4B00229A6701F0E6FCC6
:10324000294B01221A60274B5B6C012BFBD1274BCA
:1032500003221A60234B9B6B012BFBD102240094A9
:103260000533234A0121234801F0D2FB00940523B2
:10327000214A0121214801F0CBFB214B0093002280
:1032800002210420FFF73EFF1E4D00952B00002277
:1032900001210520FFF736FF104C00942300002287
:1032A00000210720FFF72EFF0094230000220021B9
:1032B0000820FFF727FF0A4B00932300002200217C
:1032C0000920FFF71FFF00952B0000220021062098
:1032D000FFF718FFADE7C046F00C0020006CDC02E1
:1032E0001BB70000008000403CB0004030B0004000
:1032F000002F68590080024000389C1C00C002402A
:10330000001BB70040597307014B8000C05870473D
:10331000F00C0020EFF3108072B6034B1B68002BFB
:10332000FBD0BFF35F8F70472C0100D0BFF35F8FDE
:10333000024B00221A6080F3108870472C0100D0E5
:10334000F8B506000C001500FFF7E4FFE308F718D6
:10335000F15C07222240012393400B4205D1DBB2EE
:103360000B433B70FFF7E2FFF8BD2100280002F09D
:1033700037F80000034B1B6802201840431E984199
:10338000C0B2704700C00640002307E0054A9A1803
:103390009200BFF35F8F0021116001331F2BF5D91D
:1033A0007047C04640000034054A1078431CDBB229
:1033B0001370172B02D9130010221A707047C046E1
:1033C000A804002010B58300084A944663441A6894
:1033D00040246240803414408022520113431C6018
:1033E000C000034B9C466044416010BD04C00140D6
:1033F0000040014080000B4B9C46604400290DD0EA
:103400000823002A0CD004221343026853400C22E4
:103410001A4080235B0103431A6070470023F0E7E2
:103420000022F1E704C00140072303409B00C008CD
:1034300099403C308000014BC15070470040014032
:10344000F8B507000C0016001D00FFF7EDFFFB08A4
:103450009B00ED180720384080008440002E04D0E7
:1034600080239B012B431C60F8BDC0239B012B4391
:103470001C60F9E710B5D0231B061B68002B03D096
:10348000024BFFF7DDFF10BD014BFAE73041014071
:103490000041014010B51C00FFF7ECFFD0231B06D4
:1034A0001968064A89008C5005490D2000F0F4F88F
:1034B00001210D2000F0E0F810BDC046B406002048
:1034C000C534001070B5D0231B061B68002B02D03A
:1034D000134D002402E0134DFBE701341D2C1DD8D1
:1034E000E30808339B005A59072323409B00DA4026
:1034F00013000F2216001E401A42EED031002000A9
:10350000FFF792FFD0231B061A68074B9200D3588F
:10351000002BE2D0310020009847DEE770BDC046A6
:103520003041014000410140B4060020002909D08B
:103530008000094B9C46604480239B01034340224A
:103540001A6070478000044B9C466044C0239B0176
:10355000034340221A60F4E704C0014010B5012380
:103560008340D0221206936293610521FFF72AFF60
:1035700010BD0000074B9B68103080001950BFF34E
:103580005F8FBFF35F8F044B0021196082F31088B7
:103590007047C04600ED00E0240100D010B503885C
:1035A000DA0A1C2A05D15B055B1502335B00C018E3
:1035B00010BD034B034A0448992101F079FEC0462F
:1035C0008CA40010F8A50010A4A4001010B5091ACE
:1035D00004394B08090B05D15B055B0D0448184302
:1035E00080B210BD034B044A04488B2101F060FEF9
:1035F00000E0FFFFF4A40010ECA50010A4A400104C
:1036000010B5091A04394A08090B08D14905490DB2
:10361000064B0B430380064B1343438010BD054B01
:10362000054A0648932101F043FEC04600F0FFFF23
:1036300000F8FFFFF4A40010C0A50010A4A400101F
:1036400001238340034A10681840431E9841C0B2CA
:103650007047C04600E100E0002904D0034B186029
:10366000034B18607047034B1860FBE780E200E0F3
:1036700000E100E080E100E010B501238340180084
:10368000FFF7EAFF10BD0000024B9B68103080007E
:10369000C058704700ED00E070B504000D00EFF376
:1036A000108672B60C4B1B68002BFBD0BFF35F8FEC
:1036B0002000FFF7E9FF094B984201D0A84205D14D
:1036C000320029002000FFF755FF70BD044B054A6A
:1036D00005486E2101F0ECFD240100D0CD11001051
:1036E00004A5001008A60010A4A40010F0B5CE4652
:1036F000474680B583B006000D00EFF3108872B620
:10370000524B1B68002BFBD0BFF35F8F504B9A6866
:1037100034001034A300D7584E4B9F4207D0AF421D
:1037200000D190E001974C4BFB1A2F2B09D9424650
:1037300039003000FFF71EFF03B0C0BCB946B046E9
:10374000F0BD3000FFF77CFF814600213000FFF71D
:1037500093FFBFF35F8FFDF786FD002801D0844201
:103760001AD10123019C9C433B4A3C4B2100891AFE
:1037700049414B431B0D5BB29C460021A368AB4201
:1037800012D00622A256002A0DDB53009B189B0084
:10379000314A2100D418F1E7314B324A1E21324818
:1037A000FF3101F085FD2100AB4245D1062565576B
:1037B000002D2CDB284B6A00521992009B189A6846
:1037C000A260DA79E2719B795BB2A371002B10DA07
:1037D000BD200002A080204B6A00521992009B1865
:1037E000224A11789971157049463000FFF744FF5D
:1037F0009DE7680040198000174BC0180430FFF7A0
:10380000CDFE0100231D1800FFF7E0FEE2E70028CF
:103810000DD1002909D0FF238B71154B8B80134BE1
:103820001A78A27162461A70DEE70A4FF7E711496B
:10383000201DFFF7E5FED7E70F4B0A4AA9210A48EA
:10384000490001F035FD034F71E7C046240100D067
:1038500000ED00E0CD110010AC040020AAAA000089
:103860003CA50010D8A50010A4A40010FB1901204D
:1038700000BDFFFFE604002060A5001070B5040045
:10388000012606432D4BF31A2F2B28D8FDF7EBFC0E
:1038900000282BD0EFF3108C72B6294B1B68002B3D
:1038A000FBD0BFF35F8F254A264D2100891A49417D
:1038B0004D432D0D6DB2244B9B6880001B58B342C5
:1038C0001BD00021032932D81C4B4A005218920009
:1038D0009B189B795BB2AB421FD00131F2E71B4BC7
:1038E0001B4A78211B48FF3101F0E2FC1A4B184AB1
:1038F000BD211848490001F0DBFC134B9B68174AB7
:103900001A50174B1A78A2711D70BFF35F8F0C4BC2
:1039100000221A608CF3108870BD084B4A005018C2
:1039200080001818FF2686710E4A8280E9E70E4B48
:10393000074A8C210748FF3101F0BAFCAC04002093
:10394000240100D0AAAA000000ED00E068A5001044
:10395000A4A50010A4A4001090A50010CD11001083
:10396000FB19012000BDFFFF9CA500100022044BA5
:1039700002E0044902C30132072AFAD97047C0465F
:1039800000E400E080808080024B9C466144890016
:103990000160704740000034084B5B6A994209D8C7
:1039A000064A926A824207D2994201D0012002E07F
:1039B000002000E0002070470120FCE700400540A7
:1039C00010B500290AD003681B7B8B4206D38068A0
:1039D000054B9C4661440901401810BD034B044A45
:1039E00004483B2101F064FCFFFFFF0F24A60010F8
:1039F0005CA9001048A60010F8B504001700FFF7F6
:103A0000DFFF0668456839002000FFF7D9FF02682C
:103A100043680120AB4201D802D00020C0B2F8BDFB
:103A2000B242FBD8F9E7000010B5002B02DB0260C0
:103A3000436010BD024B034A03483F2101F038FCAC
:103A400018A0001028A9001034A0001070B582B092
:103A5000060014001D00069A079B12196B419D4237
:103A600002D804D1944202D901225242D3176846A7
:103A7000FFF7DAFF009A019B32607360300002B0FA
:103A800070BD000010B5002908D0037B8B4205D320
:103A900000684B005B18033BC01810BD024B034A83
:103AA0000348692101F004FC94A6001004A9001049
:103AB000B0A6001010B5437B8B4201D1012010BD90
:103AC000FFF7E0FF8378002B01D10020F7E701200A
:103AD000F5E770B50400857B002D01D1280070BD8D
:103AE0002900FFF7CFFF4378A373002B00D1E373C6
:103AF0000023837043700370F0E70000F8B5060000
:103B00000C001500FFF7BEFF0700002C0DD0002DA4
:103B100011D0AC4215D029003000FFF7B3FF8470FC
:103B20003B78002B13D13D70F8BD0A4B0A4A0B4875
:103B3000702101F0BDFB0A4B074A0848712101F0D2
:103B4000B7FB084B044A0548722101F0B1FB4370F2
:103B50003D70E9E710A70010E0A80010B0A6001023
:103B60001CA7001028A7001070B506000D00140057
:103B7000002914D0002A14D0436880689847002890
:103B800006D0220029003000FFF7B8FF280007E028
:103B90002A0021003000FFF7B1FF200000E01000F4
:103BA00070BD0800FCE7000070B504000D1E0CD0CD
:103BB000FFF768FF0023837043700370617B2A0066
:103BC0002000FFF7D1FF607370BD034B034A044828
:103BD000A62101F06DFBC04640A70010F4A800101C
:103BE000B0A6001070B505000C1E08D0FFF762FFEC
:103BF000002804D1E97B002907D1EC7370BD054B87
:103C0000054A0648F72101F053FB2800FFF73AFF69
:103C10004470F2E744A70010D0A80010B0A600102E
:103C200010B5002907D003681B7B8B4203D3C06803
:103C30000139401810BD034B034A0448402101F0EC
:103C400037FBC04624A60010BCA8001048A60010F0
:103C500070B505000C00080000F0B0FB200000F07B
:103C6000DDFC0849200000F01DFCFFF79DFB064B22
:103C70009C466044800068602C75044BA400E550AD
:103C800070BDC0469D3D001040000034B8110120B9
:103C90000A4B1A68EFF3108172B61368002BFCD040
:103CA000BFF35F8F054B1B68BFF35F8F00221A6065
:103CB00081F3108840BF002000217047901401203C
:103CC00010B582B0040000F085FB02000B006846CE
:103CD000FFF7AAFE009A019B22606360200002B0F9
:103CE00010BD70B584B0040016001D0002A8FFF7D7
:103CF000E7FF029A039B009601952000FFF7A6FEBE
:103D0000200004B070BD0000F0B583B00700019240
:103D10001D000AAB1C780BAB1E78002C0BD0006882
:103D20002100FFF7C7FE002809D0194B194A1A488D
:103D3000652101F0BDFA0068FFF7CBFE0400002CFE
:103D400002D1200003B0F0BD21003800FFF738FE9B
:103D5000019B03604560089B8360099BC3603868D2
:103D60002100FFF721FFA042EBD1387D019A2B0003
:103D700000F0E0FB051E01D0002E04D00C9B002BB0
:103D8000DFD01D70DDE73868210000F07FFDF5E72A
:103D900068A7001010A9001048A60010F0B5DE4674
:103DA00057464E464546E0B58FB00B900021784B04
:103DB0008200D458894682E029002000FFF700FEE7
:103DC000804602684368921BBB41002B09DD4346D5
:103DD0001A685B680B9800F0ADFB0023984600263C
:103DE00089E0002B01D1002AF1D10021584600F0D2
:103DF00043FD0700A84215D143461A685B68089244
:103E0000099343469E68DB689846002E10D029002F
:103E10002000FFF705FF037899461B021F43276127
:103E2000002068E05B4B5C4A5C488C2101F040FA62
:103E30005B4B594A5948902101F03AFA2369002B0B
:103E400077D0BB4219D106980799002342428B4193
:103E500000920193089A099B0CA8FFF7F7FD0C9AB2
:103E60000D9B00210491013103910295414601917E
:103E700000962000FFF748FF16E04A4B464A4748A5
:103E80009F2101F015FA069A079B002B01D1002A09
:103E900052D120682900FFF7A5FE29002000FFF776
:103EA000BFFE037801330370002323616268BFF310
:103EB0005F8F13608AF310880120002861D00CA85E
:103EC000FFF7FEFE0C9E0D9F00220023089209932F
:103ED0006268EFF3108A72B61368002BFCD0BFF350
:103EE0005F8F23689B465D7B002D00D064E7002335
:103EF0009846002600206368BFF35F8F00221A6097
:103F00008AF31088002ED8D04B461F022F4341461B
:103F10003800B047069007916268EFF3108A72B6D6
:103F20001368002BFCD0BFF35F8F079B002B00DAD8
:103F300084E7079B002BA6DD2369002BA9D0BB4299
:103F400019D10CA8FFF7BCFE0C9A0D9B0698079997
:103F5000009001910CA8FFF779FD0C9A0D9B0021B0
:103F60000491013103910295414601910096200090
:103F7000FFF7CAFE98E70B4B074A0848A22101F059
:103F800097F90FB0F0BCBB46B246A946A046F0BDBB
:103F9000B811012090A7001040A9001048A60010F9
:103FA000A8A70010B4A7001010B50A4B5B68002B3F
:103FB00004D009480A21FFF7E7FC10BD054C074A69
:103FC00020682300102100F0D0FB03212000FFF720
:103FD0003FFEEEE7F404002090140120F9390010B0
:103FE00010B5064B5B68002B01D0044810BD044B94
:103FF000044A05485C2101F05BF9C046F404002046
:10400000F0A70010A4A8001048A60010F0B5DE46E6
:1040100057464E464546E0B58DB0060090461F0017
:10402000169B9A46179B994618AB1B780793272334
:1040300002AA9446634400221A7021E00100300075
:10404000FFF7EEFD00783CE00698002B5CD0079B64
:10405000002B59D04946D04704000D0003000B4304
:1040600059D0002940DB08A8FFF72AFE089A099BCF
:104070000094019508A8FFF7E9FC089B9846099F62
:104080007268EFF3108B72B6136859424B41D9B284
:104090000691002BF8D1BFF35F8F273302AA944615
:1040A000634404930023039302934B4601935346C6
:1040B000009342463B003000FFF726FE0400051E39
:1040C000BCD17368BFF35F8F002119608BF3108838
:1040D000002D17D0272302AA944663441B78002B97
:1040E000B2D100022043B0E700236242AB4100920C
:1040F000019342463B0008A8FFF7A8FC089B98469E
:10410000099FBDE7012040420DB0F0BCBB46B2465E
:10411000A946A046F0BD0698F6E7F0B5C64600B53C
:1041200084B00500884616001F000AAB1C78FFF714
:1041300057FF0294019700962A004346FFF766FF57
:1041400004B080BCB846F0BDF0B5C64600B504006A
:104150000D004268EFF3108772B61368002BFCD095
:10416000BFF35F8FEEB22368984631001800FFF767
:10417000A1FC00282AD02369AB4213D02D0AEDB24E
:1041800031002000FFF74CFD0378AB4211D0002036
:104190006368BFF35F8F00221A6087F3108880BCCA
:1041A000B846F0BD0C4B0D4A85210D48490001F081
:1041B0007FF83100404600F069FB0028E8D1094B48
:1041C000064A12210648FF3101F072F82369AB421A
:1041D000DED100232361DBE714A800108CA80010B7
:1041E00048A6001038A8001010B50400FFF7F8FE2C
:1041F0002100FFF7A9FF10BD30B587B004000D0006
:10420000FDF731F8002820D106225242D3171219A7
:104210006B41AB4202D803D1A24201D90022002354
:1042200004A8FFF701FC02A8FFF74AFD02980399D2
:10423000049A059B121A8B41002B0BDC08D020003E
:10424000290000F0D3F807B030BD144801F0C8F8D9
:10425000002AF4D0124A0498059900230093FFF72E
:104260005CFF002813DAEAE70E4B1A68EFF31081BF
:1042700072B61368002BFCD0BFF35F8F094B1B682D
:10428000BFF35F8F00221A6081F3108820BF04986B
:104290000599FFF781FB0028E6D0D0E73CA8001085
:1042A000913C00109014012000B583B002000B0077
:1042B0006846FFF716FD00980199FFF79DFF03B0D0
:1042C00000BD10B5FA2292000023002102F0ECFF9D
:1042D000FFF7EAFF10BD000030B583B005000C0009
:1042E0000A4A00230093FFF718FF002808DD20BFCB
:1042F000FFF77AFF28002100FFF74EFB03B030BD27
:1043000028002100FFF748FBF8E7C046913C001069
:1043100010B5002B02DB0260436010BD024B034A64
:1043200003483F2100F0C4FF18A0001020AA00108D
:1043300034A0001070B5EFF305833F20184010380B
:10434000EFF3108C72B6184B1B68002BFBD0BFF339
:104350005F8F012319008140144A5163144A127877
:104360001400C440234213D0104B5C6A114B8500EB
:10437000EB589C4205D3104BEB580D4C8A432270EE
:1043800007E00A4A031D9B0099589950002300E05A
:104390000023BFF35F8F044A002111608CF3108863
:1043A000002B00D0984770BD280100D00040054088
:1043B000FD1901209C140120C80B002010B501003C
:1043C000024A034B1800FEF7BBFF10BD68A900109E
:1043D000F9190120044B5B6A034A906A1900536A79
:1043E0009942F9D17047C04600400540084B5B6ACE
:1043F00001E0074B5B6A8B42FBD301E0044B5B6A35
:104400008B4203D1024B9B6A8342F7D37047C0466D
:1044100000400540F0B583B004000D00FFF7DAFF5F
:1044200006000F0022002B0092197B41994202D80E
:1044300004D1904202D901225242D3176846FFF7B5
:1044400067FF00980199FFF7D1FF03B0F0BD0000AE
:1044500010B5002807DB064B9A6A054B9B6A9B1A2E
:104460008342FAD310BD0021FFF7D4FFFAE7C0461C
:104470000040054010B50A4B984207D843011B1A6B
:104480009B001818C000FFF7E3FF10BDFA2292004E
:104490000023002102F008FFFFF7BCFFF5E7C0464C
:1044A0009BC4200070B504000E00EFF3108572B6B7
:1044B0001B4B1B68002BFBD0BFF35F8F002E1CD063
:1044C0002000FFF7E1F8174B83420BD019002000C2
:1044D000FFF7E2F801212000FFF7CEF80123A34007
:1044E000114A1360114BA400E650BFF35F8F0C4BD1
:1044F00000221A6085F3108870BD0C4BA2000021C9
:10450000D1500122A2400A490B7893430B70054910
:104510002000FFF7EBF800212000FFF7ADF8E4E7FB
:10452000280100D03543001038600540C80B00203A
:10453000FD190120F0B5DE4600B584B00400150079
:1045400001921E000293FFF745FF03958E4202D8A9
:104550004ED185424CD9EFF3108B72B6274B1B68B6
:10456000002BFBD0BFF35F8F254A17780125A540AC
:10457000EBB23B431370234B5D63221D9200019904
:10458000D150214AA100029888501B6A2B4212D1B7
:104590001C4B1B6C2B4208D00020BFF35F8F174BC6
:1045A00000221A608BF3108823E0184B184A194830
:1045B000C12100F07DFEFFF70DFF8E4214D802D11D
:1045C000039B834210D80E4B1B78BB420ED00D4B81
:1045D0001D625D631F222240012393400E4A136037
:1045E000074B1F700120D8E70020D6E70120D4E751
:1045F000012004B080BCBB46F0BDC046280100D0FD
:10460000FD190120004005409C1401208CA90010D8
:1046100004AA0010B0A9001080E200E0EFF3108CB3
:1046200072B60B4B1B68002BFBD0BFF35F8F0123CF
:104630008340084A136208490A789A430A70BFF314
:104640005F8F034B00221A608CF310887047C046BE
:10465000280100D000400540FD19012010B50029B7
:1046600008D0037B8B4205D300684B005B18033BEB
:10467000C01810BD024B034A0348692100F018FE20
:1046800094A6001038AB0010B0A60010F8B50600D4
:104690000C001500FFF7E2FF0700002C0DD0002DE5
:1046A00011D0AC4215D029003000FFF7D7FF84703D
:1046B0003B78002B13D13D70F8BD0A4B0A4A0B48DA
:1046C000702100F0F5FD0A4B074A0848712100F0FF
:1046D000EFFD084B044A0548722100F0E9FD4370E4
:1046E0003D70E9E710A7001024AB0010B0A6001041
:1046F0001CA7001028A7001070B506000D001400BC
:10470000002914D0002A14D04368806898470028F4
:1047100006D0220029003000FFF7B8FF280007E08C
:104720002A0021003000FFF7B1FF200000E0100058
:1047300070BD0800FCE770B505000023437301332A
:104740008373037BC373012406E021002800FFF775
:1047500085FF0134E4B24470297BA142F5D82800DA
:10476000FFF77CFF0023437070BD10B501734260FA
:104770008360FFF7E0FF10BDF0B5C64600B5050049
:104780000C1E03D1200080BCB846F0BDFFF766FFC9
:104790004678002EF6D031002800FFF75FFF4778FB
:1047A00000239846437021002800FFF757FF434637
:1047B0004370320021002800FFF79EFF04003900FB
:1047C0002800FFF7D9FF020021002800FFF794FF1F
:1047D0000400D7E7F0B5C64600B504000D00170089
:1047E000002920D0FFF73AFF4378002B21D18378AE
:1047F000002B24D101782000FFF7BEFF0600804681
:10480000002F03D0E17B00291FD1E5734346002B25
:1048100020D129002000FFF721FF00234370300042
:1048200080BCB846F0BD0F4B0F4A1048382100F04D
:104830003FFD0F4B0C4A0D483A2100F039FD0D4B5E
:10484000094A0A483B2100F033FD2000FFF706FF2C
:104850004570DAE731002000FFF700FF0023837086
:10486000D7E7C04638AA001010AB001040AA0010CD
:104870008CAA0010B4AA001070B504000A00457B91
:104880002900FFF7A7FF6073280070BD70B5060010
:104890000C1E40D0437B8B4207D0FFF7DFFE0500A4
:1048A0008178002906D1002036E00121FFF7E4FFDE
:1048B000012031E03000FFF7D1FE0178A1420DD098
:1048C0003000FFF7CBFE4178A1420AD00029F7D192
:1048D000124B134A1348673100F0EAFC6B780370FF
:1048E00001E06B7843700023AB706B7001222100F4
:1048F0003000FFF76FFF0200717B814205D030006E
:10490000FFF7FAFE7073012006E0074B044A0548E2
:104910006D2100F0CDFC002070BDC0469CA50010AC
:10492000F8AA001040AA0010D8AA001010B5002B59
:1049300002DB0260436010BD024B034A03483F2183
:1049400000F0B6FC18A0001008AC001034A0001055
:10495000F0B585B0050016001F000192FA22920002
:1049600000230A98002102F09FFC02000B0092191C
:104970007B419F4202D804D1964202D90122524281
:10498000D31702A8FFF7D2FF029A039B2A606B603D
:10499000280005B0F0BD10B582B00400FFF71AFD85
:1049A00002000B006846FFF7C1FF009A019B2260DE
:1049B0006360200002B010BD30B585B004000D006A
:1049C00002A8FFF7E8FF029A039B00952000FFF77B
:1049D000BFFF200005B030BD10B50400FEF7E4FCB9
:1049E00001002000FEF7D0FFFF232371BFF35F8F8C
:1049F00010BD10B50400FEF7D7FC01002000FEF743
:104A0000C3FFFF23237100236371BFF35F8F10BDCA
:104A1000F0B5CE4600B504000E0091461F000C20F4
:104A200001F0FCFD050043011B1A9901C91AC900D8
:104A300009188901484601F0F1FD0200103A982357
:104A40005B009A4233D87B1E062B36D8069B013B6F
:104A5000062B32D8069B9F4235D34B461B09AB42EF
:104A600037D33F04069B1D032F432368002B36DBFF
:104A7000234B9C4241D080235B01224A1360224A8F
:104A80001360224A926819009143FAD12660A0600F
:104A9000221DC0239B01134321221A602268002A91
:104AA000FCDAE76008221A6080BCB946F0BD184BFA
:104AB000184A1948162100F0FBFB184B154A1648F6
:104AC000192100F0F5FB164B124A13481F2100F084
:104AD000EFFB144B0F4A1048222100F0E9FB22683B
:104AE0003F231340B342C3D1A3681B051B0D834270
:104AF000BED1E368002FBBD1D6E780239B01BCE782
:104B000000C0024000E0004000F0004000C0004053
:104B100020AC00100CAD00103CAC00108CAC0010B0
:104B2000D8AC0010F0AC001080239B000343014A76
:104B3000D362704700800540024B1A68024B5A60EE
:104B40007047C046B01101200080054010B5174BDA
:104B50008022D2051A60164B164A1A6000290AD024
:104B6000154BE022D2041A60002809D1124B802292
:104B700012061A6010BD0D4BE022D2041A60F3E752
:104B800043011B1A9B00181800010C4B186080236E
:104B90005B04984202D3094B094A1A60FFF7CCFF25
:104BA000054B8022D2051A60E4E7C04600B00540FC
:104BB00008200140FCFF010000A00540B0110120C9
:104BC000FFFFFF0010B5030010000C4A8024E4052D
:104BD0001460002B0DD001221343094A094CD46103
:104BE000094C5C401462516293620021FFF7AEFFF2
:104BF00010BD034B0022DA61F7E7C04600B0054064
:104C000000800540D3C007B02D3FF84F064BAA22C5
:104C100012011A602F22DA60044B054A1A60024B17
:104C20005B68002BFBDA70470040024000600240E6
:104C300000B0FA00F0B5DE4657464E464546E0B5B0
:104C400085B00700100098460EAB1B7803930F9DAC
:104C5000109E3B680022DA663B6859603B6801326F
:104C6000DA660022002399460024C3464146029199
:104C700090462BE03A79002A31D001222FE00399A7
:104C8000002901D000212EE001212CE03000A847AE
:104C900003000443E4B2002B06D13A68526BD206FB
:104CA00002D4002DF2D1F6E7002B09D13A68802119
:104CB0005158894600291FD1002C2FD1C2451ED042
:104CC000002C33D101229446E0440198D8452DDAD6
:104CD000029A013A92464246002ACBD00022920222
:104CE000C245CCD0002149020A43411C0191007801
:104CF000396802430A61D4E7526D01240EE0039A39
:104D0000002ADDD10AE03000A84703000443E4B2E2
:104D1000002B06D13A68526B920502D4002DF2D1D5
:104D2000F6E7002BCCD13A68126EC9E74246002C58
:104D300009D0002B15D14B46002B16D0DB0718D419
:104D40004B461B0709D5039B3B71100005B0F0BC17
:104D5000BB46B246A946A046F0BD02235B421A00FC
:104D6000F1E701235B421A00EDE702235B421A00E0
:104D7000E9E702235B421A00E5E7F0B5DE46574655
:104D80004E464546E0B583B00500924618000193B3
:104D90000CAB1A7893460D9E0E9F2B680022DA66A4
:104DA0002B6859602B680132DA66814600239846E9
:104DB0000024C8453FDA019A541E2A68516F102911
:104DC000FBD0414600290BD00020800244450ED084
:104DD000002149020843802149000143116118E084
:104DE0002979002901D10020EFE70120EDE759469C
:104DF000002901D00021ECE70121EAE73800B047A3
:104E000003000443E4B2002C15D12A68916F0029F5
:104E100009D12A6880215158546D621E9441E4B230
:104E2000002EEBD1EFE7126951460A700122944639
:104E3000E044E244BDE7002C04D0002B0CD0012359
:104E40005B4298465B462B71404603B0F0BCBB46C4
:104E5000B246A946A046F0BD02235B429846F1E760
:104E6000F0B5D6464F464646C0B505000C000520B5
:104E7000FEF74AFA060060088019210001F0CEFB17
:104E800007004300994681440521484601F0C6FBCE
:104E900080463B1A9A46284B9C4224D870008019C1
:104EA000264901F0BBFB441C4346023BA34221D3ED
:104EB0002B680022DA6629680B68043253400232FC
:104EC0001A4080235B010B431A602B685246DA615B
:104ED0002B6842461A624B464F2B11D95021484647
:104EE00001F09CFB0DE070008019154901F096FB64
:104EF000441CD9E7134B144A14485F2100F0D8F939
:104F000001202A68A023D0502B681A007C32DB6F66
:104F10005C402404240C80235B0113431C602B6839
:104F20000122DA663900300001F078FBE0BCBA46B5
:104F3000B146A846F0BDC0463F420F00809698009B
:104F400040787D0118AD001088AD001038AD00101C
:104F500010B5114B98421DD01022104B1A60104B07
:104F60001A60104B9B6814009C43231EF9D10471F6
:104F70000268D46602686624FF3414600268D36352
:104F80000268936302688833633CFF3CD450FFF7A8
:104F900067FF10BD0822E0E72405002000E0004084
:104FA00000F0004000C0004010B503680024DC663B
:104FB000002910D00468216880239B004B400B49D6
:104FC0000B408021490121430B6003689A6003680C
:104FD0000122DA6610BD01680B6841225340034A82
:104FE0001340802252010A431360F0E7410200009F
:104FF00030B585B008AC2578002402940194009562
:10500000FFF718FE05B030BD30B585B008AC257887
:105010000024029401940095FFF7AFFE05B030BD67
:105020000123084A1360084A1360084B9A68012359
:105030009343FAD1064B01221A60054B1B68DB052E
:10504000FBD5704700E0004000F0004000C0004089
:1050500000C00440028880235B019A4219D20223D7
:10506000C356013BDBB20B2B15D80323C356013BC0
:10507000DBB21E2B11D80379062B10D84379172BDE
:105080000FD883793B2B0ED8C3793B2B0DD8012049
:1050900000E0002070470020FCE70020FAE7002035
:1050A000F8E70020F6E70020F4E70020F2E7000030
:1050B000024BDB685B0801201840704700C00540C8
:1050C00010B50920FEF720F9002813D080231B0219
:1050D0000E4A13600E4A13600E4B9A6880231B021F
:1050E0009343F9D1013880235B02984208D20A4BDE
:1050F000186010BD094B0A4A0A48192100F0D8F877
:10510000094B074A0748242100F0D2F800E000408C
:1051100000F0004000C0004000C005409CAD001001
:105120001CAE0010ACAD0010FCAD001010B50400BA
:10513000FFF790FF002829D0154B0022DA60FFF717
:10514000B7FF0028FBD10022A35E1B030222A25658
:10515000120213430322A25613430D4A5360042341
:10516000E3561B060521615609040B4306216156CF
:1051700009020B43072161560B4393601023D36050
:105180000F3BD360FFF794FF0028FBD010BDC04653
:1051900000C0054070B50400FFF78AFF00281AD050
:1051A0000D4BD9699D690A0E0723134023710B0C1F
:1051B0001F22134063710E0A3F231E40A6710B404D
:1051C000E3712B0B1B051B0D2380290A0F230B40BA
:1051D000A3702A40E27070BD00C0054010B5010008
:1051E00018231B8814221088984710BD10B50100A1
:1051F00018231B8816221088984710BDF0B5C646A4
:1052000000B507000E0000250123984600E0013597
:10521000B5420AD2AC003C192068FFF7DFFF2060DE
:105220000028F4D100239846F1E7404680BCB846F8
:10523000F0BD000070B504000D000348FFF7CEFF7D
:1052400003002900200098475542000010B50023B4
:1052500010E0114A99008858104A88500133022BF7
:10526000F7D90F480021FFF7D5F80C4B00221A6040
:1052700010BD0133022B08D8084A99008858064A05
:105280008A589042F5D00023E9E7044B00221A60C7
:1052900000210020FFF7CEFFBCAF00107C050020EE
:1052A000400D030000BEFDE710B5FFF7FBFF000057
:1052B00030B583B00D001900002A0BD0074B084C05
:1052C000019200932B000200200002F0F7F9012068
:1052D000FFF7E8FF034B1A00F1E7C046ECAF001000
:1052E000FCAF0010189F001070B52B4B2B4A1A60B2
:1052F0002B4B2C4A1A602C4B9A682A4B9343FAD1B9
:105300002A4C01E008CC9847294B9C42FAD3FDF780
:105310007BFF234B274A1A60234B9B68DB43DB014F
:10532000FAD1254B40229A675A671A67DA66234CEE
:1053300009E0234B234A24488321FFF7B9FF2000CB
:10534000FFF74AFB0834214B9C4209D22368002B0B
:10535000F5D0012BEDD12000FFF74BFB0834F2E72D
:105360001B4DA9681B4CC022200002F05DF8AC6008
:10537000FBF779FF002800D000BEFEF705F8FEF726
:10538000F5FAFEF711FE144C01E008CC9847134BD8
:105390009C42FAD370BDC04600E00040BFCDFBFE8A
:1053A00000F00040FE7F3C0000C00040600500208F
:1053B00070050020FFFFFF0100F0014058050020AC
:1053C0002CB00010B0B000104CB0001060050020F0
:1053D00000ED00E000000020700500207C050020AA
:1053E0000FB400B583B0084802F036F9049B002BD7
:1053F00007D005A90191180002F03EF9034802F018
:105400002BF90120FFF74EFFA0B00010989F00106D
:10541000704710B5002802D00B684968984710BD46
:105420000100002007E083001B185B00501C08608F
:105430001078C01830380A681378303BDBB2092B7B
:10544000F1D97047F0B5DE4657464E464546E0B5C1
:1054500083B093461F000C9B9A460D9C0E9B994669
:105460000F9B9B0703D0B8460F00060022E0019275
:10547000A34688464E46B9460700B44207D2551C9B
:105480004B4641462020B84701342A00F5E73D004D
:105490004F465C46019B9B46B1464646B8463700A0
:1054A0002E0007E0013C551C5346185D4346390069
:1054B000B0472A00002CF5D135003E0047460F9B2F
:1054C0009B0707D4100003B0F0BCBB46B246A94608
:1054D000A046F0BDB0464E46B9462F005D46531B70
:1054E000B342EFD2541C4B4641462020B84722001D
:1054F000F5E7F0B5CE46474680B585B09446984668
:105500000C9D0D9C0EAB1B789946109A119B129E18
:10551000B7071CD4002B0CD0F7070AD54F46002F35
:1055200002D10C37374204D0013B02E030272F551F
:105530000134944201D21F2CF8D9F70707D59C42B9
:1055400005D21F2C03D830272F550134F5E7F70675
:1055500012D5770505D4002C03D0944221D09C426B
:105560001FD00F9A102A32D00F9A022A37D01F2C40
:105570000AD830222A5501341F2C05D84A46002A61
:1055800033D02D222A5501340396029301940095BD
:1055900043466246FFF756FF05B0C0BCB946B04669
:1055A000F0BD621E012C10D00F9F102F0BD01400E5
:1055B0000F9A102AD8D1B206D6D51F2CD4D858228B
:1055C0002A550134D3E7023CCBE71400C9E7B20601
:1055D000EED41F2CECD878222A550134C7E71F2CB3
:1055E000D2D860322A550134C1E7720703D52B2285
:1055F0002A550134C8E73207C6D520222A5501347E
:10560000C2E7F0B5DE4657464E464546E0B593B094
:1056100081468A46089209931CAB10CB1B789B46A7
:105620001E9D219B9846002C03D1102342469A438D
:1056300090468023DB0046461E4042461A4212D066
:10564000002C22D000260EE03033D9B2771C0AABF2
:1056500099552900200000F0E1FFAC4216D31F2F1E
:1056600014D83E0004002900200000F0D7FFCBB280
:10567000092BE9D94246920605D54121C918C9B27C
:105680000A39C9B2E2E76121F8E7270043460693E9
:10569000209B05931F9B049303955B460293019700
:1056A0000AAB0093099B089A51464846FFF721FF31
:1056B00013B0F0BCBB46B246A946A046F0BDF0B55B
:1056C000DE4657464E464546E0B597B00A900B91E8
:1056D0000C929A46209B9946219F22AA13789B46BA
:1056E000249B0993259C289B98464A463A4302D11D
:1056F0001032934398468022D200454615404346D7
:1057000013420AD04A463A4341D000252E00534660
:105710000D934D46099B9A461BE02E0053460D9370
:105720004D46099B9A4614E03033DAB2731C994611
:105730000EAB9A55524623002800390000F0B0FF06
:10574000BC4226D819D04B461F2B1CD84E4605000C
:105750000F00524623002800390000F0A1FFD3B209
:10576000092BE1D94246920605D54122D218D2B280
:105770000A3AD2B2DAE76122F8E7AA45E3D94E46FF
:105780000D9B9A4608E04E460D9B9A4604E0002683
:1057900002E04E460D9B9A4643460693279B05938F
:1057A000269B0493099B03935B46029301960EABE1
:1057B000009353460C9A0B990A98FFF79AFE17B07C
:1057C000F0BCBB46B246A946A046F0BDF0B5DE46E9
:1057D00057464E464546E0B591B0804689460C9204
:1057E0009A461A9C1B9D22002B002000290001F0E4
:1057F000E6F9002800D0ECE001225242D44B200010
:10580000290001F0D7F9002800D0E2E0012252423D
:10581000D04B2000290001F0B7F9002800D0D8E0D3
:10582000002200232000290001F0AEF9002800D05A
:10583000E4E0069407958023DB001E9A1A400D923F
:105840001E9A1A4201D106231C930698079902005A
:105850000B000892099303000A00024300D1D9E02B
:10586000080D4005400DBC4EB44660440A03120BBF
:105870001E00BA4B13431F0001F0B4F9B84AB94BEC
:1058800001F03FF9B84AB94B01F014F908900991B9
:105890000022B74B3000390001F003F9B54AB64B8E
:1058A00001F02FF902000B000898099901F002F9A4
:1058B00001F0B0F9834601F095F906000F00AF4AF8
:1058C000AF4B01F01EF90022AE4B01F0F3F801F0EE
:1058D000A1F90890AC4AAD4B3000390001F011F944
:1058E00006000F00089801F07DF9A94AA94B01F0C4
:1058F00008F902000B003000390001F0D2F8060070
:105900000F0002000B0001F0FCF80A900B91089BBD
:10591000A14A9446634400210022089109921B0584
:1059200009930023089332003B003000390001F056
:10593000C1F80E900F9132003B0000208021C90574
:1059400001F0AFF806000F000022944B0A980B9963
:1059500001F0B9F80022924B01F0ACF802000B0004
:105960000A980B9901F0AFF800228E4B01F0A2F8D3
:1059700002000B000A980B9901F0A5F802000B0039
:105980003000390001F096F802000B000E980F99D4
:1059900001F099F80022714B01F08CF8089A099BEC
:1059A00001F0AFF806000F0008960997069A079BCA
:1059B00001F000F900282FD001235B429C46E3440C
:1059C0000022774B3000390001F07DF808900991F2
:1059D00022E01E9B04931D9B03931C9B0293009447
:1059E000019553460C9A4946404600F0FFF811B025
:1059F000F0BCBB46B246A946A046F0BD002100223D
:105A000006910792069480231B069C46AC4463468D
:105A1000079310E700239B465B466333C62B20D8D1
:105A200004261E9B1B0528D5089A099B19001143C3
:105A30000FD05D4A5D4B0698079901F0B3F8002836
:105A40007AD000225A4B0698079901F09DF8002859
:105A500072D01C9B5B4506DD5A469B1A013B1C938A
:105A600003E00526DDE700231C938023DB001E9A5C
:105A70001A431E92002600239B461D9B9E4265D220
:105A80009F1B02231E9A1A400A921E9A134202D0AA
:105A9000002E00D000275B46002B07D0089A099BF8
:105AA0000698079901F00FF806900791002200234D
:105AB0002000290001F068F8002800D07CE03D4B70
:105AC0001E9A1340049303971C9B0293069B079C0A
:105AD0000093019453460C9A4946404600F086F8DC
:105AE000002E00D183E71E9B9B0671D54525441CE3
:105AF0005346020049462800C0475A46D317D218D9
:105B00005A4005230593013E0496002303930A336C
:105B100002935B46DB0F01930092534622004946F5
:105B20004046FFF76EFD0A9B002B00D15FE70200A5
:105B300047460C9E1D9D53E01C9B002B9DD00D9B4A
:105B4000002B9AD01C9B013B1C9396E7002798E7FB
:105B5000FFFFEF7FFFFFEFFF01FCFFFF0000F03FC3
:105B6000FB799F501344D33FB3C8608B288AC63F4C
:105B70000000F83F61436F63A787D23F71A37909A3
:105B80004F930A400000E03F1655B5BBB16B024091
:105B9000EF39FAFE422EE63FFF03000000002C40E2
:105BA00000002440000018402D431CEBE2361A3F51
:105BB00080842E41FFF7FFFF069C079D22002900ED
:105BC00080200006844661440B000692079376E726
:105BD00065258CE7541C534649462020B8472200CF
:105BE000931BAB42F6D3100001E7C046F0B5DE468A
:105BF00057464E464546E0B595B006900791934608
:105C00009946209F1E9A1F9B1000190000F0D7FF95
:105C1000002831D101225242BF4B1E981F9900F03B
:105C2000B3FF002837D101225242BC4B1E981F9966
:105C300000F0C0FF00283DD10022B94B1E981F99EB
:105C400000F0B8FF002850D10022B64B1E981F99D3
:105C500000F09AFF002848D1002200231E981F99C7
:105C600000F092FF002850D100239846229B5B054C
:105C700000D4B6E0002458E0229B0393219B0293BA
:105C800003230193A84B00934B465A460799069865
:105C9000FFF7D8FB0EE1229B0393219B0293042381
:105CA0000193A24B00934B465A4607990698FFF77B
:105CB000C9FBFFE00423229A1A4022990B4210D01C
:105CC0009B4B002A0FD00422229903912199029123
:105CD000019200934B465A4607990698FFF7B2FB8C
:105CE000E8E0944BEDE70322EEE7229B0493219B2F
:105CF000039302971E9B1F9C009301944B465A46A8
:105D000007990698FFF762FDD4E01E9A1F9B0020BA
:105D1000002100F0C6FE1E901F9101239846A5E7C2
:105D20000CAB30221A55013F01341F2C01D8092F2A
:105D3000F6D81E981F9900F06DFF050000F052FF85
:105D400002000B001E981F9900F0ABFE7A4BFA0080
:105D50009B181A685B680A920B9300F0D2FE0890B9
:105D6000099100F07BFF060000F038FF02000B00F5
:105D70000898099900F095FE0890099100226F4B50
:105D800000F018FF00282ED00136300000F026FF6A
:105D900002000B000A980B9900F0FCFE002801D0CD
:105DA00001350026002F2CD1280000F01BFF020037
:105DB0000B001E981F9900F074FE06000F000022D1
:105DC0005E4B00F0E1FE002846D100225B4B300024
:105DD000390000F0EFFE00283ED1EB073CD501353D
:105DE0003AE0062746E70022544B0898099900F04C
:105DF000CBFE0028D6D1002E01D0F307D2D5013634
:105E0000D0E7AA461F2C11D8013F0A21300000F02C
:105E100005FC651C30310CAB19550A21300000F02F
:105E2000FDFB092E0ED906002C00EBE755461F2C72
:105E30000CD87B1E002F09D00CAA302111551F0051
:105E40000134F4E72B0055461C00F0E71F2C03D863
:105E50000CAB2E221A5501341F2C10D80A21280011
:105E600000F0B4FB661C30310CAB19550A21280038
:105E700000F0ACFB051E01D03400EDE73400032335
:105E8000229A1340012B1CD01F2C06D84346002B0E
:105E900032D00CAB2D221A550134229B0393219B47
:105EA000029301940CAB00934B465A46079906980F
:105EB000FFF7C8FA15B0F0BCBB46B246A946A046EB
:105EC000F0BD219B002B13D04346002B02D10C3395
:105ED00013420FD0219B013B2193190003E00CAB2F
:105EE00030221A5501348C42CED21F2CF7D9CBE781
:105EF0002199F8E72199F6E7229B5B0704D50CABC3
:105F00002B221A550134C8E7229B1B07C5D50CABC1
:105F100020221A550134C0E7FFFFEFFFFFFFEF7F9C
:105F200065CDCD4165CDCDC1CCB00010D0B0001055
:105F3000C0B00010C8B0001078B200100000E03F00
:105F4000F0B5DE4657464E464546E0B593B082462C
:105F5000884693461193002900D106E30025564652
:105F6000119B1878002800D102E3252809D06C1C69
:105F70005B462A004146B047119B0133119325002F
:105F8000EEE701331193002720E001231F43013284
:105F90001192012418E002231F43013211920124BF
:105FA00012E004231F430132119201240CE0082364
:105FB0001F4301321192012406E010231F430132D6
:105FC0001192012400E00024002C09D0119A1378CA
:105FD000203BD9B21029F6D88B00C449CB589F4634
:105FE000119B1A781300303BDBB2092B10D92A2AF7
:105FF00013D00B94119B1A782E2A1ED0119A137865
:10600000683BD9B2122959D88B00B949CB589F4661
:1060100011A8FFF705FA0B90ECE71C9B1A1D1C92C8
:106020001B68002B04DB0B93119B01331193E1E7F9
:10603000022217435B420B93F6E78022D2001743FC
:106040005A1C11925A781300303BDBB2092B0BD942
:106050002A2AD3D11C9B1A1D1C921C68002C08DB19
:10606000119B01331193C9E711A8FFF7D9F9040077
:10607000C4E70024F4E780235B003B43511C1191EB
:1060800051786C2901D01F0018E0C0239B001F43EA
:106090000232119212E080233B43511C119151783E
:1060A000682901D01F0009E0C0231F43023211926A
:1060B00004E080235B001F4301321192119B18788A
:1060C000672816D8252826D30300253BDAB2422AB2
:1060D00021D89300874AD3589F4680239B001F43B3
:1060E00001321192EAE780235B001F4301321192D3
:1060F000E4E778280FD869280DD30200693AD2B2B4
:10610000012393407C4A13420FD11A0600D507E2BF
:106110005B0500D594E16C1C5B462A004146B04704
:10612000119B0133119325001AE778280AD06228C1
:106130003AD06F283BD058283CD010239F43063BD1
:106140009C4601E010239C46582836D0692803D08D
:10615000642801D00C2297437A0501D50122974388
:1061600069282DD064282BD0BA0500D5A2E0FA0505
:1061700000D5C3E07A0600D4D5E01C9A111D1C910D
:106180001168FF220A4005970B9B04930394634612
:1061900002930023019300925B462A00414630009F
:1061A000FFF72FFA05002AE002239C46CCE70823DC
:1061B0009C46C9E710239C46C6E720221743C5E743
:1061C000BA0520D4FA0550D47A0666D51C9A111D5A
:1061D0001C911168FF220A40D01711184140059701
:1061E0000B9B0493039463460293D20F0192009198
:1061F0005B462A0041463000FFF703FA0500119B79
:1062000001331193ACE61C9A073207218A4311002F
:1062100008311C91116853689946DB170C930D9354
:106220000C9A0D9B100048400E904A4653400F9325
:106230000E980F990C9A0D9B801A99410E900F9110
:1062400008970B9B079306946346049300230593DA
:106250004B46DA0F0292009001915B462A004146BC
:106260003000FFF72CFA0500C9E71C9A111D1C919C
:106270001268D0171118414005970B9B04930394A3
:1062800063460293D20F019200915B462A00414679
:106290003000FFF7B6F90500B1E73A0605D51C9ABC
:1062A000111D1C910023D25E96E71C9A111D1C91B2
:1062B000126891E71C9A073207218A4311000831BE
:1062C0001C9108970B9B0793069463460493002345
:1062D0000593029353681268009201935B462A006B
:1062E00041463000FFF7EBF9050088E7D8B0001011
:1062F0001CB1001068B10010419000001C9A111DE3
:106300001C9105970B9B049303946346029300230F
:106310000193136800935B462A0041463000FFF763
:1063200070F905006BE73A0606D51C9A111D1C9101
:1063300012681204120C26E71C9A111D1C91126897
:1063400021E7462819D01C9B0733072293431A00E4
:1063500008321C9204970B9A039202941A685B68A5
:10636000009201935B462A0041463000FFF73EFC55
:106370000500119B01331193F2E520231F43E2E74F
:10638000672801D0472802D180231B011F434528DD
:1063900001D0472801D120231F431C9B073307222C
:1063A00093431A0008321C9204970B9A03920294AA
:1063B0001A685B68009201935B462A0041463000F0
:1063C000FFF704FA0500119B01331193C8E502237E
:1063D0001A003A4091463B421DD001241C9B1A1DD5
:1063E0001C926F1C18785B462A004146B0474B460A
:1063F000002B14D1119B013311933D00B0E5571CC4
:106400005B4641462020B04723003A005C1C9D4279
:10641000F5D81500E2E701232A000B9DF6E73A00C4
:10642000B1460B9E06E0571C5B4641462020C847FC
:106430002C003A00651CA642F5D817004E46D9E755
:106440001C9B1A1D1C921B689A46002C25D1012208
:106450005242534601E001330A001978002902D064
:10646000511E002AF7D152469B1A8022D2003900D1
:1064700011408946174202D0A34200D923000222CC
:106480001100394010913A4209D02A0025005746A0
:106490009A4633004E46994621E02200D9E72A0069
:1064A0004546A04606E0541C5B4629002020B04724
:1064B0003B0022005F1C0B999942F4D84446A84641
:1064C0003B00250057469A4633004E46994606E063
:1064D0001D000137541C5B464146C84722003878EE
:1064E000002804D0002EF4D06B1E002DF0D1150032
:1064F00053464E46109A002A03D1119B0133119343
:106500002EE50B9F2A0006E0551C5B4641462020E5
:10651000B04723002A005C1C9F42F5D81500ECE729
:1065200021233B431C9A111D1C91126805930823DB
:1065300004930394083302930023019300925B4673
:106540002A0041463000FFF75CF80500119B01333B
:10655000119305E56C1C5B462A0041462520B04797
:10656000119B013311932500FAE40B4B9A46F5E495
:10657000B2465D450DD35B465A1E5B464146002040
:10658000D047280013B0F0BCBB46B246A946A0468F
:10659000F0BD2A00F1E7C0461154001000B585B0E7
:1065A0000290039101210448009313004A4202A97A
:1065B000FFF7C6FC05B000BD1354001001480421CC
:1065C000014B184730050020FD510010124A936F0F
:1065D0009B0815D29066D166002905D0FFE7FFE73A
:1065E000FFE7516F106F704704B580210906C2178D
:1065F0005140002800D0C84303F04EFC002104BDE8
:10660000F0B5146E556E576F166FFFF7E3FF146603
:10661000556657671667F0BD000000D0114A936FAA
:106620009B0813D210665166002905D0FFE7FFE7EB
:10663000FFE7516F106F704704B5002801D00020AC
:10664000C04303F029FC002104BDC046F0B5146E20
:10665000556E576F166FFFF7E5FF1466556657675F
:106660001667F0BD000000D094464E4A926F920823
:10667000624601D230E0C046F0B54A4EB56F6D08B3
:10668000FCD3346E756E776F366F00F025F8944644
:10669000444A14665566576716676246F0BDC046A1
:1066A0009446404A926F9208624601D258E0C04632
:1066B000F0B53C4EB56F6D08FCD3346E756E776FD8
:1066C000366F00F04DF89446364A146655665767A3
:1066D00016676246F0BDC046002B24DB11D00029AE
:1066E0003EDA00B5C943404200D1013100F038F82C
:1066F000C943404200D10131DB43524200D1013352
:1067000000BD002AEBD1002801D1002905D00020CE
:10671000C90FC90701D1C043410800B503F0ACFB64
:106720000022002300BD00B500290ADBDB435242F2
:1067300000D1013300F014F8C943404200D10131C7
:1067400000BDC943404200D10131DB43524200D178
:10675000013300F005F8DB43524200D1013300BDA4
:10676000002923D1002B18D1002A0CD0BC460D4F94
:1067700038667A6600210023FFE7FFE7FFE77A6FBC
:10678000386F67467047002801D00748010000B500
:1067900003F072FB0022002300BD02000B0000206A
:1067A00000217047000000D0FFFFFFFF002B00D04A
:1067B000BFE0130C28D1002AE7D080B4114F39660E
:1067C0007A66FFE7FFE730B4040C7B6F396F1B0478
:1067D00023433B667A66FFE7FFE7FFE7C04684B2E4
:1067E0007B6F3D6F1B0423433B667A66FFE7FFE741
:1067F000C04600232C042D0C7A6F386F00196941B4
:10680000B0BC7047000000D0F0B594460025140ECF
:1068100001D112020835140F01D112010435940F71
:1068200001D192000235D40F01D152000135D40BB1
:106830000134254F7C66254C3C660E0C93B2FFE775
:10684000FFE7FFE73C6F6643360C7703BE467343B2
:10685000DF0B5B04C01AB941130C7343DB18C91A70
:10686000CE086643360CB64493B273431F0F1B0128
:10687000C01AB941130C73431F0B1B05C01AB94151
:10688000860D8F023E436643360C092D24DB520AE7
:106890007243801A7703460A6643360C16235B1B45
:1068A000DE40DF40BF1964466643821B70460435F4
:1068B00006330100D940A840C01900D30131A242DB
:1068C00006D20023F0BD0000000000D0FFFFFFFF54
:1068D000121B0130F3D3F1E709277F1BFE4064460A
:1068E000A2B27243801A00D20139220C7243130CF7
:1068F0001204821A99410B007046043513370100C7
:10690000F940A840801900D30131002B02D1A242E6
:106910000AD2F0BD013000D30131121BFAD2013B83
:10692000F8D1A24200D2F0BD013000D30131121BD8
:10693000F7E7F0B51C0C00D080E00CB400251C0A71
:1069400004D11B02160E3343120208351C0B04D16E
:106950001B01160F3343120104359C0B04D19B001D
:10696000960F334392000235DC0B02D192185B4143
:1069700001351C00971864410134464F7C66464C33
:106980003C660E0CFFE7FFE7FFE7C0463C6F66433F
:10699000360C7703BE4697B27743C01B00D201394D
:1069A000C01B00D201399FB27743C91BC91B170C0A
:1069B00077437E04FF0B801BB941CE086643360C3B
:1069C0000C2D33DBB644120B1F053A431B0B97B259
:1069D0007743C01B00D201399FB27743C91B170C04
:1069E00077433E043F0C801BB941860D8F023E4326
:1069F000664329277F1BFE400C3D7746AF40BF19F9
:106A000030BCA2B2ABB272437343801A9941220CDC
:106A10007243130C1204801A994102000B000137D3
:106A2000001BA941F9D2781E0021F0BD0C277F1B65
:106A3000FE4077467F0BAF40FF19E0E700245D1C66
:106A400007D0144F7D663966FFE7FFE7FFE7FFE7F2
:106A50003C6F95B29EB265436643401BB141150C35
:106A60001E0C6543664336042F0C3E432D04401B29
:106A7000B141994204D202000B0020000021F0BD78
:106A800001D19042F7D3801A994101349942F2D34F
:106A9000F6E70000000000D0FFFFFFFF4840414044
:106AA000484018B41B4B5B68FC46019308BD04DFEB
:106AB0007B6D001018B4174B1B68FC46019308BD92
:106AC00000DF856D00109446134A926F920809D238
:106AD000624618B40F4BDB68FC46019308BD0CDF1F
